{
  "contractName": "BlackBishop",
  "abi": [
    {
      "inputs": [],
      "name": "getMetadata",
      "outputs": [
        {
          "internalType": "string",
          "name": "",
          "type": "string"
        }
      ],
      "stateMutability": "view",
      "type": "function",
      "constant": true
    },
    {
      "inputs": [],
      "name": "getMoveNumber",
      "outputs": [
        {
          "internalType": "uint8",
          "name": "",
          "type": "uint8"
        }
      ],
      "stateMutability": "pure",
      "type": "function",
      "constant": true
    },
    {
      "inputs": [
        {
          "internalType": "uint8",
          "name": "player",
          "type": "uint8"
        },
        {
          "internalType": "uint8",
          "name": "pawn",
          "type": "uint8"
        },
        {
          "internalType": "uint8",
          "name": "moveType",
          "type": "uint8"
        },
        {
          "internalType": "uint8",
          "name": "x",
          "type": "uint8"
        },
        {
          "internalType": "uint8",
          "name": "y",
          "type": "uint8"
        },
        {
          "internalType": "uint8[121]",
          "name": "state",
          "type": "uint8[121]"
        }
      ],
      "name": "performMove",
      "outputs": [
        {
          "internalType": "uint8[121]",
          "name": "outState",
          "type": "uint8[121]"
        }
      ],
      "stateMutability": "pure",
      "type": "function",
      "constant": true
    }
  ],
  "bytecode": "0x608060405234801561001057600080fd5b50610e94806100206000396000f3fe608060405234801561001057600080fd5b50600436106100415760003560e01c8063374f2ea114610046578063734fbab6146100f35780637a5b4f5914610117575b600080fd5b6100b56004803603610fc081101561005d57600080fd5b81019080803560ff169060200190929190803560ff169060200190929190803560ff169060200190929190803560ff169060200190929190803560ff16906020019092919080610f200190919291929050505061019a565b6040518082607960200280838360005b838110156100e05780820151818401526020810190506100c5565b5050505090500191505060405180910390f35b6100fb610caa565b604051808260ff1660ff16815260200191505060405180910390f35b61011f610cb3565b6040518080602001828103825283818151815260200191508051906020019080838360005b8381101561015f578082015181840152602081019050610144565b50505050905090810190601f16801561018c5780820380516001836020036101000a031916815260200191505b509250505060405180910390f35b6101a2610e07565b60008560ff161461021b576040517f08c379a000000000000000000000000000000000000000000000000000000000815260040180806020018281038252601b8152602001807f5061776e20636f6e7461696e73206f6e6c79206f6e65206d6f7665000000000081525060200191505060405180910390fd5b61025d826079806020026040519081016040528092919082607960200280828437600081840152601f19601f8201169050808301925050505050508888610cd3565b156102d0576040517f08c379a000000000000000000000000000000000000000000000000000000000815260040180806020018281038252601e8152602001807f506c617965722063616e2774206d6f7665206120626c61636b207061776e000081525060200191505060405180910390fd5b60088460ff1610806102e5575060088360ff16105b610357576040517f08c379a00000000000000000000000000000000000000000000000000000000081526004018080602001828103825260118152602001807f4d6f7665206f7574206f6620626f756e6400000000000000000000000000000081525060200191505060405180910390fd5b600080836079806020026040519081016040528092919082607960200280828437600081840152601f19601f82011690508083019250505050505073__StateController_______________________63781bdcde90918a6040518363ffffffff1660e01b81526004018083607960200280838360005b838110156103e95780820151818401526020810190506103ce565b505050509050018260ff1660ff16815260200192505050604080518083038186803b15801561041757600080fd5b505af415801561042b573d6000803e3d6000fd5b505050506040513d604081101561044157600080fd5b810190808051906020019092919080519060200190929190505050915091508160ff168660ff1614158061047b57508060ff168560ff1614155b6104ed576040517f08c379a000000000000000000000000000000000000000000000000000000000815260040180806020018281038252601c8152602001807f4d757374206265206120646966666572656e7420706f736974696f6e0000000081525060200191505060405180910390fd5b6104f8818603610de9565b60ff16610506838803610de9565b60ff161461057c576040517f08c379a00000000000000000000000000000000000000000000000000000000081526004018080602001828103825260118152602001807f4d6f7665206e6f7420646961676f6e616c00000000000000000000000000000081525060200191505060405180910390fd5b600082905060008290506000808960ff168660ff16106105bf577fffffffffffffffffffffffffffffffffffffffffffffffffffffffffffffffff9150816105c5565b60019150815b508860ff168560ff16106105fc577fffffffffffffffffffffffffffffffffffffffffffffffffffffffffffffffff905080610602565b60019050805b50818401935080830192505b8960ff168460ff16146107a057876079806020026040519081016040528092919082607960200280828437600081840152601f19601f82011690508083019250505050505073__StateController_______________________638b018128909186866040518463ffffffff1660e01b81526004018084607960200280838360005b838110156106ab578082015181840152602081019050610690565b505050509050018360ff1660ff1681526020018260ff168152602001935050505060206040518083038186803b1580156106e457600080fd5b505af41580156106f8573d6000803e3d6000fd5b505050506040513d602081101561070e57600080fd5b8101908080519060200190929190505050610791576040517f08c379a00000000000000000000000000000000000000000000000000000000081526004018080602001828103825260108152602001807f5061776e206f6e2074686520726f61640000000000000000000000000000000081525060200191505060405180910390fd5b8184019350808301925061060e565b6000886079806020026040519081016040528092919082607960200280828437600081840152601f19601f82011690508083019250505050505073__StateController_______________________63b939b10390918d8d6040518463ffffffff1660e01b81526004018084607960200280838360005b83811015610832578082015181840152602081019050610817565b505050509050018360ff1660ff1681526020018260ff168152602001935050505060206040518083038186803b15801561086b57600080fd5b505af415801561087f573d6000803e3d6000fd5b505050506040513d602081101561089557600080fd5b810190808051906020019092919050505090507fffffffffffffffffffffffffffffffffffffffffffffffffffffffffffffffff8160000b14610b7657610914896079806020026040519081016040528092919082607960200280828437600081840152601f19601f8201169050808301925050505050508f83610cd3565b610986576040517f08c379a000000000000000000000000000000000000000000000000000000000815260040180806020018281038252601d8152602001807f546865207061776e2070726573656e74206973206e6f74206120666f6500000081525060200191505060405180910390fd5b886079806020026040519081016040528092919082607960200280828437600081840152601f19601f82011690508083019250505050505073__StateController_______________________63fbecb24e9091836040518363ffffffff1660e01b81526004018083607960200280838360005b83811015610a155780820151818401526020810190506109fa565b505050509050018260ff1660ff16815260200192505050610f206040518083038186803b158015610a4557600080fd5b505af4158015610a59573d6000803e3d6000fd5b505050506040513d601f19601f82011682018060405250610f20811015610a7f57600080fd5b810190809190505097508773__StateController_______________________63fcc5cedb90918f8e8e6040518563ffffffff1660e01b81526004018085607960200280838360005b83811015610ae3578082015181840152602081019050610ac8565b505050509050018460ff1660ff1681526020018360ff1660ff1681526020018260ff1660ff168152602001945050505050610f206040518083038186803b158015610b2d57600080fd5b505af4158015610b41573d6000803e3d6000fd5b505050506040513d601f19601f82011682018060405250610f20811015610b6757600080fd5b81019080919050509750610c96565b886079806020026040519081016040528092919082607960200280828437600081840152601f19601f82011690508083019250505050505073__StateController_______________________63fcc5cedb90918f8e8e6040518563ffffffff1660e01b81526004018085607960200280838360005b83811015610c07578082015181840152602081019050610bec565b505050509050018460ff1660ff1681526020018360ff1660ff1681526020018260ff1660ff168152602001945050505050610f206040518083038186803b158015610c5157600080fd5b505af4158015610c65573d6000803e3d6000fd5b505050506040513d601f19601f82011682018060405250610f20811015610c8b57600080fd5b810190809190505097505b879750505050505050509695505050505050565b60006001905090565b6060604051806060016040528060348152602001610e2b60349139905090565b6000808473__StateController_______________________63d7b600b49091856040518363ffffffff1660e01b81526004018083607960200280838360005b83811015610d2e578082015181840152602081019050610d13565b505050509050018260ff1660ff1681526020019250505060206040518083038186803b158015610d5d57600080fd5b505af4158015610d71573d6000803e3d6000fd5b505050506040513d6020811015610d8757600080fd5b8101908080519060200190929190505050905060008460ff161415610dc65760058160ff161115610dbc576001915050610de2565b6000915050610de2565b60068160ff161015610ddc576001915050610de2565b60009150505b9392505050565b6000808260000b12610dfb5781610e00565b816000035b9050919050565b60405180610f20016040528060799060208202803683378082019150509050509056fe2f697066732f516d5759547355583778427a5978314152546471506a325a776a3466515164376872685a794a726e416b4e7a7969a2646970667358221220ad63d9457d50a80b3a2c8bafab10adf4315c8730764f204e04c14589e27d818864736f6c634300060b0033",
  "immutableReferences": {},
  "source": "pragma solidity 0.6.11;\n\nimport \"./ChessPawn.sol\";\nimport \"../Pawn.sol\";\nimport \"../StateController.sol\";\n\ncontract BlackBishop is Pawn, ChessPawn {\n    using StateController for uint8[121];\n\n    function getMetadata() external override view returns (string memory) {\n        return '/ipfs/QmWYTsUX7xBzYx1ARTdqPj2Zwj4fQQd7hrhZyJrnAkNzyi';\n    }\n    function getMoveNumber() external override pure returns(uint8) {\n        return 1;\n    }\n\n    function performMove(\n        uint8 player,\n        uint8 pawn,\n        uint8 moveType,\n        uint8 x,\n        uint8 y,\n        uint8[121] calldata state\n    ) external override pure returns(uint8[121] memory outState) {\n        require(moveType == 0, \"Pawn contains only one move\");\n        require(!isFoe(state, player, pawn), \"Player can't move a black pawn\");\n        require(x<8 || y<8, \"Move out of bound\");\n\n        // Get old positions\n        (uint8 oldX, uint8 oldY) = state.getPawnPosition(pawn);\n        require(x!=oldX || y!=oldY, \"Must be a different position\");\n\n        // Must be a diagonal move\n        require(\n            abs(int8(x)-int8(oldX)) == abs(int8(y)-int8(oldY)),\n            \"Move not diagonal\"\n        );\n\n        // Iteration to verify no pawn on the road\n        int8 i = int8(oldX);\n        int8 j = int8(oldY);\n        int8 incrementX;\n        int8 incrementY;\n        oldX < x ? incrementX = 1 : incrementX = -1;\n        oldY < y ? incrementY = 1 : incrementY = -1;\n\n        i += incrementX;\n        j += incrementY;\n        while (uint8(i)!=x) {\n            require(state.noPawnAt(uint8(i), uint8(j)), \"Pawn on the road\");\n            i += incrementX;\n            j += incrementY;\n        }\n\n        // If a foe is present in the destination, kill it\n        int8 presentPawn = state.getPawnAt(x, y);\n        if (presentPawn != -1) {\n            require(isFoe(state, player, uint8(presentPawn)), \"The pawn present is not a foe\");\n            outState = state.removePawn(uint8(presentPawn));\n            outState = outState.movePawn(pawn, x, y);\n        } else {\n            outState = state.movePawn(pawn, x, y);\n        }\n\n        return outState;\n    }\n}",
  "sourcePath": "/Users/lucas/Desktop/ethboards/contracts/Chess/BlackBishop.sol",
  "compiler": {
    "name": "solc",
    "version": "0.6.11+commit.5ef660b1.Emscripten.clang"
  },
  "schemaVersion": "3.2.2",
  "updatedAt": "2020-07-20T12:46:03.466Z",
  "networkType": "ethereum",
  "devdoc": {
    "kind": "dev",
    "methods": {
      "getMetadata()": {
        "returns": {
          "_0": "the string a allows to retrieve metadata (e.g IPFS hash)"
        }
      },
      "getMoveNumber()": {
        "returns": {
          "_0": "the number of available moves"
        }
      },
      "performMove(uint8,uint8,uint8,uint8,uint8,uint8[121])": {
        "params": {
          "moveType": "the specific move that the player wants to perform",
          "pawn": "the index of the pawn that perform the move",
          "player": "the player that perform the move (0 or 1)",
          "state": "the state of the game",
          "x": "x coordinate to perform the move into",
          "y": "y coordinate to perform the move into"
        },
        "returns": {
          "outState": "the new state once the move has been performed, reverted if the move is not possible"
        }
      }
    },
    "version": 1
  },
  "userdoc": {
    "kind": "user",
    "methods": {
      "getMetadata()": {
        "notice": "Allow to retrieve the metadata of the pawn"
      },
      "getMoveNumber()": {
        "notice": "Retrieve the number of moves implemented by the pawn"
      },
      "performMove(uint8,uint8,uint8,uint8,uint8,uint8[121])": {
        "notice": "Perform the state transition when performing a move of the pawn"
      }
    },
    "version": 1
  }
}