{
  "contractName": "BoardHandler",
  "abi": [
    {
      "inputs": [
        {
          "internalType": "address",
          "name": "ethBoardsAddress",
          "type": "address"
        }
      ],
      "stateMutability": "nonpayable",
      "type": "constructor"
    },
    {
      "anonymous": false,
      "inputs": [
        {
          "indexed": true,
          "internalType": "address",
          "name": "creator",
          "type": "address"
        },
        {
          "indexed": true,
          "internalType": "uint256",
          "name": "boardId",
          "type": "uint256"
        },
        {
          "indexed": false,
          "internalType": "string",
          "name": "name",
          "type": "string"
        }
      ],
      "name": "BoardCreated",
      "type": "event"
    },
    {
      "anonymous": false,
      "inputs": [
        {
          "indexed": true,
          "internalType": "address",
          "name": "playerA",
          "type": "address"
        },
        {
          "indexed": true,
          "internalType": "address",
          "name": "playerB",
          "type": "address"
        },
        {
          "indexed": false,
          "internalType": "address",
          "name": "winner",
          "type": "address"
        },
        {
          "indexed": false,
          "internalType": "uint256",
          "name": "boardId",
          "type": "uint256"
        },
        {
          "indexed": false,
          "internalType": "uint256",
          "name": "gameId",
          "type": "uint256"
        }
      ],
      "name": "GameFinished",
      "type": "event"
    },
    {
      "anonymous": false,
      "inputs": [
        {
          "indexed": true,
          "internalType": "address",
          "name": "playerA",
          "type": "address"
        },
        {
          "indexed": true,
          "internalType": "address",
          "name": "playerB",
          "type": "address"
        },
        {
          "indexed": true,
          "internalType": "uint256",
          "name": "boardId",
          "type": "uint256"
        },
        {
          "indexed": false,
          "internalType": "uint256",
          "name": "gameId",
          "type": "uint256"
        }
      ],
      "name": "GameStarted",
      "type": "event"
    },
    {
      "inputs": [
        {
          "internalType": "string",
          "name": "name",
          "type": "string"
        },
        {
          "internalType": "address",
          "name": "boardContract",
          "type": "address"
        },
        {
          "internalType": "address",
          "name": "pawnSetAddress",
          "type": "address"
        },
        {
          "internalType": "uint8[40]",
          "name": "x",
          "type": "uint8[40]"
        },
        {
          "internalType": "uint8[40]",
          "name": "y",
          "type": "uint8[40]"
        },
        {
          "internalType": "uint8[40]",
          "name": "pawnIndex",
          "type": "uint8[40]"
        },
        {
          "internalType": "uint8",
          "name": "pawnNb",
          "type": "uint8"
        }
      ],
      "name": "createBoard",
      "outputs": [],
      "stateMutability": "nonpayable",
      "type": "function"
    },
    {
      "inputs": [
        {
          "internalType": "uint256",
          "name": "boardId",
          "type": "uint256"
        }
      ],
      "name": "joinGame",
      "outputs": [],
      "stateMutability": "nonpayable",
      "type": "function"
    },
    {
      "inputs": [
        {
          "internalType": "uint256",
          "name": "boardId",
          "type": "uint256"
        },
        {
          "internalType": "uint256",
          "name": "gameId",
          "type": "uint256"
        },
        {
          "internalType": "uint8",
          "name": "winner",
          "type": "uint8"
        }
      ],
      "name": "finishGame",
      "outputs": [],
      "stateMutability": "nonpayable",
      "type": "function"
    },
    {
      "inputs": [],
      "name": "getBoardNumber",
      "outputs": [
        {
          "internalType": "uint256",
          "name": "",
          "type": "uint256"
        }
      ],
      "stateMutability": "view",
      "type": "function",
      "constant": true
    },
    {
      "inputs": [
        {
          "internalType": "uint256",
          "name": "boardId",
          "type": "uint256"
        }
      ],
      "name": "getBoardContractAddress",
      "outputs": [
        {
          "internalType": "address",
          "name": "",
          "type": "address"
        }
      ],
      "stateMutability": "view",
      "type": "function",
      "constant": true
    },
    {
      "inputs": [
        {
          "internalType": "uint256",
          "name": "boardId",
          "type": "uint256"
        }
      ],
      "name": "getBoardPawnNumber",
      "outputs": [
        {
          "internalType": "uint8",
          "name": "",
          "type": "uint8"
        }
      ],
      "stateMutability": "view",
      "type": "function",
      "constant": true
    },
    {
      "inputs": [
        {
          "internalType": "uint256",
          "name": "boardId",
          "type": "uint256"
        },
        {
          "internalType": "uint8",
          "name": "pawnIndex",
          "type": "uint8"
        }
      ],
      "name": "getBoardPawnContract",
      "outputs": [
        {
          "internalType": "address",
          "name": "",
          "type": "address"
        }
      ],
      "stateMutability": "view",
      "type": "function",
      "constant": true
    },
    {
      "inputs": [
        {
          "internalType": "uint256",
          "name": "boardId",
          "type": "uint256"
        }
      ],
      "name": "getInitialState",
      "outputs": [
        {
          "internalType": "uint8[121]",
          "name": "state",
          "type": "uint8[121]"
        }
      ],
      "stateMutability": "view",
      "type": "function",
      "constant": true
    },
    {
      "inputs": [
        {
          "internalType": "uint256",
          "name": "boardId",
          "type": "uint256"
        }
      ],
      "name": "getGameNumber",
      "outputs": [
        {
          "internalType": "uint256",
          "name": "",
          "type": "uint256"
        }
      ],
      "stateMutability": "view",
      "type": "function",
      "constant": true
    },
    {
      "inputs": [
        {
          "internalType": "uint256",
          "name": "boardId",
          "type": "uint256"
        }
      ],
      "name": "isWaitingPlayer",
      "outputs": [
        {
          "internalType": "bool",
          "name": "isWaiting",
          "type": "bool"
        },
        {
          "internalType": "address",
          "name": "waitingPlayer",
          "type": "address"
        }
      ],
      "stateMutability": "view",
      "type": "function",
      "constant": true
    },
    {
      "inputs": [
        {
          "internalType": "uint256",
          "name": "boardId",
          "type": "uint256"
        },
        {
          "internalType": "uint256",
          "name": "gameId",
          "type": "uint256"
        }
      ],
      "name": "isGameOver",
      "outputs": [
        {
          "internalType": "bool",
          "name": "",
          "type": "bool"
        }
      ],
      "stateMutability": "view",
      "type": "function",
      "constant": true
    },
    {
      "inputs": [
        {
          "internalType": "uint256",
          "name": "boardId",
          "type": "uint256"
        },
        {
          "internalType": "uint256",
          "name": "gameId",
          "type": "uint256"
        },
        {
          "internalType": "uint256",
          "name": "turnNumber",
          "type": "uint256"
        }
      ],
      "name": "getGamePlayerAddress",
      "outputs": [
        {
          "internalType": "address",
          "name": "",
          "type": "address"
        }
      ],
      "stateMutability": "view",
      "type": "function",
      "constant": true
    },
    {
      "inputs": [
        {
          "internalType": "uint256",
          "name": "boardId",
          "type": "uint256"
        },
        {
          "internalType": "uint256",
          "name": "gameId",
          "type": "uint256"
        },
        {
          "internalType": "address",
          "name": "playerAddress",
          "type": "address"
        }
      ],
      "name": "getGamePlayerIndex",
      "outputs": [
        {
          "internalType": "int256",
          "name": "",
          "type": "int256"
        }
      ],
      "stateMutability": "view",
      "type": "function",
      "constant": true
    }
  ],
  "bytecode": "0x608060405234801561001057600080fd5b506040516126083803806126088339818101604052602081101561003357600080fd5b81019080805190602001909291905050506000808190555080600260006101000a81548173ffffffffffffffffffffffffffffffffffffffff021916908373ffffffffffffffffffffffffffffffffffffffff1602179055505061256c8061009c6000396000f3fe608060405234801561001057600080fd5b50600436106100cf5760003560e01c806368e987e71161008c5780639439060f116100665780639439060f1461059a578063efaa55a0146105dc578063f881add21461060a578063fe2be32314610678576100cf565b806368e987e7146102ce5780636aade5ba1461034957806372e57afd14610518576100cf565b806308c4a77e146100d4578063140604cc1461014d57806316796dee146101b75780634d79b758146101d55780635cbecfc41461021a57806365d377a914610262575b600080fd5b610100600480360360208110156100ea57600080fd5b81019080803590602001909291905050506106c8565b60405180831515151581526020018273ffffffffffffffffffffffffffffffffffffffff1673ffffffffffffffffffffffffffffffffffffffff1681526020019250505060405180910390f35b6101796004803603602081101561016357600080fd5b8101908080359060200190929190505050610807565b6040518082607960200280838360005b838110156101a4578082015181840152602081019050610189565b5050505090500191505060405180910390f35b6101bf610a62565b6040518082815260200191505060405180910390f35b610218600480360360608110156101eb57600080fd5b810190808035906020019092919080359060200190929190803560ff169060200190929190505050610a6b565b005b6102466004803603602081101561023057600080fd5b8101908080359060200190929190505050610f99565b604051808260ff1660ff16815260200191505060405180910390f35b6102b86004803603606081101561027857600080fd5b810190808035906020019092919080359060200190929190803573ffffffffffffffffffffffffffffffffffffffff169060200190929190505050611044565b6040518082815260200191505060405180910390f35b610307600480360360408110156102e457600080fd5b8101908080359060200190929190803560ff169060200190929190505050611298565b604051808273ffffffffffffffffffffffffffffffffffffffff1673ffffffffffffffffffffffffffffffffffffffff16815260200191505060405180910390f35b6105166004803603610f8081101561036057600080fd5b810190808035906020019064010000000081111561037d57600080fd5b82018360208201111561038f57600080fd5b803590602001918460018302840111640100000000831117156103b157600080fd5b91908080601f016020809104026020016040519081016040528093929190818152602001838380828437600081840152601f19601f820116905080830192505050505050509192919290803573ffffffffffffffffffffffffffffffffffffffff169060200190929190803573ffffffffffffffffffffffffffffffffffffffff1690602001909291908061050001906028806020026040519081016040528092919082602860200280828437600081840152601f19601f82011690508083019250505050505091929192908061050001906028806020026040519081016040528092919082602860200280828437600081840152601f19601f82011690508083019250505050505091929192908061050001906028806020026040519081016040528092919082602860200280828437600081840152601f19601f8201169050808301925050505050509192919290803560ff1690602001909291905050506113ee565b005b6105586004803603606081101561052e57600080fd5b81019080803590602001909291908035906020019092919080359060200190929190505050611a3c565b604051808273ffffffffffffffffffffffffffffffffffffffff1673ffffffffffffffffffffffffffffffffffffffff16815260200191505060405180910390f35b6105c6600480360360208110156105b057600080fd5b8101908080359060200190929190505050611c16565b6040518082815260200191505060405180910390f35b610608600480360360208110156105f257600080fd5b8101908080359060200190929190505050611cb4565b005b6106366004803603602081101561062057600080fd5b81019080803590602001909291905050506120e1565b604051808273ffffffffffffffffffffffffffffffffffffffff1673ffffffffffffffffffffffffffffffffffffffff16815260200191505060405180910390f35b6106ae6004803603604081101561068e57600080fd5b81019080803590602001909291908035906020019092919050505061219f565b604051808215151515815260200191505060405180910390f35b6000806000548310610742576040517f08c379a00000000000000000000000000000000000000000000000000000000081526004018080602001828103825260178152602001807f54686520626f61726420646f65736e277420657869737400000000000000000081525060200191505060405180910390fd5b60019150600073ffffffffffffffffffffffffffffffffffffffff166001848154811061076b57fe5b906000526020600020906008020160070160009054906101000a900473ffffffffffffffffffffffffffffffffffffffff1673ffffffffffffffffffffffffffffffffffffffff1614156107be57600091505b81600184815481106107cc57fe5b906000526020600020906008020160070160009054906101000a900473ffffffffffffffffffffffffffffffffffffffff1691509150915091565b61080f6122f2565b6000548210610886576040517f08c379a00000000000000000000000000000000000000000000000000000000081526004018080602001828103825260178152602001807f54686520626f61726420646f65736e277420657869737400000000000000000081525060200191505060405180910390fd5b6001828154811061089357fe5b906000526020600020906008020160030160149054906101000a900460ff16816000607981106108bf57fe5b602002019060ff16908160ff168152505060008090505b600183815481106108e357fe5b906000526020600020906008020160030160149054906101000a900460ff1660ff168160ff161015610a5957600180848154811061091d57fe5b906000526020600020906008020160040160008360ff1660ff16815260200190815260200160002060000160009054906101000a900460ff1601828260010160ff166079811061096957fe5b602002019060ff16908160ff16815250506001838154811061098757fe5b906000526020600020906008020160040160008260ff1660ff16815260200190815260200160002060000160019054906101000a900460ff16828260290160ff16607981106109d257fe5b602002019060ff16908160ff1681525050600183815481106109f057fe5b906000526020600020906008020160040160008260ff1660ff16815260200190815260200160002060000160029054906101000a900460ff16828260510160ff1660798110610a3b57fe5b602002019060ff16908160ff168152505080806001019150506108d6565b50809050919050565b60008054905090565b600260009054906101000a900473ffffffffffffffffffffffffffffffffffffffff1673ffffffffffffffffffffffffffffffffffffffff163373ffffffffffffffffffffffffffffffffffffffff1614610b11576040517f08c379a00000000000000000000000000000000000000000000000000000000081526004018080602001828103825260358152602001806125026035913960400191505060405180910390fd5b6000548310610b88576040517f08c379a00000000000000000000000000000000000000000000000000000000081526004018080602001828103825260178152602001807f54686520626f61726420646f65736e277420657869737400000000000000000081525060200191505060405180910390fd5b60018381548110610b9557fe5b9060005260206000209060080201600501548210610c1b576040517f08c379a00000000000000000000000000000000000000000000000000000000081526004018080602001828103825260168152602001807f5468652067616d6520646f65736e27742065786973740000000000000000000081525060200191505060405180910390fd5b60018381548110610c2857fe5b9060005260206000209060080201600601600083815260200190815260200160002060010160149054906101000a900460ff1615610cce576040517f08c379a00000000000000000000000000000000000000000000000000000000081526004018080602001828103825260188152602001807f5468652067616d6520697320616c7265616479206f766572000000000000000081525060200191505060405180910390fd5b60028160ff1610610d47576040517f08c379a00000000000000000000000000000000000000000000000000000000081526004018080602001828103825260188152602001807f5468652077696e6e657220646f65736e2774206578697374000000000000000081525060200191505060405180910390fd5b6000808260ff161415610dae5760018481548110610d6157fe5b9060005260206000209060080201600601600084815260200190815260200160002060000160009054906101000a900473ffffffffffffffffffffffffffffffffffffffff169050610e04565b60018481548110610dbb57fe5b9060005260206000209060080201600601600084815260200190815260200160002060010160009054906101000a900473ffffffffffffffffffffffffffffffffffffffff1690505b60018481548110610e1157fe5b9060005260206000209060080201600601600084815260200190815260200160002060010160009054906101000a900473ffffffffffffffffffffffffffffffffffffffff1673ffffffffffffffffffffffffffffffffffffffff1660018581548110610e7a57fe5b9060005260206000209060080201600601600085815260200190815260200160002060000160009054906101000a900473ffffffffffffffffffffffffffffffffffffffff1673ffffffffffffffffffffffffffffffffffffffff167f0ffff200143c07c471e3d4bd1972a1b601d278491708eef4ec7cf9e921fda192838787604051808473ffffffffffffffffffffffffffffffffffffffff1673ffffffffffffffffffffffffffffffffffffffff168152602001838152602001828152602001935050505060405180910390a36001808581548110610f5757fe5b9060005260206000209060080201600601600085815260200190815260200160002060010160146101000a81548160ff02191690831515021790555050505050565b600080548210611011576040517f08c379a00000000000000000000000000000000000000000000000000000000081526004018080602001828103825260178152602001807f54686520626f61726420646f65736e277420657869737400000000000000000081525060200191505060405180910390fd5b6001828154811061101e57fe5b906000526020600020906008020160030160149054906101000a900460ff169050919050565b6000805484106110bc576040517f08c379a00000000000000000000000000000000000000000000000000000000081526004018080602001828103825260178152602001807f54686520626f61726420646f65736e277420657869737400000000000000000081525060200191505060405180910390fd5b600184815481106110c957fe5b906000526020600020906008020160050154831061114f576040517f08c379a00000000000000000000000000000000000000000000000000000000081526004018080602001828103825260168152602001807f5468652067616d6520646f65736e27742065786973740000000000000000000081525060200191505060405180910390fd5b6001848154811061115c57fe5b9060005260206000209060080201600601600084815260200190815260200160002060000160009054906101000a900473ffffffffffffffffffffffffffffffffffffffff1673ffffffffffffffffffffffffffffffffffffffff168273ffffffffffffffffffffffffffffffffffffffff1614156111de5760009050611291565b600184815481106111eb57fe5b9060005260206000209060080201600601600084815260200190815260200160002060010160009054906101000a900473ffffffffffffffffffffffffffffffffffffffff1673ffffffffffffffffffffffffffffffffffffffff168273ffffffffffffffffffffffffffffffffffffffff16141561126d5760019050611291565b7fffffffffffffffffffffffffffffffffffffffffffffffffffffffffffffffff90505b9392505050565b600080548310611310576040517f08c379a00000000000000000000000000000000000000000000000000000000081526004018080602001828103825260178152602001807f54686520626f61726420646f65736e277420657869737400000000000000000081525060200191505060405180910390fd5b60006001848154811061131f57fe5b906000526020600020906008020160030160009054906101000a900473ffffffffffffffffffffffffffffffffffffffff1690508073ffffffffffffffffffffffffffffffffffffffff1663ed555823846040518263ffffffff1660e01b8152600401808260ff1660ff16815260200191505060206040518083038186803b1580156113aa57600080fd5b505afa1580156113be573d6000803e3d6000fd5b505050506040513d60208110156113d457600080fd5b810190808051906020019092919050505091505092915050565b60288160ff1611158015611405575060008160ff16115b61145a576040517f08c379a000000000000000000000000000000000000000000000000000000000815260040180806020018281038252602b8152602001806124d7602b913960400191505060405180910390fd5b611462612315565b60005481600001818152505086816020019073ffffffffffffffffffffffffffffffffffffffff16908173ffffffffffffffffffffffffffffffffffffffff168152505085816060019073ffffffffffffffffffffffffffffffffffffffff16908173ffffffffffffffffffffffffffffffffffffffff168152505081816080019060ff16908160ff168152505060008160a001818152505060008160c0019073ffffffffffffffffffffffffffffffffffffffff16908173ffffffffffffffffffffffffffffffffffffffff168152505060018190806001815401808255809150506001900390600052602060002090600802016000909190919091506000820151816000015560208201518160010160006101000a81548173ffffffffffffffffffffffffffffffffffffffff021916908373ffffffffffffffffffffffffffffffffffffffff16021790555060408201518160020190805190602001906115cd929190612397565b5060608201518160030160006101000a81548173ffffffffffffffffffffffffffffffffffffffff021916908373ffffffffffffffffffffffffffffffffffffffff16021790555060808201518160030160146101000a81548160ff021916908360ff16021790555060a0820151816005015560c08201518160070160006101000a81548173ffffffffffffffffffffffffffffffffffffffff021916908373ffffffffffffffffffffffffffffffffffffffff1602179055505050600086905060008173ffffffffffffffffffffffffffffffffffffffff166368b1cc996040518163ffffffff1660e01b815260040160206040518083038186803b1580156116d657600080fd5b505afa1580156116ea573d6000803e3d6000fd5b505050506040513d602081101561170057600080fd5b8101908080519060200190929190505050905060008090505b8460ff168160ff161015611969576008888260ff166028811061173857fe5b602002015160ff1610801561176357506008878260ff166028811061175957fe5b602002015160ff16105b6117b8576040517f08c379a00000000000000000000000000000000000000000000000000000000081526004018080602001828103825260218152602001806124b66021913960400191505060405180910390fd5b8160ff16868260ff16602881106117cb57fe5b602002015160ff1610611846576040517f08c379a00000000000000000000000000000000000000000000000000000000081526004018080602001828103825260168152602001807f546865207061776e20646f65736e27742065786973740000000000000000000081525060200191505060405180910390fd5b61184e612417565b868260ff166028811061185d57fe5b6020020151816000019060ff16908160ff1681525050888260ff166028811061188257fe5b6020020151816020019060ff16908160ff1681525050878260ff16602881106118a757fe5b6020020151816040019060ff16908160ff1681525050806001600054815481106118cd57fe5b906000526020600020906008020160040160008460ff1660ff16815260200190815260200160002060008201518160000160006101000a81548160ff021916908360ff16021790555060208201518160000160016101000a81548160ff021916908360ff16021790555060408201518160000160026101000a81548160ff021916908360ff160217905550905050508080600101915050611719565b506000543373ffffffffffffffffffffffffffffffffffffffff167fe820c892428a1b85fdf99f24e32fbe1165413ebb7119bde5dfa6cb72334f75808c6040518080602001828103825283818151815260200191508051906020019080838360005b838110156119e65780820151818401526020810190506119cb565b50505050905090810190601f168015611a135780820380516001836020036101000a031916815260200191505b509250505060405180910390a36001600080828254019250508190555050505050505050505050565b600080548410611ab4576040517f08c379a00000000000000000000000000000000000000000000000000000000081526004018080602001828103825260178152602001807f54686520626f61726420646f65736e277420657869737400000000000000000081525060200191505060405180910390fd5b60018481548110611ac157fe5b9060005260206000209060080201600501548310611b47576040517f08c379a00000000000000000000000000000000000000000000000000000000081526004018080602001828103825260168152602001807f5468652067616d6520646f65736e27742065786973740000000000000000000081525060200191505060405180910390fd5b60008060028481611b5457fe5b061415611bb55760018581548110611b6857fe5b9060005260206000209060080201600601600085815260200190815260200160002060000160009054906101000a900473ffffffffffffffffffffffffffffffffffffffff169050611c0b565b60018581548110611bc257fe5b9060005260206000209060080201600601600085815260200190815260200160002060010160009054906101000a900473ffffffffffffffffffffffffffffffffffffffff1690505b809150509392505050565b600080548210611c8e576040517f08c379a00000000000000000000000000000000000000000000000000000000081526004018080602001828103825260178152602001807f54686520626f61726420646f65736e277420657869737400000000000000000081525060200191505060405180910390fd5b60018281548110611c9b57fe5b9060005260206000209060080201600501549050919050565b6000548110611d2b576040517f08c379a00000000000000000000000000000000000000000000000000000000081526004018080602001828103825260178152602001807f54686520626f61726420646f65736e277420657869737400000000000000000081525060200191505060405180910390fd5b600073ffffffffffffffffffffffffffffffffffffffff1660018281548110611d5057fe5b906000526020600020906008020160070160009054906101000a900473ffffffffffffffffffffffffffffffffffffffff1673ffffffffffffffffffffffffffffffffffffffff161415611e00573360018281548110611dac57fe5b906000526020600020906008020160070160006101000a81548173ffffffffffffffffffffffffffffffffffffffff021916908373ffffffffffffffffffffffffffffffffffffffff1602179055506120de565b611e08612441565b60018281548110611e1557fe5b906000526020600020906008020160070160009054906101000a900473ffffffffffffffffffffffffffffffffffffffff16816000019073ffffffffffffffffffffffffffffffffffffffff16908173ffffffffffffffffffffffffffffffffffffffff168152505033816020019073ffffffffffffffffffffffffffffffffffffffff16908173ffffffffffffffffffffffffffffffffffffffff168152505060008160400190151590811515815250508060018381548110611ed557fe5b9060005260206000209060080201600601600060018581548110611ef557fe5b906000526020600020906008020160050154815260200190815260200160002060008201518160000160006101000a81548173ffffffffffffffffffffffffffffffffffffffff021916908373ffffffffffffffffffffffffffffffffffffffff16021790555060208201518160010160006101000a81548173ffffffffffffffffffffffffffffffffffffffff021916908373ffffffffffffffffffffffffffffffffffffffff16021790555060408201518160010160146101000a81548160ff02191690831515021790555090505081816020015173ffffffffffffffffffffffffffffffffffffffff16826000015173ffffffffffffffffffffffffffffffffffffffff167f89e651d0d1f877f5c444ff351a9449c3b36bbc92b470093d9fc085b1bbd1e3bc6001868154811061202b57fe5b9060005260206000209060080201600501546040518082815260200191505060405180910390a460006001838154811061206157fe5b906000526020600020906008020160070160006101000a81548173ffffffffffffffffffffffffffffffffffffffff021916908373ffffffffffffffffffffffffffffffffffffffff16021790555060018083815481106120be57fe5b906000526020600020906008020160050160008282540192505081905550505b50565b600080548210612159576040517f08c379a00000000000000000000000000000000000000000000000000000000081526004018080602001828103825260178152602001807f54686520626f61726420646f65736e277420657869737400000000000000000081525060200191505060405180910390fd5b6001828154811061216657fe5b906000526020600020906008020160010160009054906101000a900473ffffffffffffffffffffffffffffffffffffffff169050919050565b600080548310612217576040517f08c379a00000000000000000000000000000000000000000000000000000000081526004018080602001828103825260178152602001807f54686520626f61726420646f65736e277420657869737400000000000000000081525060200191505060405180910390fd5b6001838154811061222457fe5b90600052602060002090600802016005015482106122aa576040517f08c379a00000000000000000000000000000000000000000000000000000000081526004018080602001828103825260168152602001807f5468652067616d6520646f65736e27742065786973740000000000000000000081525060200191505060405180910390fd5b600183815481106122b757fe5b9060005260206000209060080201600601600083815260200190815260200160002060010160149054906101000a900460ff16905092915050565b60405180610f200160405280607990602082028036833780820191505090505090565b6040518060e0016040528060008152602001600073ffffffffffffffffffffffffffffffffffffffff16815260200160608152602001600073ffffffffffffffffffffffffffffffffffffffff168152602001600060ff16815260200160008152602001600073ffffffffffffffffffffffffffffffffffffffff1681525090565b828054600181600116156101000203166002900490600052602060002090601f016020900481019282601f106123d857805160ff1916838001178555612406565b82800160010185558215612406579182015b828111156124055782518255916020019190600101906123ea565b5b5090506124139190612490565b5090565b6040518060600160405280600060ff168152602001600060ff168152602001600060ff1681525090565b6040518060600160405280600073ffffffffffffffffffffffffffffffffffffffff168152602001600073ffffffffffffffffffffffffffffffffffffffff1681526020016000151581525090565b6124b291905b808211156124ae576000816000905550600101612496565b5090565b9056fe546865207061776e20706f736974696f6e206973206f7574206f6620626f756e64596f752063616e20706c616365206d6178696d756d203430207061776e73206f6e2074686520626f6172645468652066756e6374696f6e206d7573742062652063616c6c65642062792074686520657468626f6172647320636f6e7472616374a2646970667358221220df16003792c40348a1ed961410444591e207352bb1b5310ad31aa0624940556564736f6c634300060b0033",
  "immutableReferences": {},
  "source": "pragma solidity 0.6.11;\n\nimport \"./PawnSet.sol\";\n\n\n/**\n * @title Board Handler\n * @notice The storage contract, store the informations about boards and games\n*/\ncontract BoardHandler {\n\n    ///////////////////////////////////////////////////////////////\n    /// Events\n\n    /**\n    * Emitted when a new board is created\n    * @param creator The creator of the board\n    * @param boardId The id of the board\n    * @param name Name of the board\n    */\n    event BoardCreated(\n        address indexed creator,\n        uint indexed boardId,\n        string name\n    );\n\n    /**\n    * Emitted when a new game is started\n    * @param playerA The player A of the game\n    * @param playerB The player B of the game\n    * @param boardId The id of the board\n    * @param gameId The id of the game\n    */\n    event GameStarted(\n        address indexed playerA,\n        address indexed playerB,\n        uint indexed boardId,\n        uint gameId\n    );\n\n    /**\n    * Emitted when a new game is finished\n    * @param playerA The player A of the game\n    * @param playerB The player B of the game\n    * @param winner The winner of the game\n    * @param boardId The id of the board\n    * @param gameId The id of the game\n    */\n    event GameFinished(\n        address indexed playerA,\n        address indexed playerB,\n        address winner,\n        uint boardId,\n        uint gameId\n    );\n\n    ///////////////////////////////////////////////////////////////\n    /// Structures\n\n    struct PawnPosition {\n        uint8 pawnIndex;\n        uint8 x;\n        uint8 y;\n    }\n\n    struct Game {\n        address playerA;\n        address playerB;\n        bool over;\n    }\n\n    struct Board {\n        uint id;\n        address boardContract;\n        string name;\n        address pawnSet;\n        uint8 pawnNumber;\n        mapping (uint8 => PawnPosition) pawnPosition;\n        uint gameCount;\n        mapping (uint => Game) games;\n        address waitingPlayer;\n    }\n\n    uint boardNumber;\n    Board[] boards;\n    address ethBoards;\n\n    ///////////////////////////////////////////////////////////////\n\n    modifier fromEthBoards {\n        require(msg.sender == ethBoards, \"The function must be called by the ethboards contract\");\n        _;\n    }\n\n    constructor(address ethBoardsAddress) public {\n        boardNumber = 0;\n        ethBoards = ethBoardsAddress;\n    }\n\n    ///////////////////////////////////////////////////////////////\n    /// Board administration\n\n    /**\n     * @notice Create a new board\n     * @param name name of the board\n     * @param boardContract address of the smart contract that represents the board\n     * @param pawnSetAddress the address of the set of pawn to use for the board\n     * @param x array that represents the x coordinates where to add the pawns\n     * @param y array that represents the y coordinates where to add the pawns\n     * @param pawnIndex array that represents the pawn index from the set of the pawns to add\n     * @param pawnNb number of pawn to add\n    */\n    function createBoard(\n        string memory name,\n        address boardContract,\n        address pawnSetAddress,\n        uint8[40] memory x,\n        uint8[40] memory y,\n        uint8[40] memory pawnIndex,\n        uint8 pawnNb\n    ) public {\n        require(pawnNb <= 40 && pawnNb > 0, \"You can place maximum 40 pawns on the board\");\n\n        // Create the board\n        Board memory newBoard;\n        newBoard.id = boardNumber;\n        newBoard.boardContract = boardContract;\n        newBoard.pawnSet = pawnSetAddress;\n        newBoard.pawnNumber = pawnNb;\n        newBoard.gameCount = 0;\n        newBoard.waitingPlayer = address(0);\n        boards.push(newBoard);\n\n        // Get the pawn set to verify pawn indexes are correct\n        PawnSet pawnSet = PawnSet(pawnSetAddress);\n        uint8 pawnSetPawnNb = pawnSet.getPawnNb();\n\n        // Place pawns\n        for (uint8 i = 0; i < pawnNb; i++) {\n            require(x[i] < 8 && y[i] < 8, \"The pawn position is out of bound\");\n            require(pawnIndex[i] < pawnSetPawnNb, \"The pawn doesn't exist\");\n\n            PawnPosition memory newPawn;\n            newPawn.pawnIndex = pawnIndex[i];\n            newPawn.x = x[i];\n            newPawn.y = y[i];\n\n            boards[boardNumber].pawnPosition[i] = newPawn;\n        }\n\n        emit BoardCreated(msg.sender, boardNumber, name);\n        boardNumber += 1;\n    }\n\n    ///////////////////////////////////////////////////////////////\n    /// Game\n\n    /**\n     * @notice Join a new game on a board. When a player joins a game, he's in the waiting room for the game, if someone is present in the waiting room, the game is started against this player\n     * @param boardId id of the board\n    */\n    function joinGame(uint boardId) public {\n        require(boardId < boardNumber, \"The board doesn't exist\");\n\n        // If there is no waiting player yet\n        if (boards[boardId].waitingPlayer == address(0)) {\n            boards[boardId].waitingPlayer = msg.sender;\n        } else {\n            // Start a new game\n            Game memory newGame;\n            newGame.playerA = boards[boardId].waitingPlayer;\n            newGame.playerB = msg.sender;\n            newGame.over = false;\n\n            // Register the game\n            boards[boardId].games[boards[boardId].gameCount] = newGame;\n            emit GameStarted(newGame.playerA, newGame.playerB, boardId, boards[boardId].gameCount);\n\n            // Reset waiting room\n            boards[boardId].waitingPlayer = address(0);\n\n            // Increment total number of game\n            boards[boardId].gameCount += 1;\n        }\n    }\n\n    /**\n     * @notice Finish a game, this function can only be called by the ethBoards contract, this contract ensure the winner is legit\n     * @param boardId id of the board\n     * @param gameId id of the game\n     * @param winner player that won the game (0 or 1)\n    */\n    function finishGame(uint boardId, uint gameId, uint8 winner) public fromEthBoards {\n        require(boardId < boardNumber, \"The board doesn't exist\");\n        require(gameId < boards[boardId].gameCount, \"The game doesn't exist\");\n        require(!boards[boardId].games[gameId].over, \"The game is already over\");\n        require(winner < 2, \"The winner doesn't exist\");\n\n        address winnerAddress;\n        if (winner == 0) {\n            winnerAddress = boards[boardId].games[gameId].playerA;\n        } else {\n            winnerAddress = boards[boardId].games[gameId].playerB;\n        }\n\n        emit GameFinished(\n            boards[boardId].games[gameId].playerA,\n            boards[boardId].games[gameId].playerB,\n            winnerAddress,\n            boardId,\n            gameId\n        );\n        boards[boardId].games[gameId].over = true;\n    }\n\n    ///////////////////////////////////////////////////////////////\n    /// Board information\n\n    /**\n     * @notice Get the number of boards\n     * @return number of boards\n    */\n    function getBoardNumber() public view returns(uint) {\n        return boardNumber;\n    }\n\n    /**\n     * @notice Get the address of the smart contract of the board\n     * @param boardId id of the board\n     * @return address of the smart contract of the board\n    */\n    function getBoardContractAddress(uint boardId) public view returns(address) {\n        require(boardId < boardNumber, \"The board doesn't exist\");\n        return boards[boardId].boardContract;\n    }\n\n    /**\n     * @notice Get the number of pawns placed on a board\n     * @param boardId id of the board\n     * @return number of pawns placed on a board\n    */\n    function getBoardPawnNumber(uint boardId) public view returns(uint8) {\n        require(boardId < boardNumber, \"The board doesn't exist\");\n\n        return boards[boardId].pawnNumber;\n    }\n\n    /**\n     * @notice Get pawn smart contract of a specific pawn in the pawn set of the board\n     * @param boardId id of the board\n     * @param pawnIndex index of the pawn in the pawn set\n     * @return address of the pawn smart contract\n    */\n    function getBoardPawnContract(uint boardId, uint8 pawnIndex) public view returns(address) {\n        require(boardId < boardNumber, \"The board doesn't exist\");\n\n        // Get the pawn set\n        PawnSet pawnSet = PawnSet(boards[boardId].pawnSet);\n\n        return pawnSet.getPawn(pawnIndex);\n    }\n\n    /**\n     * @notice Get the initial state of a board\n     * @param boardId id of the board\n     * @return state the initial state of the board\n    */\n    function getInitialState(uint boardId) public view returns(uint8[121] memory state) {\n        require(boardId < boardNumber, \"The board doesn't exist\");\n\n        // Pawn number\n        state[0] = boards[boardId].pawnNumber;\n\n        for(uint8 i = 0; i<boards[boardId].pawnNumber; i++) {\n             // Pawn type\n            state[1+i] = boards[boardId].pawnPosition[i].pawnIndex+1;\n            // Pawn x position\n            state[41+i] = boards[boardId].pawnPosition[i].x;\n            // Pawn y position\n            state[81+i] = boards[boardId].pawnPosition[i].y;\n        }\n\n        return state;\n    }\n\n    ///////////////////////////////////////////////////////////////\n    /// Game information\n\n    /**\n     * @notice Get the number of game occurences of a board\n     * @param boardId id of the board\n     * @return the number of game occurences of the board\n    */\n    function getGameNumber(uint boardId) public view returns(uint) {\n        require(boardId < boardNumber, \"The board doesn't exist\");\n        return boards[boardId].gameCount;\n    }\n\n    /**\n     * @notice Check if a player is currently waiting to play a game on a board\n     * @param boardId id of the board\n     * @return isWaiting true if a player is currently waiting\n     * @return waitingPlayer address of this player\n    */\n    function isWaitingPlayer(uint boardId) public view returns(bool isWaiting, address waitingPlayer) {\n        require(boardId < boardNumber, \"The board doesn't exist\");\n\n        isWaiting = true;\n        if (boards[boardId].waitingPlayer == address(0)) {\n            isWaiting = false;\n        }\n        return (isWaiting, boards[boardId].waitingPlayer);\n    }\n\n    /**\n     * @notice Check if a specifc game of a board is finished\n     * @param boardId id of the board\n     * @param gameId id of the game\n     * @return true if the game has been finished, revert if the game doesn't exist\n    */\n    function isGameOver(uint boardId, uint gameId) public view returns(bool) {\n        require(boardId < boardNumber, \"The board doesn't exist\");\n        require(gameId < boards[boardId].gameCount, \"The game doesn't exist\");\n\n        return boards[boardId].games[gameId].over;\n    }\n\n    /**\n     * @notice Get the address of a player in the game\n     * @param boardId id of the board\n     * @param gameId id of the game\n     * @param turnNumber the number of the current turn in the game, even number means player A, odd number means player B\n     * @return addres of the player\n    */\n    function getGamePlayerAddress(uint boardId, uint gameId, uint turnNumber) public view returns(address) {\n        require(boardId < boardNumber, \"The board doesn't exist\");\n        require(gameId < boards[boardId].gameCount, \"The game doesn't exist\");\n\n        address playerAddress;\n\n        // Every even turn are played by player A while every odd turn are played by player B\n        if (turnNumber % 2 == 0) {\n            playerAddress = boards[boardId].games[gameId].playerA;\n        } else {\n            playerAddress = boards[boardId].games[gameId].playerB;\n        }\n\n        return playerAddress;\n    }\n\n    /**\n     * @notice Check from the player address, if it's player A or B\n     * @param boardId id of the board\n     * @param gameId id of the game\n     * @param playerAddress address of the player\n     * @return 0 if it's player A, 1 if it's player B, -1 if this address is not part of the game\n    */\n    function getGamePlayerIndex(uint boardId, uint gameId, address playerAddress) public view returns(int) {\n        require(boardId < boardNumber, \"The board doesn't exist\");\n        require(gameId < boards[boardId].gameCount, \"The game doesn't exist\");\n\n        if (playerAddress == boards[boardId].games[gameId].playerA) {\n            return 0;\n        } else if (playerAddress == boards[boardId].games[gameId].playerB) {\n            return 1;\n        }\n\n        return -1;\n    }\n}\n",
  "sourcePath": "/Users/lucas/Desktop/ethboards/contracts/BoardHandler.sol",
  "compiler": {
    "name": "solc",
    "version": "0.6.11+commit.5ef660b1.Emscripten.clang"
  },
  "schemaVersion": "3.2.2",
  "updatedAt": "2020-07-23T07:48:37.592Z",
  "networkType": "ethereum",
  "devdoc": {
    "events": {
      "BoardCreated(address,uint256,string)": {
        "params": {
          "boardId": "The id of the board",
          "creator": "The creator of the board",
          "name": "Name of the board"
        }
      },
      "GameFinished(address,address,address,uint256,uint256)": {
        "params": {
          "boardId": "The id of the board",
          "gameId": "The id of the game",
          "playerA": "The player A of the game",
          "playerB": "The player B of the game",
          "winner": "The winner of the game"
        }
      },
      "GameStarted(address,address,uint256,uint256)": {
        "params": {
          "boardId": "The id of the board",
          "gameId": "The id of the game",
          "playerA": "The player A of the game",
          "playerB": "The player B of the game"
        }
      }
    },
    "kind": "dev",
    "methods": {
      "createBoard(string,address,address,uint8[40],uint8[40],uint8[40],uint8)": {
        "params": {
          "boardContract": "address of the smart contract that represents the board",
          "name": "name of the board",
          "pawnIndex": "array that represents the pawn index from the set of the pawns to add",
          "pawnNb": "number of pawn to add",
          "pawnSetAddress": "the address of the set of pawn to use for the board",
          "x": "array that represents the x coordinates where to add the pawns",
          "y": "array that represents the y coordinates where to add the pawns"
        }
      },
      "finishGame(uint256,uint256,uint8)": {
        "params": {
          "boardId": "id of the board",
          "gameId": "id of the game",
          "winner": "player that won the game (0 or 1)"
        }
      },
      "getBoardContractAddress(uint256)": {
        "params": {
          "boardId": "id of the board"
        },
        "returns": {
          "_0": "address of the smart contract of the board"
        }
      },
      "getBoardNumber()": {
        "returns": {
          "_0": "number of boards"
        }
      },
      "getBoardPawnContract(uint256,uint8)": {
        "params": {
          "boardId": "id of the board",
          "pawnIndex": "index of the pawn in the pawn set"
        },
        "returns": {
          "_0": "address of the pawn smart contract"
        }
      },
      "getBoardPawnNumber(uint256)": {
        "params": {
          "boardId": "id of the board"
        },
        "returns": {
          "_0": "number of pawns placed on a board"
        }
      },
      "getGameNumber(uint256)": {
        "params": {
          "boardId": "id of the board"
        },
        "returns": {
          "_0": "the number of game occurences of the board"
        }
      },
      "getGamePlayerAddress(uint256,uint256,uint256)": {
        "params": {
          "boardId": "id of the board",
          "gameId": "id of the game",
          "turnNumber": "the number of the current turn in the game, even number means player A, odd number means player B"
        },
        "returns": {
          "_0": "addres of the player"
        }
      },
      "getGamePlayerIndex(uint256,uint256,address)": {
        "params": {
          "boardId": "id of the board",
          "gameId": "id of the game",
          "playerAddress": "address of the player"
        },
        "returns": {
          "_0": "0 if it's player A, 1 if it's player B, -1 if this address is not part of the game"
        }
      },
      "getInitialState(uint256)": {
        "params": {
          "boardId": "id of the board"
        },
        "returns": {
          "state": "the initial state of the board"
        }
      },
      "isGameOver(uint256,uint256)": {
        "params": {
          "boardId": "id of the board",
          "gameId": "id of the game"
        },
        "returns": {
          "_0": "true if the game has been finished, revert if the game doesn't exist"
        }
      },
      "isWaitingPlayer(uint256)": {
        "params": {
          "boardId": "id of the board"
        },
        "returns": {
          "isWaiting": "true if a player is currently waiting",
          "waitingPlayer": "address of this player"
        }
      },
      "joinGame(uint256)": {
        "params": {
          "boardId": "id of the board"
        }
      }
    },
    "title": "Board Handler",
    "version": 1
  },
  "userdoc": {
    "events": {
      "BoardCreated(address,uint256,string)": {
        "notice": "Emitted when a new board is created"
      },
      "GameFinished(address,address,address,uint256,uint256)": {
        "notice": "Emitted when a new game is finished"
      },
      "GameStarted(address,address,uint256,uint256)": {
        "notice": "Emitted when a new game is started"
      }
    },
    "kind": "user",
    "methods": {
      "createBoard(string,address,address,uint8[40],uint8[40],uint8[40],uint8)": {
        "notice": "Create a new board"
      },
      "finishGame(uint256,uint256,uint8)": {
        "notice": "Finish a game, this function can only be called by the ethBoards contract, this contract ensure the winner is legit"
      },
      "getBoardContractAddress(uint256)": {
        "notice": "Get the address of the smart contract of the board"
      },
      "getBoardNumber()": {
        "notice": "Get the number of boards"
      },
      "getBoardPawnContract(uint256,uint8)": {
        "notice": "Get pawn smart contract of a specific pawn in the pawn set of the board"
      },
      "getBoardPawnNumber(uint256)": {
        "notice": "Get the number of pawns placed on a board"
      },
      "getGameNumber(uint256)": {
        "notice": "Get the number of game occurences of a board"
      },
      "getGamePlayerAddress(uint256,uint256,uint256)": {
        "notice": "Get the address of a player in the game"
      },
      "getGamePlayerIndex(uint256,uint256,address)": {
        "notice": "Check from the player address, if it's player A or B"
      },
      "getInitialState(uint256)": {
        "notice": "Get the initial state of a board"
      },
      "isGameOver(uint256,uint256)": {
        "notice": "Check if a specifc game of a board is finished"
      },
      "isWaitingPlayer(uint256)": {
        "notice": "Check if a player is currently waiting to play a game on a board"
      },
      "joinGame(uint256)": {
        "notice": "Join a new game on a board. When a player joins a game, he's in the waiting room for the game, if someone is present in the waiting room, the game is started against this player"
      }
    },
    "notice": "The storage contract, store the informations about boards and games",
    "version": 1
  }
}