{
  "contractName": "BoardHandler",
  "abi": [
    {
      "inputs": [
        {
          "internalType": "address",
          "name": "ethBoardsAddress",
          "type": "address"
        }
      ],
      "stateMutability": "nonpayable",
      "type": "constructor"
    },
    {
      "anonymous": false,
      "inputs": [
        {
          "indexed": true,
          "internalType": "address",
          "name": "creator",
          "type": "address"
        },
        {
          "indexed": true,
          "internalType": "uint256",
          "name": "boardId",
          "type": "uint256"
        },
        {
          "indexed": false,
          "internalType": "string",
          "name": "name",
          "type": "string"
        }
      ],
      "name": "BoardCreated",
      "type": "event"
    },
    {
      "anonymous": false,
      "inputs": [
        {
          "indexed": true,
          "internalType": "address",
          "name": "playerA",
          "type": "address"
        },
        {
          "indexed": true,
          "internalType": "address",
          "name": "playerB",
          "type": "address"
        },
        {
          "indexed": false,
          "internalType": "address",
          "name": "winner",
          "type": "address"
        },
        {
          "indexed": false,
          "internalType": "uint256",
          "name": "boardId",
          "type": "uint256"
        },
        {
          "indexed": false,
          "internalType": "uint256",
          "name": "gameId",
          "type": "uint256"
        }
      ],
      "name": "GameFinished",
      "type": "event"
    },
    {
      "anonymous": false,
      "inputs": [
        {
          "indexed": true,
          "internalType": "address",
          "name": "playerA",
          "type": "address"
        },
        {
          "indexed": true,
          "internalType": "address",
          "name": "playerB",
          "type": "address"
        },
        {
          "indexed": true,
          "internalType": "uint256",
          "name": "boardId",
          "type": "uint256"
        },
        {
          "indexed": false,
          "internalType": "uint256",
          "name": "gameId",
          "type": "uint256"
        }
      ],
      "name": "GameStarted",
      "type": "event"
    },
    {
      "inputs": [
        {
          "internalType": "string",
          "name": "name",
          "type": "string"
        },
        {
          "internalType": "address",
          "name": "boardContract",
          "type": "address"
        },
        {
          "internalType": "address",
          "name": "pawnSetAddress",
          "type": "address"
        },
        {
          "internalType": "address",
          "name": "boardEventsAddress",
          "type": "address"
        },
        {
          "internalType": "uint8[40]",
          "name": "x",
          "type": "uint8[40]"
        },
        {
          "internalType": "uint8[40]",
          "name": "y",
          "type": "uint8[40]"
        },
        {
          "internalType": "uint8[40]",
          "name": "pawnIndex",
          "type": "uint8[40]"
        },
        {
          "internalType": "uint8",
          "name": "pawnNb",
          "type": "uint8"
        }
      ],
      "name": "createBoard",
      "outputs": [],
      "stateMutability": "nonpayable",
      "type": "function"
    },
    {
      "inputs": [
        {
          "internalType": "uint256",
          "name": "boardId",
          "type": "uint256"
        }
      ],
      "name": "joinGame",
      "outputs": [],
      "stateMutability": "nonpayable",
      "type": "function"
    },
    {
      "inputs": [
        {
          "internalType": "uint256",
          "name": "boardId",
          "type": "uint256"
        },
        {
          "internalType": "uint256",
          "name": "gameId",
          "type": "uint256"
        },
        {
          "internalType": "uint8",
          "name": "winner",
          "type": "uint8"
        }
      ],
      "name": "finishGame",
      "outputs": [],
      "stateMutability": "nonpayable",
      "type": "function"
    },
    {
      "inputs": [],
      "name": "getBoardNumber",
      "outputs": [
        {
          "internalType": "uint256",
          "name": "",
          "type": "uint256"
        }
      ],
      "stateMutability": "view",
      "type": "function",
      "constant": true
    },
    {
      "inputs": [
        {
          "internalType": "uint256",
          "name": "boardId",
          "type": "uint256"
        }
      ],
      "name": "getBoardContractAddress",
      "outputs": [
        {
          "internalType": "address",
          "name": "",
          "type": "address"
        }
      ],
      "stateMutability": "view",
      "type": "function",
      "constant": true
    },
    {
      "inputs": [
        {
          "internalType": "uint256",
          "name": "boardId",
          "type": "uint256"
        }
      ],
      "name": "getBoardPawnNumber",
      "outputs": [
        {
          "internalType": "uint8",
          "name": "",
          "type": "uint8"
        }
      ],
      "stateMutability": "view",
      "type": "function",
      "constant": true
    },
    {
      "inputs": [
        {
          "internalType": "uint256",
          "name": "boardId",
          "type": "uint256"
        },
        {
          "internalType": "uint8",
          "name": "pawnIndex",
          "type": "uint8"
        }
      ],
      "name": "getBoardPawnContract",
      "outputs": [
        {
          "internalType": "address",
          "name": "",
          "type": "address"
        }
      ],
      "stateMutability": "view",
      "type": "function",
      "constant": true
    },
    {
      "inputs": [
        {
          "internalType": "uint256",
          "name": "boardId",
          "type": "uint256"
        }
      ],
      "name": "getInitialState",
      "outputs": [
        {
          "internalType": "uint8[121]",
          "name": "state",
          "type": "uint8[121]"
        }
      ],
      "stateMutability": "view",
      "type": "function",
      "constant": true
    },
    {
      "inputs": [
        {
          "internalType": "uint256",
          "name": "boardId",
          "type": "uint256"
        }
      ],
      "name": "getGameNumber",
      "outputs": [
        {
          "internalType": "uint256",
          "name": "",
          "type": "uint256"
        }
      ],
      "stateMutability": "view",
      "type": "function",
      "constant": true
    },
    {
      "inputs": [
        {
          "internalType": "uint256",
          "name": "boardId",
          "type": "uint256"
        }
      ],
      "name": "isWaitingPlayer",
      "outputs": [
        {
          "internalType": "bool",
          "name": "isWaiting",
          "type": "bool"
        },
        {
          "internalType": "address",
          "name": "waitingPlayer",
          "type": "address"
        }
      ],
      "stateMutability": "view",
      "type": "function",
      "constant": true
    },
    {
      "inputs": [
        {
          "internalType": "uint256",
          "name": "boardId",
          "type": "uint256"
        },
        {
          "internalType": "uint256",
          "name": "gameId",
          "type": "uint256"
        }
      ],
      "name": "isGameOver",
      "outputs": [
        {
          "internalType": "bool",
          "name": "",
          "type": "bool"
        }
      ],
      "stateMutability": "view",
      "type": "function",
      "constant": true
    },
    {
      "inputs": [
        {
          "internalType": "uint256",
          "name": "boardId",
          "type": "uint256"
        },
        {
          "internalType": "uint256",
          "name": "gameId",
          "type": "uint256"
        },
        {
          "internalType": "uint256",
          "name": "turnNumber",
          "type": "uint256"
        }
      ],
      "name": "getGamePlayerAddress",
      "outputs": [
        {
          "internalType": "address",
          "name": "",
          "type": "address"
        }
      ],
      "stateMutability": "view",
      "type": "function",
      "constant": true
    },
    {
      "inputs": [
        {
          "internalType": "uint256",
          "name": "boardId",
          "type": "uint256"
        },
        {
          "internalType": "uint256",
          "name": "gameId",
          "type": "uint256"
        },
        {
          "internalType": "address",
          "name": "playerAddress",
          "type": "address"
        }
      ],
      "name": "getGamePlayerIndex",
      "outputs": [
        {
          "internalType": "int256",
          "name": "",
          "type": "int256"
        }
      ],
      "stateMutability": "view",
      "type": "function",
      "constant": true
    }
  ],
  "bytecode": "0x608060405234801561001057600080fd5b50604051612a30380380612a308339818101604052602081101561003357600080fd5b81019080805190602001909291905050506000808190555080600260006101000a81548173ffffffffffffffffffffffffffffffffffffffff021916908373ffffffffffffffffffffffffffffffffffffffff160217905550506129948061009c6000396000f3fe608060405234801561001057600080fd5b50600436106100cf5760003560e01c806365d377a91161008c5780639439060f116100665780639439060f146105ba578063efaa55a0146105fc578063f881add21461062a578063fe2be32314610698576100cf565b806365d377a91461045157806368e987e7146104bd57806372e57afd14610538576100cf565b806308c4a77e146100d4578063140604cc1461014d57806316796dee146101b7578063346bf76a146101d55780634d79b758146103c45780635cbecfc414610409575b600080fd5b610100600480360360208110156100ea57600080fd5b81019080803590602001909291905050506106e8565b60405180831515151581526020018273ffffffffffffffffffffffffffffffffffffffff1673ffffffffffffffffffffffffffffffffffffffff1681526020019250505060405180910390f35b6101796004803603602081101561016357600080fd5b8101908080359060200190929190505050610827565b6040518082607960200280838360005b838110156101a4578082015181840152602081019050610189565b5050505090500191505060405180910390f35b6101bf610a82565b6040518082815260200191505060405180910390f35b6103c26004803603610fa08110156101ec57600080fd5b810190808035906020019064010000000081111561020957600080fd5b82018360208201111561021b57600080fd5b8035906020019184600183028401116401000000008311171561023d57600080fd5b91908080601f016020809104026020016040519081016040528093929190818152602001838380828437600081840152601f19601f820116905080830192505050505050509192919290803573ffffffffffffffffffffffffffffffffffffffff169060200190929190803573ffffffffffffffffffffffffffffffffffffffff169060200190929190803573ffffffffffffffffffffffffffffffffffffffff1690602001909291908061050001906028806020026040519081016040528092919082602860200280828437600081840152601f19601f82011690508083019250505050505091929192908061050001906028806020026040519081016040528092919082602860200280828437600081840152601f19601f82011690508083019250505050505091929192908061050001906028806020026040519081016040528092919082602860200280828437600081840152601f19601f8201169050808301925050505050509192919290803560ff169060200190929190505050610a8b565b005b610407600480360360608110156103da57600080fd5b810190808035906020019092919080359060200190929190803560ff169060200190929190505050611159565b005b6104356004803603602081101561041f57600080fd5b8101908080359060200190929190505050611853565b604051808260ff1660ff16815260200191505060405180910390f35b6104a76004803603606081101561046757600080fd5b810190808035906020019092919080359060200190929190803573ffffffffffffffffffffffffffffffffffffffff1690602001909291905050506118fe565b6040518082815260200191505060405180910390f35b6104f6600480360360408110156104d357600080fd5b8101908080359060200190929190803560ff169060200190929190505050611b52565b604051808273ffffffffffffffffffffffffffffffffffffffff1673ffffffffffffffffffffffffffffffffffffffff16815260200191505060405180910390f35b6105786004803603606081101561054e57600080fd5b81019080803590602001909291908035906020019092919080359060200190929190505050611ca8565b604051808273ffffffffffffffffffffffffffffffffffffffff1673ffffffffffffffffffffffffffffffffffffffff16815260200191505060405180910390f35b6105e6600480360360208110156105d057600080fd5b8101908080359060200190929190505050611e82565b6040518082815260200191505060405180910390f35b6106286004803603602081101561061257600080fd5b8101908080359060200190929190505050611f20565b005b6106566004803603602081101561064057600080fd5b81019080803590602001909291905050506124eb565b604051808273ffffffffffffffffffffffffffffffffffffffff1673ffffffffffffffffffffffffffffffffffffffff16815260200191505060405180910390f35b6106ce600480360360408110156106ae57600080fd5b8101908080359060200190929190803590602001909291905050506125a9565b604051808215151515815260200191505060405180910390f35b6000806000548310610762576040517f08c379a00000000000000000000000000000000000000000000000000000000081526004018080602001828103825260178152602001807f54686520626f61726420646f65736e277420657869737400000000000000000081525060200191505060405180910390fd5b60019150600073ffffffffffffffffffffffffffffffffffffffff166001848154811061078b57fe5b906000526020600020906009020160080160009054906101000a900473ffffffffffffffffffffffffffffffffffffffff1673ffffffffffffffffffffffffffffffffffffffff1614156107de57600091505b81600184815481106107ec57fe5b906000526020600020906009020160080160009054906101000a900473ffffffffffffffffffffffffffffffffffffffff1691509150915091565b61082f6126fc565b60005482106108a6576040517f08c379a00000000000000000000000000000000000000000000000000000000081526004018080602001828103825260178152602001807f54686520626f61726420646f65736e277420657869737400000000000000000081525060200191505060405180910390fd5b600182815481106108b357fe5b906000526020600020906009020160040160149054906101000a900460ff16816000607981106108df57fe5b602002019060ff16908160ff168152505060008090505b6001838154811061090357fe5b906000526020600020906009020160040160149054906101000a900460ff1660ff168160ff161015610a7957600180848154811061093d57fe5b906000526020600020906009020160050160008360ff1660ff16815260200190815260200160002060000160009054906101000a900460ff1601828260010160ff166079811061098957fe5b602002019060ff16908160ff1681525050600183815481106109a757fe5b906000526020600020906009020160050160008260ff1660ff16815260200190815260200160002060000160019054906101000a900460ff16828260290160ff16607981106109f257fe5b602002019060ff16908160ff168152505060018381548110610a1057fe5b906000526020600020906009020160050160008260ff1660ff16815260200190815260200160002060000160029054906101000a900460ff16828260510160ff1660798110610a5b57fe5b602002019060ff16908160ff168152505080806001019150506108f6565b50809050919050565b60008054905090565b60288160ff1611158015610aa2575060008160ff16115b610af7576040517f08c379a000000000000000000000000000000000000000000000000000000000815260040180806020018281038252602b8152602001806128ff602b913960400191505060405180910390fd5b610aff61271f565b60005481600001818152505087816040019073ffffffffffffffffffffffffffffffffffffffff16908173ffffffffffffffffffffffffffffffffffffffff168152505086816060019073ffffffffffffffffffffffffffffffffffffffff16908173ffffffffffffffffffffffffffffffffffffffff168152505085816080019073ffffffffffffffffffffffffffffffffffffffff16908173ffffffffffffffffffffffffffffffffffffffff1681525050818160a0019060ff16908160ff168152505060008160c001818152505060008160e0019073ffffffffffffffffffffffffffffffffffffffff16908173ffffffffffffffffffffffffffffffffffffffff16815250506001819080600181540180825580915050600190039060005260206000209060090201600090919091909150600082015181600001556020820151816001019080519060200190610c5b9291906127bf565b5060408201518160020160006101000a81548173ffffffffffffffffffffffffffffffffffffffff021916908373ffffffffffffffffffffffffffffffffffffffff16021790555060608201518160030160006101000a81548173ffffffffffffffffffffffffffffffffffffffff021916908373ffffffffffffffffffffffffffffffffffffffff16021790555060808201518160040160006101000a81548173ffffffffffffffffffffffffffffffffffffffff021916908373ffffffffffffffffffffffffffffffffffffffff16021790555060a08201518160040160146101000a81548160ff021916908360ff16021790555060c0820151816006015560e08201518160080160006101000a81548173ffffffffffffffffffffffffffffffffffffffff021916908373ffffffffffffffffffffffffffffffffffffffff1602179055505050600087905060008173ffffffffffffffffffffffffffffffffffffffff166368b1cc996040518163ffffffff1660e01b815260040160206040518083038186803b158015610df257600080fd5b505afa158015610e06573d6000803e3d6000fd5b505050506040513d6020811015610e1c57600080fd5b8101908080519060200190929190505050905060008090505b8460ff168160ff161015611085576008888260ff1660288110610e5457fe5b602002015160ff16108015610e7f57506008878260ff1660288110610e7557fe5b602002015160ff16105b610ed4576040517f08c379a00000000000000000000000000000000000000000000000000000000081526004018080602001828103825260218152602001806128de6021913960400191505060405180910390fd5b8160ff16868260ff1660288110610ee757fe5b602002015160ff1610610f62576040517f08c379a00000000000000000000000000000000000000000000000000000000081526004018080602001828103825260168152602001807f546865207061776e20646f65736e27742065786973740000000000000000000081525060200191505060405180910390fd5b610f6a61283f565b868260ff1660288110610f7957fe5b6020020151816000019060ff16908160ff1681525050888260ff1660288110610f9e57fe5b6020020151816020019060ff16908160ff1681525050878260ff1660288110610fc357fe5b6020020151816040019060ff16908160ff168152505080600160005481548110610fe957fe5b906000526020600020906009020160050160008460ff1660ff16815260200190815260200160002060008201518160000160006101000a81548160ff021916908360ff16021790555060208201518160000160016101000a81548160ff021916908360ff16021790555060408201518160000160026101000a81548160ff021916908360ff160217905550905050508080600101915050610e35565b506000543373ffffffffffffffffffffffffffffffffffffffff167fe820c892428a1b85fdf99f24e32fbe1165413ebb7119bde5dfa6cb72334f75808d6040518080602001828103825283818151815260200191508051906020019080838360005b838110156111025780820151818401526020810190506110e7565b50505050905090810190601f16801561112f5780820380516001836020036101000a031916815260200191505b509250505060405180910390a3600160008082825401925050819055505050505050505050505050565b600260009054906101000a900473ffffffffffffffffffffffffffffffffffffffff1673ffffffffffffffffffffffffffffffffffffffff163373ffffffffffffffffffffffffffffffffffffffff16146111ff576040517f08c379a000000000000000000000000000000000000000000000000000000000815260040180806020018281038252603581526020018061292a6035913960400191505060405180910390fd5b6000548310611276576040517f08c379a00000000000000000000000000000000000000000000000000000000081526004018080602001828103825260178152602001807f54686520626f61726420646f65736e277420657869737400000000000000000081525060200191505060405180910390fd5b6001838154811061128357fe5b9060005260206000209060090201600601548210611309576040517f08c379a00000000000000000000000000000000000000000000000000000000081526004018080602001828103825260168152602001807f5468652067616d6520646f65736e27742065786973740000000000000000000081525060200191505060405180910390fd5b6001838154811061131657fe5b9060005260206000209060090201600701600083815260200190815260200160002060010160149054906101000a900460ff16156113bc576040517f08c379a00000000000000000000000000000000000000000000000000000000081526004018080602001828103825260188152602001807f5468652067616d6520697320616c7265616479206f766572000000000000000081525060200191505060405180910390fd5b60028160ff1610611435576040517f08c379a00000000000000000000000000000000000000000000000000000000081526004018080602001828103825260188152602001807f5468652077696e6e657220646f65736e2774206578697374000000000000000081525060200191505060405180910390fd5b60008060008360ff1614156114f3576001858154811061145157fe5b9060005260206000209060090201600701600085815260200190815260200160002060000160009054906101000a900473ffffffffffffffffffffffffffffffffffffffff169150600185815481106114a657fe5b9060005260206000209060090201600701600085815260200190815260200160002060010160009054906101000a900473ffffffffffffffffffffffffffffffffffffffff16905061159e565b6001858154811061150057fe5b9060005260206000209060090201600701600085815260200190815260200160002060010160009054906101000a900473ffffffffffffffffffffffffffffffffffffffff1691506001858154811061155557fe5b9060005260206000209060090201600701600085815260200190815260200160002060000160009054906101000a900473ffffffffffffffffffffffffffffffffffffffff1690505b600185815481106115ab57fe5b9060005260206000209060090201600701600085815260200190815260200160002060010160009054906101000a900473ffffffffffffffffffffffffffffffffffffffff1673ffffffffffffffffffffffffffffffffffffffff166001868154811061161457fe5b9060005260206000209060090201600701600086815260200190815260200160002060000160009054906101000a900473ffffffffffffffffffffffffffffffffffffffff1673ffffffffffffffffffffffffffffffffffffffff167f0ffff200143c07c471e3d4bd1972a1b601d278491708eef4ec7cf9e921fda192848888604051808473ffffffffffffffffffffffffffffffffffffffff1673ffffffffffffffffffffffffffffffffffffffff168152602001838152602001828152602001935050505060405180910390a360018086815481106116f157fe5b9060005260206000209060090201600701600086815260200190815260200160002060010160146101000a81548160ff02191690831515021790555060006001868154811061173c57fe5b906000526020600020906009020160040160009054906101000a900473ffffffffffffffffffffffffffffffffffffffff1690508073ffffffffffffffffffffffffffffffffffffffff16631fe6d2ca878786866040518563ffffffff1660e01b8152600401808581526020018481526020018373ffffffffffffffffffffffffffffffffffffffff1673ffffffffffffffffffffffffffffffffffffffff1681526020018273ffffffffffffffffffffffffffffffffffffffff1673ffffffffffffffffffffffffffffffffffffffff168152602001945050505050600060405180830381600087803b15801561183357600080fd5b505af1158015611847573d6000803e3d6000fd5b50505050505050505050565b6000805482106118cb576040517f08c379a00000000000000000000000000000000000000000000000000000000081526004018080602001828103825260178152602001807f54686520626f61726420646f65736e277420657869737400000000000000000081525060200191505060405180910390fd5b600182815481106118d857fe5b906000526020600020906009020160040160149054906101000a900460ff169050919050565b600080548410611976576040517f08c379a00000000000000000000000000000000000000000000000000000000081526004018080602001828103825260178152602001807f54686520626f61726420646f65736e277420657869737400000000000000000081525060200191505060405180910390fd5b6001848154811061198357fe5b9060005260206000209060090201600601548310611a09576040517f08c379a00000000000000000000000000000000000000000000000000000000081526004018080602001828103825260168152602001807f5468652067616d6520646f65736e27742065786973740000000000000000000081525060200191505060405180910390fd5b60018481548110611a1657fe5b9060005260206000209060090201600701600084815260200190815260200160002060000160009054906101000a900473ffffffffffffffffffffffffffffffffffffffff1673ffffffffffffffffffffffffffffffffffffffff168273ffffffffffffffffffffffffffffffffffffffff161415611a985760009050611b4b565b60018481548110611aa557fe5b9060005260206000209060090201600701600084815260200190815260200160002060010160009054906101000a900473ffffffffffffffffffffffffffffffffffffffff1673ffffffffffffffffffffffffffffffffffffffff168273ffffffffffffffffffffffffffffffffffffffff161415611b275760019050611b4b565b7fffffffffffffffffffffffffffffffffffffffffffffffffffffffffffffffff90505b9392505050565b600080548310611bca576040517f08c379a00000000000000000000000000000000000000000000000000000000081526004018080602001828103825260178152602001807f54686520626f61726420646f65736e277420657869737400000000000000000081525060200191505060405180910390fd5b600060018481548110611bd957fe5b906000526020600020906009020160030160009054906101000a900473ffffffffffffffffffffffffffffffffffffffff1690508073ffffffffffffffffffffffffffffffffffffffff1663ed555823846040518263ffffffff1660e01b8152600401808260ff1660ff16815260200191505060206040518083038186803b158015611c6457600080fd5b505afa158015611c78573d6000803e3d6000fd5b505050506040513d6020811015611c8e57600080fd5b810190808051906020019092919050505091505092915050565b600080548410611d20576040517f08c379a00000000000000000000000000000000000000000000000000000000081526004018080602001828103825260178152602001807f54686520626f61726420646f65736e277420657869737400000000000000000081525060200191505060405180910390fd5b60018481548110611d2d57fe5b9060005260206000209060090201600601548310611db3576040517f08c379a00000000000000000000000000000000000000000000000000000000081526004018080602001828103825260168152602001807f5468652067616d6520646f65736e27742065786973740000000000000000000081525060200191505060405180910390fd5b60008060028481611dc057fe5b061415611e215760018581548110611dd457fe5b9060005260206000209060090201600701600085815260200190815260200160002060000160009054906101000a900473ffffffffffffffffffffffffffffffffffffffff169050611e77565b60018581548110611e2e57fe5b9060005260206000209060090201600701600085815260200190815260200160002060010160009054906101000a900473ffffffffffffffffffffffffffffffffffffffff1690505b809150509392505050565b600080548210611efa576040517f08c379a00000000000000000000000000000000000000000000000000000000081526004018080602001828103825260178152602001807f54686520626f61726420646f65736e277420657869737400000000000000000081525060200191505060405180910390fd5b60018281548110611f0757fe5b9060005260206000209060090201600601549050919050565b6000548110611f97576040517f08c379a00000000000000000000000000000000000000000000000000000000081526004018080602001828103825260178152602001807f54686520626f61726420646f65736e277420657869737400000000000000000081525060200191505060405180910390fd5b600060018281548110611fa657fe5b906000526020600020906009020160040160009054906101000a900473ffffffffffffffffffffffffffffffffffffffff1690508073ffffffffffffffffffffffffffffffffffffffff166301d3a6da836001858154811061200457fe5b906000526020600020906009020160060154336040518463ffffffff1660e01b8152600401808481526020018381526020018273ffffffffffffffffffffffffffffffffffffffff1673ffffffffffffffffffffffffffffffffffffffff1681526020019350505050602060405180830381600087803b15801561208757600080fd5b505af115801561209b573d6000803e3d6000fd5b505050506040513d60208110156120b157600080fd5b8101908080519060200190929190505050612134576040517f08c379a000000000000000000000000000000000000000000000000000000000815260040180806020018281038252601e8152602001807f54686520706c617965722063616e2774206a6f696e207468652067616d65000081525060200191505060405180910390fd5b600073ffffffffffffffffffffffffffffffffffffffff166001838154811061215957fe5b906000526020600020906009020160080160009054906101000a900473ffffffffffffffffffffffffffffffffffffffff1673ffffffffffffffffffffffffffffffffffffffff1614156122095733600183815481106121b557fe5b906000526020600020906009020160080160006101000a81548173ffffffffffffffffffffffffffffffffffffffff021916908373ffffffffffffffffffffffffffffffffffffffff1602179055506124e7565b612211612869565b6001838154811061221e57fe5b906000526020600020906009020160080160009054906101000a900473ffffffffffffffffffffffffffffffffffffffff16816000019073ffffffffffffffffffffffffffffffffffffffff16908173ffffffffffffffffffffffffffffffffffffffff168152505033816020019073ffffffffffffffffffffffffffffffffffffffff16908173ffffffffffffffffffffffffffffffffffffffff1681525050600081604001901515908115158152505080600184815481106122de57fe5b90600052602060002090600902016007016000600186815481106122fe57fe5b906000526020600020906009020160060154815260200190815260200160002060008201518160000160006101000a81548173ffffffffffffffffffffffffffffffffffffffff021916908373ffffffffffffffffffffffffffffffffffffffff16021790555060208201518160010160006101000a81548173ffffffffffffffffffffffffffffffffffffffff021916908373ffffffffffffffffffffffffffffffffffffffff16021790555060408201518160010160146101000a81548160ff02191690831515021790555090505082816020015173ffffffffffffffffffffffffffffffffffffffff16826000015173ffffffffffffffffffffffffffffffffffffffff167f89e651d0d1f877f5c444ff351a9449c3b36bbc92b470093d9fc085b1bbd1e3bc6001878154811061243457fe5b9060005260206000209060090201600601546040518082815260200191505060405180910390a460006001848154811061246a57fe5b906000526020600020906009020160080160006101000a81548173ffffffffffffffffffffffffffffffffffffffff021916908373ffffffffffffffffffffffffffffffffffffffff16021790555060018084815481106124c757fe5b906000526020600020906009020160060160008282540192505081905550505b5050565b600080548210612563576040517f08c379a00000000000000000000000000000000000000000000000000000000081526004018080602001828103825260178152602001807f54686520626f61726420646f65736e277420657869737400000000000000000081525060200191505060405180910390fd5b6001828154811061257057fe5b906000526020600020906009020160020160009054906101000a900473ffffffffffffffffffffffffffffffffffffffff169050919050565b600080548310612621576040517f08c379a00000000000000000000000000000000000000000000000000000000081526004018080602001828103825260178152602001807f54686520626f61726420646f65736e277420657869737400000000000000000081525060200191505060405180910390fd5b6001838154811061262e57fe5b90600052602060002090600902016006015482106126b4576040517f08c379a00000000000000000000000000000000000000000000000000000000081526004018080602001828103825260168152602001807f5468652067616d6520646f65736e27742065786973740000000000000000000081525060200191505060405180910390fd5b600183815481106126c157fe5b9060005260206000209060090201600701600083815260200190815260200160002060010160149054906101000a900460ff16905092915050565b60405180610f200160405280607990602082028036833780820191505090505090565b6040518061010001604052806000815260200160608152602001600073ffffffffffffffffffffffffffffffffffffffff168152602001600073ffffffffffffffffffffffffffffffffffffffff168152602001600073ffffffffffffffffffffffffffffffffffffffff168152602001600060ff16815260200160008152602001600073ffffffffffffffffffffffffffffffffffffffff1681525090565b828054600181600116156101000203166002900490600052602060002090601f016020900481019282601f1061280057805160ff191683800117855561282e565b8280016001018555821561282e579182015b8281111561282d578251825591602001919060010190612812565b5b50905061283b91906128b8565b5090565b6040518060600160405280600060ff168152602001600060ff168152602001600060ff1681525090565b6040518060600160405280600073ffffffffffffffffffffffffffffffffffffffff168152602001600073ffffffffffffffffffffffffffffffffffffffff1681526020016000151581525090565b6128da91905b808211156128d65760008160009055506001016128be565b5090565b9056fe546865207061776e20706f736974696f6e206973206f7574206f6620626f756e64596f752063616e20706c616365206d6178696d756d203430207061776e73206f6e2074686520626f6172645468652066756e6374696f6e206d7573742062652063616c6c65642062792074686520657468626f6172647320636f6e7472616374a2646970667358221220791f8727f2decfb70b4bb221d55e3af033f3b16fcc17b0a79cd2955ca6bb3abf64736f6c634300060b0033",
  "immutableReferences": {},
  "source": "pragma solidity 0.6.11;\n\nimport \"./PawnSet.sol\";\nimport \"./BoardEvents.sol\";\n\n/**\n * @title Board Handler\n * @notice The storage contract, store the informations about boards and games\n*/\ncontract BoardHandler {\n\n    ///////////////////////////////////////////////////////////////\n    /// Events\n\n    /**\n    * Emitted when a new board is created\n    * @param creator The creator of the board\n    * @param boardId The id of the board\n    * @param name Name of the board\n    */\n    event BoardCreated(\n        address indexed creator,\n        uint indexed boardId,\n        string name\n    );\n\n    /**\n    * Emitted when a new game is started\n    * @param playerA The player A of the game\n    * @param playerB The player B of the game\n    * @param boardId The id of the board\n    * @param gameId The id of the game\n    */\n    event GameStarted(\n        address indexed playerA,\n        address indexed playerB,\n        uint indexed boardId,\n        uint gameId\n    );\n\n    /**\n    * Emitted when a new game is finished\n    * @param playerA The player A of the game\n    * @param playerB The player B of the game\n    * @param winner The winner of the game\n    * @param boardId The id of the board\n    * @param gameId The id of the game\n    */\n    event GameFinished(\n        address indexed playerA,\n        address indexed playerB,\n        address winner,\n        uint boardId,\n        uint gameId\n    );\n\n    ///////////////////////////////////////////////////////////////\n    /// Structures\n\n    struct PawnPosition {\n        uint8 pawnIndex;\n        uint8 x;\n        uint8 y;\n    }\n\n    struct Game {\n        address playerA;\n        address playerB;\n        bool over;\n    }\n\n    struct Board {\n        uint id;\n        string name;\n        address boardContract;\n        address pawnSet;\n        address boardEvents;\n        uint8 pawnNumber;\n        mapping (uint8 => PawnPosition) pawnPosition;\n        uint gameCount;\n        mapping (uint => Game) games;\n        address waitingPlayer;\n    }\n\n    uint boardNumber;\n    Board[] boards;\n    address ethBoards;\n\n    ///////////////////////////////////////////////////////////////\n\n    modifier fromEthBoards {\n        require(msg.sender == ethBoards, \"The function must be called by the ethboards contract\");\n        _;\n    }\n\n    constructor(address ethBoardsAddress) public {\n        boardNumber = 0;\n        ethBoards = ethBoardsAddress;\n    }\n\n    ///////////////////////////////////////////////////////////////\n    /// Board administration\n\n    /**\n     * @notice Create a new board\n     * @param name name of the board\n     * @param boardContract address of the smart contract that represents the board\n     * @param pawnSetAddress the address of the set of pawn to use for the board\n     * @param x array that represents the x coordinates where to add the pawns\n     * @param y array that represents the y coordinates where to add the pawns\n     * @param pawnIndex array that represents the pawn index from the set of the pawns to add\n     * @param pawnNb number of pawn to add\n    */\n    function createBoard(\n        string memory name,\n        address boardContract,\n        address pawnSetAddress,\n        address boardEventsAddress,\n        uint8[40] memory x,\n        uint8[40] memory y,\n        uint8[40] memory pawnIndex,\n        uint8 pawnNb\n    ) public {\n        require(pawnNb <= 40 && pawnNb > 0, \"You can place maximum 40 pawns on the board\");\n\n        // Create the board\n        Board memory newBoard;\n        newBoard.id = boardNumber;\n        newBoard.boardContract = boardContract;\n        newBoard.pawnSet = pawnSetAddress;\n        newBoard.boardEvents = boardEventsAddress;\n        newBoard.pawnNumber = pawnNb;\n        newBoard.gameCount = 0;\n        newBoard.waitingPlayer = address(0);\n        boards.push(newBoard);\n\n        // Get the pawn set to verify pawn indexes are correct\n        PawnSet pawnSet = PawnSet(pawnSetAddress);\n        uint8 pawnSetPawnNb = pawnSet.getPawnNb();\n\n        // Place pawns\n        for (uint8 i = 0; i < pawnNb; i++) {\n            require(x[i] < 8 && y[i] < 8, \"The pawn position is out of bound\");\n            require(pawnIndex[i] < pawnSetPawnNb, \"The pawn doesn't exist\");\n\n            PawnPosition memory newPawn;\n            newPawn.pawnIndex = pawnIndex[i];\n            newPawn.x = x[i];\n            newPawn.y = y[i];\n\n            boards[boardNumber].pawnPosition[i] = newPawn;\n        }\n\n        emit BoardCreated(msg.sender, boardNumber, name);\n        boardNumber += 1;\n    }\n\n    ///////////////////////////////////////////////////////////////\n    /// Game\n\n    /**\n     * @notice Join a new game on a board. When a player joins a game, he's in the waiting room for the game, if someone is present in the waiting room, the game is started against this player\n     * @param boardId id of the board\n    */\n    function joinGame(uint boardId) public {\n        require(boardId < boardNumber, \"The board doesn't exist\");\n\n        // Get the board events contract to verify join conditions\n        BoardEvents boardEvents = BoardEvents(boards[boardId].boardEvents);\n        require(boardEvents.joinGame(boardId, boards[boardId].gameCount, msg.sender), \"The player can't join the game\");\n\n        // If there is no waiting player yet\n        if (boards[boardId].waitingPlayer == address(0)) {\n            boards[boardId].waitingPlayer = msg.sender;\n        } else {\n            // Start a new game\n            Game memory newGame;\n            newGame.playerA = boards[boardId].waitingPlayer;\n            newGame.playerB = msg.sender;\n            newGame.over = false;\n\n            // Register the game\n            boards[boardId].games[boards[boardId].gameCount] = newGame;\n            emit GameStarted(newGame.playerA, newGame.playerB, boardId, boards[boardId].gameCount);\n\n            // Reset waiting room\n            boards[boardId].waitingPlayer = address(0);\n\n            // Increment total number of game\n            boards[boardId].gameCount += 1;\n        }\n    }\n\n    /**\n     * @notice Finish a game, this function can only be called by the ethBoards contract, this contract ensure the winner is legit\n     * @param boardId id of the board\n     * @param gameId id of the game\n     * @param winner player that won the game (0 or 1)\n    */\n    function finishGame(uint boardId, uint gameId, uint8 winner) public fromEthBoards {\n        require(boardId < boardNumber, \"The board doesn't exist\");\n        require(gameId < boards[boardId].gameCount, \"The game doesn't exist\");\n        require(!boards[boardId].games[gameId].over, \"The game is already over\");\n        require(winner < 2, \"The winner doesn't exist\");\n\n        address winnerAddress;\n        address loserAddress;\n        if (winner == 0) {\n            winnerAddress = boards[boardId].games[gameId].playerA;\n            loserAddress = boards[boardId].games[gameId].playerB;\n        } else {\n            winnerAddress = boards[boardId].games[gameId].playerB;\n            loserAddress = boards[boardId].games[gameId].playerA;\n        }\n\n        emit GameFinished(\n            boards[boardId].games[gameId].playerA,\n            boards[boardId].games[gameId].playerB,\n            winnerAddress,\n            boardId,\n            gameId\n        );\n        boards[boardId].games[gameId].over = true;\n\n        // Call the event finished of the board\n        BoardEvents boardEvents = BoardEvents(boards[boardId].boardEvents);\n        boardEvents.gameFinished(boardId, gameId, winnerAddress, loserAddress);\n    }\n\n    ///////////////////////////////////////////////////////////////\n    /// Board information\n\n    /**\n     * @notice Get the number of boards\n     * @return number of boards\n    */\n    function getBoardNumber() public view returns(uint) {\n        return boardNumber;\n    }\n\n    /**\n     * @notice Get the address of the smart contract of the board\n     * @param boardId id of the board\n     * @return address of the smart contract of the board\n    */\n    function getBoardContractAddress(uint boardId) public view returns(address) {\n        require(boardId < boardNumber, \"The board doesn't exist\");\n        return boards[boardId].boardContract;\n    }\n\n    /**\n     * @notice Get the number of pawns placed on a board\n     * @param boardId id of the board\n     * @return number of pawns placed on a board\n    */\n    function getBoardPawnNumber(uint boardId) public view returns(uint8) {\n        require(boardId < boardNumber, \"The board doesn't exist\");\n\n        return boards[boardId].pawnNumber;\n    }\n\n    /**\n     * @notice Get pawn smart contract of a specific pawn in the pawn set of the board\n     * @param boardId id of the board\n     * @param pawnIndex index of the pawn in the pawn set\n     * @return address of the pawn smart contract\n    */\n    function getBoardPawnContract(uint boardId, uint8 pawnIndex) public view returns(address) {\n        require(boardId < boardNumber, \"The board doesn't exist\");\n\n        // Get the pawn set\n        PawnSet pawnSet = PawnSet(boards[boardId].pawnSet);\n\n        return pawnSet.getPawn(pawnIndex);\n    }\n\n    /**\n     * @notice Get the initial state of a board\n     * @param boardId id of the board\n     * @return state the initial state of the board\n    */\n    function getInitialState(uint boardId) public view returns(uint8[121] memory state) {\n        require(boardId < boardNumber, \"The board doesn't exist\");\n\n        // Pawn number\n        state[0] = boards[boardId].pawnNumber;\n\n        for(uint8 i = 0; i<boards[boardId].pawnNumber; i++) {\n             // Pawn type\n            state[1+i] = boards[boardId].pawnPosition[i].pawnIndex+1;\n            // Pawn x position\n            state[41+i] = boards[boardId].pawnPosition[i].x;\n            // Pawn y position\n            state[81+i] = boards[boardId].pawnPosition[i].y;\n        }\n\n        return state;\n    }\n\n    ///////////////////////////////////////////////////////////////\n    /// Game information\n\n    /**\n     * @notice Get the number of game occurences of a board\n     * @param boardId id of the board\n     * @return the number of game occurences of the board\n    */\n    function getGameNumber(uint boardId) public view returns(uint) {\n        require(boardId < boardNumber, \"The board doesn't exist\");\n        return boards[boardId].gameCount;\n    }\n\n    /**\n     * @notice Check if a player is currently waiting to play a game on a board\n     * @param boardId id of the board\n     * @return isWaiting true if a player is currently waiting\n     * @return waitingPlayer address of this player\n    */\n    function isWaitingPlayer(uint boardId) public view returns(bool isWaiting, address waitingPlayer) {\n        require(boardId < boardNumber, \"The board doesn't exist\");\n\n        isWaiting = true;\n        if (boards[boardId].waitingPlayer == address(0)) {\n            isWaiting = false;\n        }\n        return (isWaiting, boards[boardId].waitingPlayer);\n    }\n\n    /**\n     * @notice Check if a specifc game of a board is finished\n     * @param boardId id of the board\n     * @param gameId id of the game\n     * @return true if the game has been finished, revert if the game doesn't exist\n    */\n    function isGameOver(uint boardId, uint gameId) public view returns(bool) {\n        require(boardId < boardNumber, \"The board doesn't exist\");\n        require(gameId < boards[boardId].gameCount, \"The game doesn't exist\");\n\n        return boards[boardId].games[gameId].over;\n    }\n\n    /**\n     * @notice Get the address of a player in the game\n     * @param boardId id of the board\n     * @param gameId id of the game\n     * @param turnNumber the number of the current turn in the game, even number means player A, odd number means player B\n     * @return addres of the player\n    */\n    function getGamePlayerAddress(uint boardId, uint gameId, uint turnNumber) public view returns(address) {\n        require(boardId < boardNumber, \"The board doesn't exist\");\n        require(gameId < boards[boardId].gameCount, \"The game doesn't exist\");\n\n        address playerAddress;\n\n        // Every even turn are played by player A while every odd turn are played by player B\n        if (turnNumber % 2 == 0) {\n            playerAddress = boards[boardId].games[gameId].playerA;\n        } else {\n            playerAddress = boards[boardId].games[gameId].playerB;\n        }\n\n        return playerAddress;\n    }\n\n    /**\n     * @notice Check from the player address, if it's player A or B\n     * @param boardId id of the board\n     * @param gameId id of the game\n     * @param playerAddress address of the player\n     * @return 0 if it's player A, 1 if it's player B, -1 if this address is not part of the game\n    */\n    function getGamePlayerIndex(uint boardId, uint gameId, address playerAddress) public view returns(int) {\n        require(boardId < boardNumber, \"The board doesn't exist\");\n        require(gameId < boards[boardId].gameCount, \"The game doesn't exist\");\n\n        if (playerAddress == boards[boardId].games[gameId].playerA) {\n            return 0;\n        } else if (playerAddress == boards[boardId].games[gameId].playerB) {\n            return 1;\n        }\n\n        return -1;\n    }\n}\n",
  "sourcePath": "/Users/lucas/Desktop/ethboards/contracts/BoardHandler.sol",
  "compiler": {
    "name": "solc",
    "version": "0.6.11+commit.5ef660b1.Emscripten.clang"
  },
  "schemaVersion": "3.2.2",
  "updatedAt": "2020-07-29T09:22:10.772Z",
  "networkType": "ethereum",
  "devdoc": {
    "events": {
      "BoardCreated(address,uint256,string)": {
        "params": {
          "boardId": "The id of the board",
          "creator": "The creator of the board",
          "name": "Name of the board"
        }
      },
      "GameFinished(address,address,address,uint256,uint256)": {
        "params": {
          "boardId": "The id of the board",
          "gameId": "The id of the game",
          "playerA": "The player A of the game",
          "playerB": "The player B of the game",
          "winner": "The winner of the game"
        }
      },
      "GameStarted(address,address,uint256,uint256)": {
        "params": {
          "boardId": "The id of the board",
          "gameId": "The id of the game",
          "playerA": "The player A of the game",
          "playerB": "The player B of the game"
        }
      }
    },
    "kind": "dev",
    "methods": {
      "createBoard(string,address,address,address,uint8[40],uint8[40],uint8[40],uint8)": {
        "params": {
          "boardContract": "address of the smart contract that represents the board",
          "name": "name of the board",
          "pawnIndex": "array that represents the pawn index from the set of the pawns to add",
          "pawnNb": "number of pawn to add",
          "pawnSetAddress": "the address of the set of pawn to use for the board",
          "x": "array that represents the x coordinates where to add the pawns",
          "y": "array that represents the y coordinates where to add the pawns"
        }
      },
      "finishGame(uint256,uint256,uint8)": {
        "params": {
          "boardId": "id of the board",
          "gameId": "id of the game",
          "winner": "player that won the game (0 or 1)"
        }
      },
      "getBoardContractAddress(uint256)": {
        "params": {
          "boardId": "id of the board"
        },
        "returns": {
          "_0": "address of the smart contract of the board"
        }
      },
      "getBoardNumber()": {
        "returns": {
          "_0": "number of boards"
        }
      },
      "getBoardPawnContract(uint256,uint8)": {
        "params": {
          "boardId": "id of the board",
          "pawnIndex": "index of the pawn in the pawn set"
        },
        "returns": {
          "_0": "address of the pawn smart contract"
        }
      },
      "getBoardPawnNumber(uint256)": {
        "params": {
          "boardId": "id of the board"
        },
        "returns": {
          "_0": "number of pawns placed on a board"
        }
      },
      "getGameNumber(uint256)": {
        "params": {
          "boardId": "id of the board"
        },
        "returns": {
          "_0": "the number of game occurences of the board"
        }
      },
      "getGamePlayerAddress(uint256,uint256,uint256)": {
        "params": {
          "boardId": "id of the board",
          "gameId": "id of the game",
          "turnNumber": "the number of the current turn in the game, even number means player A, odd number means player B"
        },
        "returns": {
          "_0": "addres of the player"
        }
      },
      "getGamePlayerIndex(uint256,uint256,address)": {
        "params": {
          "boardId": "id of the board",
          "gameId": "id of the game",
          "playerAddress": "address of the player"
        },
        "returns": {
          "_0": "0 if it's player A, 1 if it's player B, -1 if this address is not part of the game"
        }
      },
      "getInitialState(uint256)": {
        "params": {
          "boardId": "id of the board"
        },
        "returns": {
          "state": "the initial state of the board"
        }
      },
      "isGameOver(uint256,uint256)": {
        "params": {
          "boardId": "id of the board",
          "gameId": "id of the game"
        },
        "returns": {
          "_0": "true if the game has been finished, revert if the game doesn't exist"
        }
      },
      "isWaitingPlayer(uint256)": {
        "params": {
          "boardId": "id of the board"
        },
        "returns": {
          "isWaiting": "true if a player is currently waiting",
          "waitingPlayer": "address of this player"
        }
      },
      "joinGame(uint256)": {
        "params": {
          "boardId": "id of the board"
        }
      }
    },
    "title": "Board Handler",
    "version": 1
  },
  "userdoc": {
    "events": {
      "BoardCreated(address,uint256,string)": {
        "notice": "Emitted when a new board is created"
      },
      "GameFinished(address,address,address,uint256,uint256)": {
        "notice": "Emitted when a new game is finished"
      },
      "GameStarted(address,address,uint256,uint256)": {
        "notice": "Emitted when a new game is started"
      }
    },
    "kind": "user",
    "methods": {
      "createBoard(string,address,address,address,uint8[40],uint8[40],uint8[40],uint8)": {
        "notice": "Create a new board"
      },
      "finishGame(uint256,uint256,uint8)": {
        "notice": "Finish a game, this function can only be called by the ethBoards contract, this contract ensure the winner is legit"
      },
      "getBoardContractAddress(uint256)": {
        "notice": "Get the address of the smart contract of the board"
      },
      "getBoardNumber()": {
        "notice": "Get the number of boards"
      },
      "getBoardPawnContract(uint256,uint8)": {
        "notice": "Get pawn smart contract of a specific pawn in the pawn set of the board"
      },
      "getBoardPawnNumber(uint256)": {
        "notice": "Get the number of pawns placed on a board"
      },
      "getGameNumber(uint256)": {
        "notice": "Get the number of game occurences of a board"
      },
      "getGamePlayerAddress(uint256,uint256,uint256)": {
        "notice": "Get the address of a player in the game"
      },
      "getGamePlayerIndex(uint256,uint256,address)": {
        "notice": "Check from the player address, if it's player A or B"
      },
      "getInitialState(uint256)": {
        "notice": "Get the initial state of a board"
      },
      "isGameOver(uint256,uint256)": {
        "notice": "Check if a specifc game of a board is finished"
      },
      "isWaitingPlayer(uint256)": {
        "notice": "Check if a player is currently waiting to play a game on a board"
      },
      "joinGame(uint256)": {
        "notice": "Join a new game on a board. When a player joins a game, he's in the waiting room for the game, if someone is present in the waiting room, the game is started against this player"
      }
    },
    "notice": "The storage contract, store the informations about boards and games",
    "version": 1
  }
}