{
  "contractName": "BoardHandler",
  "abi": [
    {
      "inputs": [
        {
          "internalType": "address",
          "name": "ethBoardsAddress",
          "type": "address"
        }
      ],
      "payable": false,
      "stateMutability": "nonpayable",
      "type": "constructor"
    },
    {
      "anonymous": false,
      "inputs": [
        {
          "indexed": true,
          "internalType": "address",
          "name": "creator",
          "type": "address"
        },
        {
          "indexed": true,
          "internalType": "uint256",
          "name": "boardId",
          "type": "uint256"
        },
        {
          "indexed": false,
          "internalType": "string",
          "name": "name",
          "type": "string"
        }
      ],
      "name": "BoardCreated",
      "type": "event"
    },
    {
      "anonymous": false,
      "inputs": [
        {
          "indexed": true,
          "internalType": "address",
          "name": "playerA",
          "type": "address"
        },
        {
          "indexed": true,
          "internalType": "address",
          "name": "playerB",
          "type": "address"
        },
        {
          "indexed": false,
          "internalType": "address",
          "name": "winner",
          "type": "address"
        },
        {
          "indexed": false,
          "internalType": "uint256",
          "name": "boardId",
          "type": "uint256"
        },
        {
          "indexed": false,
          "internalType": "uint256",
          "name": "gameId",
          "type": "uint256"
        }
      ],
      "name": "GameFinished",
      "type": "event"
    },
    {
      "anonymous": false,
      "inputs": [
        {
          "indexed": true,
          "internalType": "address",
          "name": "playerA",
          "type": "address"
        },
        {
          "indexed": true,
          "internalType": "address",
          "name": "playerB",
          "type": "address"
        },
        {
          "indexed": true,
          "internalType": "uint256",
          "name": "boardId",
          "type": "uint256"
        },
        {
          "indexed": false,
          "internalType": "uint256",
          "name": "gameId",
          "type": "uint256"
        }
      ],
      "name": "GameStarted",
      "type": "event"
    },
    {
      "anonymous": false,
      "inputs": [
        {
          "indexed": true,
          "internalType": "uint256",
          "name": "boardId",
          "type": "uint256"
        },
        {
          "indexed": false,
          "internalType": "address",
          "name": "pawnTypeContract",
          "type": "address"
        }
      ],
      "name": "PawnTypeAdded",
      "type": "event"
    },
    {
      "constant": false,
      "inputs": [
        {
          "internalType": "string",
          "name": "name",
          "type": "string"
        },
        {
          "internalType": "address",
          "name": "boardContract",
          "type": "address"
        }
      ],
      "name": "createBoard",
      "outputs": [],
      "payable": false,
      "stateMutability": "nonpayable",
      "type": "function"
    },
    {
      "constant": false,
      "inputs": [
        {
          "internalType": "uint256",
          "name": "boardId",
          "type": "uint256"
        },
        {
          "internalType": "address",
          "name": "pawnTypeAddress",
          "type": "address"
        }
      ],
      "name": "addPawnTypeToBoard",
      "outputs": [],
      "payable": false,
      "stateMutability": "nonpayable",
      "type": "function"
    },
    {
      "constant": false,
      "inputs": [
        {
          "internalType": "uint256",
          "name": "boardId",
          "type": "uint256"
        },
        {
          "internalType": "uint8[10]",
          "name": "x",
          "type": "uint8[10]"
        },
        {
          "internalType": "uint8[10]",
          "name": "y",
          "type": "uint8[10]"
        },
        {
          "internalType": "uint8[10]",
          "name": "pawnType",
          "type": "uint8[10]"
        },
        {
          "internalType": "uint8",
          "name": "nbPawn",
          "type": "uint8"
        }
      ],
      "name": "addPawnsToBoard",
      "outputs": [],
      "payable": false,
      "stateMutability": "nonpayable",
      "type": "function"
    },
    {
      "constant": false,
      "inputs": [
        {
          "internalType": "uint256",
          "name": "boardId",
          "type": "uint256"
        }
      ],
      "name": "resetBoard",
      "outputs": [],
      "payable": false,
      "stateMutability": "nonpayable",
      "type": "function"
    },
    {
      "constant": false,
      "inputs": [
        {
          "internalType": "uint256",
          "name": "boardId",
          "type": "uint256"
        }
      ],
      "name": "deployBoard",
      "outputs": [],
      "payable": false,
      "stateMutability": "nonpayable",
      "type": "function"
    },
    {
      "constant": false,
      "inputs": [
        {
          "internalType": "uint256",
          "name": "boardId",
          "type": "uint256"
        }
      ],
      "name": "joinGame",
      "outputs": [],
      "payable": false,
      "stateMutability": "nonpayable",
      "type": "function"
    },
    {
      "constant": false,
      "inputs": [
        {
          "internalType": "uint256",
          "name": "boardId",
          "type": "uint256"
        },
        {
          "internalType": "uint256",
          "name": "gameId",
          "type": "uint256"
        },
        {
          "internalType": "uint8",
          "name": "winner",
          "type": "uint8"
        }
      ],
      "name": "finishGame",
      "outputs": [],
      "payable": false,
      "stateMutability": "nonpayable",
      "type": "function"
    },
    {
      "constant": true,
      "inputs": [],
      "name": "getBoardNumber",
      "outputs": [
        {
          "internalType": "uint256",
          "name": "",
          "type": "uint256"
        }
      ],
      "payable": false,
      "stateMutability": "view",
      "type": "function"
    },
    {
      "constant": true,
      "inputs": [
        {
          "internalType": "uint256",
          "name": "boardId",
          "type": "uint256"
        }
      ],
      "name": "getBoardContractAddress",
      "outputs": [
        {
          "internalType": "address",
          "name": "",
          "type": "address"
        }
      ],
      "payable": false,
      "stateMutability": "view",
      "type": "function"
    },
    {
      "constant": true,
      "inputs": [
        {
          "internalType": "uint256",
          "name": "boardId",
          "type": "uint256"
        }
      ],
      "name": "isDeployed",
      "outputs": [
        {
          "internalType": "bool",
          "name": "",
          "type": "bool"
        }
      ],
      "payable": false,
      "stateMutability": "view",
      "type": "function"
    },
    {
      "constant": true,
      "inputs": [
        {
          "internalType": "uint256",
          "name": "boardId",
          "type": "uint256"
        }
      ],
      "name": "getBoardPawnTypeNumber",
      "outputs": [
        {
          "internalType": "uint8",
          "name": "",
          "type": "uint8"
        }
      ],
      "payable": false,
      "stateMutability": "view",
      "type": "function"
    },
    {
      "constant": true,
      "inputs": [
        {
          "internalType": "uint256",
          "name": "boardId",
          "type": "uint256"
        },
        {
          "internalType": "uint8",
          "name": "pawnType",
          "type": "uint8"
        }
      ],
      "name": "getBoardPawnTypeContract",
      "outputs": [
        {
          "internalType": "address",
          "name": "",
          "type": "address"
        }
      ],
      "payable": false,
      "stateMutability": "view",
      "type": "function"
    },
    {
      "constant": true,
      "inputs": [
        {
          "internalType": "uint256",
          "name": "boardId",
          "type": "uint256"
        }
      ],
      "name": "getBoardPawnNumber",
      "outputs": [
        {
          "internalType": "uint8",
          "name": "",
          "type": "uint8"
        }
      ],
      "payable": false,
      "stateMutability": "view",
      "type": "function"
    },
    {
      "constant": true,
      "inputs": [
        {
          "internalType": "uint256",
          "name": "boardId",
          "type": "uint256"
        },
        {
          "internalType": "uint8",
          "name": "pawnIndex",
          "type": "uint8"
        }
      ],
      "name": "getBoardPawnTypeContractFromPawnIndex",
      "outputs": [
        {
          "internalType": "address",
          "name": "",
          "type": "address"
        }
      ],
      "payable": false,
      "stateMutability": "view",
      "type": "function"
    },
    {
      "constant": true,
      "inputs": [
        {
          "internalType": "uint256",
          "name": "boardId",
          "type": "uint256"
        }
      ],
      "name": "getInitialState",
      "outputs": [
        {
          "internalType": "uint8[121]",
          "name": "state",
          "type": "uint8[121]"
        }
      ],
      "payable": false,
      "stateMutability": "view",
      "type": "function"
    },
    {
      "constant": true,
      "inputs": [
        {
          "internalType": "uint256",
          "name": "boardId",
          "type": "uint256"
        }
      ],
      "name": "getGameNumber",
      "outputs": [
        {
          "internalType": "uint256",
          "name": "",
          "type": "uint256"
        }
      ],
      "payable": false,
      "stateMutability": "view",
      "type": "function"
    },
    {
      "constant": true,
      "inputs": [
        {
          "internalType": "uint256",
          "name": "boardId",
          "type": "uint256"
        }
      ],
      "name": "isWaitingPlayer",
      "outputs": [
        {
          "internalType": "bool",
          "name": "isWaiting",
          "type": "bool"
        },
        {
          "internalType": "address",
          "name": "waitingPlayer",
          "type": "address"
        }
      ],
      "payable": false,
      "stateMutability": "view",
      "type": "function"
    },
    {
      "constant": true,
      "inputs": [
        {
          "internalType": "uint256",
          "name": "boardId",
          "type": "uint256"
        },
        {
          "internalType": "uint256",
          "name": "gameId",
          "type": "uint256"
        }
      ],
      "name": "isGameOver",
      "outputs": [
        {
          "internalType": "bool",
          "name": "",
          "type": "bool"
        }
      ],
      "payable": false,
      "stateMutability": "view",
      "type": "function"
    },
    {
      "constant": true,
      "inputs": [
        {
          "internalType": "uint256",
          "name": "boardId",
          "type": "uint256"
        },
        {
          "internalType": "uint256",
          "name": "gameId",
          "type": "uint256"
        },
        {
          "internalType": "uint256",
          "name": "turnNumber",
          "type": "uint256"
        }
      ],
      "name": "getGamePlayerAddress",
      "outputs": [
        {
          "internalType": "address",
          "name": "",
          "type": "address"
        }
      ],
      "payable": false,
      "stateMutability": "view",
      "type": "function"
    },
    {
      "constant": true,
      "inputs": [
        {
          "internalType": "uint256",
          "name": "boardId",
          "type": "uint256"
        },
        {
          "internalType": "uint256",
          "name": "gameId",
          "type": "uint256"
        },
        {
          "internalType": "address",
          "name": "playerAddress",
          "type": "address"
        }
      ],
      "name": "getGamePlayerIndex",
      "outputs": [
        {
          "internalType": "int256",
          "name": "",
          "type": "int256"
        }
      ],
      "payable": false,
      "stateMutability": "view",
      "type": "function"
    }
  ],
  "bytecode": "0x608060405234801561001057600080fd5b506040516138433803806138438339818101604052602081101561003357600080fd5b81019080805190602001909291905050506000808190555080600260006101000a81548173ffffffffffffffffffffffffffffffffffffffff021916908373ffffffffffffffffffffffffffffffffffffffff160217905550506137a78061009c6000396000f3fe608060405234801561001057600080fd5b506004361061012c5760003560e01c806372e57afd116100ad578063e3336f2b11610071578063e3336f2b1461076c578063efaa55a0146107b2578063f881add2146107e0578063fd9c102d1461084e578063fe2be323146108965761012c565b806372e57afd1461055157806375f6ccd3146105d35780638412ad80146106ae5780639439060f146106fc578063c6be19d71461073e5761012c565b80634d79b758116100f45780634d79b7581461036257806356a112c7146103a75780635cbecfc41461042257806365577aa41461046a57806365d377a9146104e55761012c565b8063014820d11461013157806308c4a77e14610233578063140604cc146102ac57806316796dee1461031657806347dadc1514610334575b600080fd5b610231600480360361040081101561014857600080fd5b8101908080359060200190929190806101400190600a806020026040519081016040528092919082600a60200280828437600081840152601f19601f8201169050808301925050505050509192919290806101400190600a806020026040519081016040528092919082600a60200280828437600081840152601f19601f8201169050808301925050505050509192919290806101400190600a806020026040519081016040528092919082600a60200280828437600081840152601f19601f8201169050808301925050505050509192919290803560ff1690602001909291905050506108e6565b005b61025f6004803603602081101561024957600080fd5b8101908080359060200190929190505050610ece565b60405180831515151581526020018273ffffffffffffffffffffffffffffffffffffffff1673ffffffffffffffffffffffffffffffffffffffff1681526020019250505060405180910390f35b6102d8600480360360208110156102c257600080fd5b810190808035906020019092919050505061100d565b6040518082607960200280838360005b838110156103035780820151818401526020810190506102e8565b5050505090500191505060405180910390f35b61031e611268565b6040518082815260200191505060405180910390f35b6103606004803603602081101561034a57600080fd5b8101908080359060200190929190505050611271565b005b6103a56004803603606081101561037857600080fd5b810190808035906020019092919080359060200190929190803560ff16906020019092919050505061150a565b005b6103e0600480360360408110156103bd57600080fd5b8101908080359060200190929190803560ff169060200190929190505050611a38565b604051808273ffffffffffffffffffffffffffffffffffffffff1673ffffffffffffffffffffffffffffffffffffffff16815260200191505060405180910390f35b61044e6004803603602081101561043857600080fd5b8101908080359060200190929190505050611bb4565b604051808260ff1660ff16815260200191505060405180910390f35b6104a36004803603604081101561048057600080fd5b8101908080359060200190929190803560ff169060200190929190505050611c5f565b604051808273ffffffffffffffffffffffffffffffffffffffff1673ffffffffffffffffffffffffffffffffffffffff16815260200191505060405180910390f35b61053b600480360360608110156104fb57600080fd5b810190808035906020019092919080359060200190929190803573ffffffffffffffffffffffffffffffffffffffff169060200190929190505050611e26565b6040518082815260200191505060405180910390f35b6105916004803603606081101561056757600080fd5b8101908080359060200190929190803590602001909291908035906020019092919050505061207a565b604051808273ffffffffffffffffffffffffffffffffffffffff1673ffffffffffffffffffffffffffffffffffffffff16815260200191505060405180910390f35b6106ac600480360360408110156105e957600080fd5b810190808035906020019064010000000081111561060657600080fd5b82018360208201111561061857600080fd5b8035906020019184600183028401116401000000008311171561063a57600080fd5b91908080601f016020809104026020016040519081016040528093929190818152602001838380828437600081840152601f19601f820116905080830192505050505050509192919290803573ffffffffffffffffffffffffffffffffffffffff169060200190929190505050612254565b005b6106fa600480360360408110156106c457600080fd5b8101908080359060200190929190803573ffffffffffffffffffffffffffffffffffffffff1690602001909291905050506125b9565b005b6107286004803603602081101561071257600080fd5b8101908080359060200190929190505050612985565b6040518082815260200191505060405180910390f35b61076a6004803603602081101561075457600080fd5b8101908080359060200190929190505050612a23565b005b6107986004803603602081101561078257600080fd5b8101908080359060200190929190505050612c53565b604051808215151515815260200191505060405180910390f35b6107de600480360360208110156107c857600080fd5b8101908080359060200190929190505050612cfe565b005b61080c600480360360208110156107f657600080fd5b81019080803590602001909291905050506131c9565b604051808273ffffffffffffffffffffffffffffffffffffffff1673ffffffffffffffffffffffffffffffffffffffff16815260200191505060405180910390f35b61087a6004803603602081101561086457600080fd5b8101908080359060200190929190505050613287565b604051808260ff1660ff16815260200191505060405180910390f35b6108cc600480360360408110156108ac57600080fd5b810190808035906020019092919080359060200190929190505050613332565b604051808215151515815260200191505060405180910390f35b600054851061095d576040517f08c379a00000000000000000000000000000000000000000000000000000000081526004018080602001828103825260178152602001807f54686520626f61726420646f65736e277420657869737400000000000000000081525060200191505060405180910390fd5b6001858154811061096a57fe5b90600052602060002090600a020160040160009054906101000a900460ff16156109fc576040517f08c379a000000000000000000000000000000000000000000000000000000000815260040180806020018281038252601d8152602001807f54686520626f61726420697320616c7265616479206465706c6f79656400000081525060200191505060405180910390fd5b3373ffffffffffffffffffffffffffffffffffffffff1660018681548110610a2057fe5b90600052602060002090600a020160020160009054906101000a900473ffffffffffffffffffffffffffffffffffffffff1673ffffffffffffffffffffffffffffffffffffffff1614610adb576040517f08c379a00000000000000000000000000000000000000000000000000000000081526004018080602001828103825260208152602001807f4f6e6c7920626f6172642063726561746f722063616e20616464207061776e7381525060200191505060405180910390fd5b600a8160ff1611158015610af2575060008160ff16115b610b47576040517f08c379a00000000000000000000000000000000000000000000000000000000081526004018080602001828103825260268152602001806136ab6026913960400191505060405180910390fd5b60288160018781548110610b5757fe5b90600052602060002090600a020160040160029054906101000a900460ff160160ff161115610bd1576040517f08c379a00000000000000000000000000000000000000000000000000000000081526004018080602001828103825260258152602001806136d16025913960400191505060405180910390fd5b60008090505b8160ff168160ff161015610e7d576008858260ff16600a8110610bf657fe5b602002015160ff16108015610c2157506008848260ff16600a8110610c1757fe5b602002015160ff16105b610c76576040517f08c379a000000000000000000000000000000000000000000000000000000000815260040180806020018281038252602181526020018061365d6021913960400191505060405180910390fd5b60018681548110610c8357fe5b90600052602060002090600a020160040160019054906101000a900460ff1660ff16838260ff16600a8110610cb457fe5b602002015160ff1610610d2f576040517f08c379a00000000000000000000000000000000000000000000000000000000081526004018080602001828103825260168152602001807f546865207061776e20646f65736e27742065786973740000000000000000000081525060200191505060405180910390fd5b610d37613485565b838260ff16600a8110610d4657fe5b6020020151816000019060ff16908160ff1681525050858260ff16600a8110610d6b57fe5b6020020151816020019060ff16908160ff1681525050848260ff16600a8110610d9057fe5b6020020151816040019060ff16908160ff16815250508060018881548110610db457fe5b90600052602060002090600a020160060160008460018b81548110610dd557fe5b90600052602060002090600a020160040160029054906101000a900460ff160160ff1660ff16815260200190815260200160002060008201518160000160006101000a81548160ff021916908360ff16021790555060208201518160000160016101000a81548160ff021916908360ff16021790555060408201518160000160026101000a81548160ff021916908360ff160217905550905050508080600101915050610bd7565b508060018681548110610e8c57fe5b90600052602060002090600a020160040160028282829054906101000a900460ff160192506101000a81548160ff021916908360ff1602179055505050505050565b6000806000548310610f48576040517f08c379a00000000000000000000000000000000000000000000000000000000081526004018080602001828103825260178152602001807f54686520626f61726420646f65736e277420657869737400000000000000000081525060200191505060405180910390fd5b60019150600073ffffffffffffffffffffffffffffffffffffffff1660018481548110610f7157fe5b90600052602060002090600a020160090160009054906101000a900473ffffffffffffffffffffffffffffffffffffffff1673ffffffffffffffffffffffffffffffffffffffff161415610fc457600091505b8160018481548110610fd257fe5b90600052602060002090600a020160090160009054906101000a900473ffffffffffffffffffffffffffffffffffffffff1691509150915091565b6110156134af565b600054821061108c576040517f08c379a00000000000000000000000000000000000000000000000000000000081526004018080602001828103825260178152602001807f54686520626f61726420646f65736e277420657869737400000000000000000081525060200191505060405180910390fd5b6001828154811061109957fe5b90600052602060002090600a020160040160029054906101000a900460ff16816000607981106110c557fe5b602002019060ff16908160ff168152505060008090505b600183815481106110e957fe5b90600052602060002090600a020160040160029054906101000a900460ff1660ff168160ff16101561125f57600180848154811061112357fe5b90600052602060002090600a020160060160008360ff1660ff16815260200190815260200160002060000160009054906101000a900460ff1601828260010160ff166079811061116f57fe5b602002019060ff16908160ff16815250506001838154811061118d57fe5b90600052602060002090600a020160060160008260ff1660ff16815260200190815260200160002060000160019054906101000a900460ff16828260290160ff16607981106111d857fe5b602002019060ff16908160ff1681525050600183815481106111f657fe5b90600052602060002090600a020160060160008260ff1660ff16815260200190815260200160002060000160029054906101000a900460ff16828260510160ff166079811061124157fe5b602002019060ff16908160ff168152505080806001019150506110dc565b50809050919050565b60008054905090565b60005481106112e8576040517f08c379a00000000000000000000000000000000000000000000000000000000081526004018080602001828103825260178152602001807f54686520626f61726420646f65736e277420657869737400000000000000000081525060200191505060405180910390fd5b600181815481106112f557fe5b90600052602060002090600a020160040160009054906101000a900460ff1615611387576040517f08c379a000000000000000000000000000000000000000000000000000000000815260040180806020018281038252601d8152602001807f54686520626f61726420697320616c7265616479206465706c6f79656400000081525060200191505060405180910390fd5b3373ffffffffffffffffffffffffffffffffffffffff16600182815481106113ab57fe5b90600052602060002090600a020160020160009054906101000a900473ffffffffffffffffffffffffffffffffffffffff1673ffffffffffffffffffffffffffffffffffffffff1614611449576040517f08c379a00000000000000000000000000000000000000000000000000000000081526004018080602001828103825260238152602001806137506023913960400191505060405180910390fd5b60026001828154811061145857fe5b90600052602060002090600a020160040160029054906101000a900460ff1660ff1610156114d1576040517f08c379a00000000000000000000000000000000000000000000000000000000081526004018080602001828103825260258152602001806136f66025913960400191505060405180910390fd5b60018082815481106114df57fe5b90600052602060002090600a020160040160006101000a81548160ff02191690831515021790555050565b600260009054906101000a900473ffffffffffffffffffffffffffffffffffffffff1673ffffffffffffffffffffffffffffffffffffffff163373ffffffffffffffffffffffffffffffffffffffff16146115b0576040517f08c379a000000000000000000000000000000000000000000000000000000000815260040180806020018281038252603581526020018061371b6035913960400191505060405180910390fd5b6000548310611627576040517f08c379a00000000000000000000000000000000000000000000000000000000081526004018080602001828103825260178152602001807f54686520626f61726420646f65736e277420657869737400000000000000000081525060200191505060405180910390fd5b6001838154811061163457fe5b90600052602060002090600a02016007015482106116ba576040517f08c379a00000000000000000000000000000000000000000000000000000000081526004018080602001828103825260168152602001807f5468652067616d6520646f65736e27742065786973740000000000000000000081525060200191505060405180910390fd5b600183815481106116c757fe5b90600052602060002090600a0201600801600083815260200190815260200160002060010160149054906101000a900460ff161561176d576040517f08c379a00000000000000000000000000000000000000000000000000000000081526004018080602001828103825260188152602001807f5468652067616d6520697320616c7265616479206f766572000000000000000081525060200191505060405180910390fd5b60028160ff16106117e6576040517f08c379a00000000000000000000000000000000000000000000000000000000081526004018080602001828103825260188152602001807f5468652077696e6e657220646f65736e2774206578697374000000000000000081525060200191505060405180910390fd5b6000808260ff16141561184d576001848154811061180057fe5b90600052602060002090600a0201600801600084815260200190815260200160002060000160009054906101000a900473ffffffffffffffffffffffffffffffffffffffff1690506118a3565b6001848154811061185a57fe5b90600052602060002090600a0201600801600084815260200190815260200160002060010160009054906101000a900473ffffffffffffffffffffffffffffffffffffffff1690505b600184815481106118b057fe5b90600052602060002090600a0201600801600084815260200190815260200160002060010160009054906101000a900473ffffffffffffffffffffffffffffffffffffffff1673ffffffffffffffffffffffffffffffffffffffff166001858154811061191957fe5b90600052602060002090600a0201600801600085815260200190815260200160002060000160009054906101000a900473ffffffffffffffffffffffffffffffffffffffff1673ffffffffffffffffffffffffffffffffffffffff167f0ffff200143c07c471e3d4bd1972a1b601d278491708eef4ec7cf9e921fda192838787604051808473ffffffffffffffffffffffffffffffffffffffff1673ffffffffffffffffffffffffffffffffffffffff168152602001838152602001828152602001935050505060405180910390a360018085815481106119f657fe5b90600052602060002090600a0201600801600085815260200190815260200160002060010160146101000a81548160ff02191690831515021790555050505050565b600080548310611ab0576040517f08c379a00000000000000000000000000000000000000000000000000000000081526004018080602001828103825260178152602001807f54686520626f61726420646f65736e277420657869737400000000000000000081525060200191505060405180910390fd5b60018381548110611abd57fe5b90600052602060002090600a020160040160019054906101000a900460ff1660ff168260ff1610611b56576040517f08c379a000000000000000000000000000000000000000000000000000000000815260040180806020018281038252601b8152602001807f546865207061776e207479706520646f65736e2774206578697374000000000081525060200191505060405180910390fd5b60018381548110611b6357fe5b90600052602060002090600a020160050160008360ff1660ff16815260200190815260200160002060009054906101000a900473ffffffffffffffffffffffffffffffffffffffff16905092915050565b600080548210611c2c576040517f08c379a00000000000000000000000000000000000000000000000000000000081526004018080602001828103825260178152602001807f54686520626f61726420646f65736e277420657869737400000000000000000081525060200191505060405180910390fd5b60018281548110611c3957fe5b90600052602060002090600a020160040160029054906101000a900460ff169050919050565b600080548310611cd7576040517f08c379a00000000000000000000000000000000000000000000000000000000081526004018080602001828103825260178152602001807f54686520626f61726420646f65736e277420657869737400000000000000000081525060200191505060405180910390fd5b60018381548110611ce457fe5b90600052602060002090600a020160040160029054906101000a900460ff1660ff168260ff1610611d7d576040517f08c379a00000000000000000000000000000000000000000000000000000000081526004018080602001828103825260168152602001807f546865207061776e20646f65736e27742065786973740000000000000000000081525060200191505060405180910390fd5b600060018481548110611d8c57fe5b90600052602060002090600a020160060160008460ff1660ff16815260200190815260200160002060000160009054906101000a900460ff16905060018481548110611dd457fe5b90600052602060002090600a020160050160008260ff1660ff16815260200190815260200160002060009054906101000a900473ffffffffffffffffffffffffffffffffffffffff1691505092915050565b600080548410611e9e576040517f08c379a00000000000000000000000000000000000000000000000000000000081526004018080602001828103825260178152602001807f54686520626f61726420646f65736e277420657869737400000000000000000081525060200191505060405180910390fd5b60018481548110611eab57fe5b90600052602060002090600a0201600701548310611f31576040517f08c379a00000000000000000000000000000000000000000000000000000000081526004018080602001828103825260168152602001807f5468652067616d6520646f65736e27742065786973740000000000000000000081525060200191505060405180910390fd5b60018481548110611f3e57fe5b90600052602060002090600a0201600801600084815260200190815260200160002060000160009054906101000a900473ffffffffffffffffffffffffffffffffffffffff1673ffffffffffffffffffffffffffffffffffffffff168273ffffffffffffffffffffffffffffffffffffffff161415611fc05760009050612073565b60018481548110611fcd57fe5b90600052602060002090600a0201600801600084815260200190815260200160002060010160009054906101000a900473ffffffffffffffffffffffffffffffffffffffff1673ffffffffffffffffffffffffffffffffffffffff168273ffffffffffffffffffffffffffffffffffffffff16141561204f5760019050612073565b7fffffffffffffffffffffffffffffffffffffffffffffffffffffffffffffffff90505b9392505050565b6000805484106120f2576040517f08c379a00000000000000000000000000000000000000000000000000000000081526004018080602001828103825260178152602001807f54686520626f61726420646f65736e277420657869737400000000000000000081525060200191505060405180910390fd5b600184815481106120ff57fe5b90600052602060002090600a0201600701548310612185576040517f08c379a00000000000000000000000000000000000000000000000000000000081526004018080602001828103825260168152602001807f5468652067616d6520646f65736e27742065786973740000000000000000000081525060200191505060405180910390fd5b6000806002848161219257fe5b0614156121f357600185815481106121a657fe5b90600052602060002090600a0201600801600085815260200190815260200160002060000160009054906101000a900473ffffffffffffffffffffffffffffffffffffffff169050612249565b6001858154811061220057fe5b90600052602060002090600a0201600801600085815260200190815260200160002060010160009054906101000a900473ffffffffffffffffffffffffffffffffffffffff1690505b809150509392505050565b61225c6134d2565b60005481600001818152505081816020019073ffffffffffffffffffffffffffffffffffffffff16908173ffffffffffffffffffffffffffffffffffffffff168152505033816040019073ffffffffffffffffffffffffffffffffffffffff16908173ffffffffffffffffffffffffffffffffffffffff1681525050600081608001901515908115158152505060008160a0019060ff16908160ff168152505060008160c0019060ff16908160ff168152505060008160e0018181525050600081610100019073ffffffffffffffffffffffffffffffffffffffff16908173ffffffffffffffffffffffffffffffffffffffff16815250506001819080600181540180825580915050906001820390600052602060002090600a0201600090919290919091506000820151816000015560208201518160010160006101000a81548173ffffffffffffffffffffffffffffffffffffffff021916908373ffffffffffffffffffffffffffffffffffffffff16021790555060408201518160020160006101000a81548173ffffffffffffffffffffffffffffffffffffffff021916908373ffffffffffffffffffffffffffffffffffffffff1602179055506060820151816003019080519060200190612436929190613568565b5060808201518160040160006101000a81548160ff02191690831515021790555060a08201518160040160016101000a81548160ff021916908360ff16021790555060c08201518160040160026101000a81548160ff021916908360ff16021790555060e082015181600701556101008201518160090160006101000a81548173ffffffffffffffffffffffffffffffffffffffff021916908373ffffffffffffffffffffffffffffffffffffffff1602179055505050506000543373ffffffffffffffffffffffffffffffffffffffff167fe820c892428a1b85fdf99f24e32fbe1165413ebb7119bde5dfa6cb72334f7580856040518080602001828103825283818151815260200191508051906020019080838360005b8381101561256a57808201518184015260208101905061254f565b50505050905090810190601f1680156125975780820380516001836020036101000a031916815260200191505b509250505060405180910390a360016000808282540192505081905550505050565b6000548210612630576040517f08c379a00000000000000000000000000000000000000000000000000000000081526004018080602001828103825260178152602001807f54686520626f61726420646f65736e277420657869737400000000000000000081525060200191505060405180910390fd5b6001828154811061263d57fe5b90600052602060002090600a020160040160009054906101000a900460ff16156126cf576040517f08c379a000000000000000000000000000000000000000000000000000000000815260040180806020018281038252601d8152602001807f54686520626f61726420697320616c7265616479206465706c6f79656400000081525060200191505060405180910390fd5b3373ffffffffffffffffffffffffffffffffffffffff16600183815481106126f357fe5b90600052602060002090600a020160020160009054906101000a900473ffffffffffffffffffffffffffffffffffffffff1673ffffffffffffffffffffffffffffffffffffffff16146127ae576040517f08c379a00000000000000000000000000000000000000000000000000000000081526004018080602001828103825260208152602001807f4f6e6c7920626f6172642063726561746f722063616e20616464207061776e7381525060200191505060405180910390fd5b60fa600183815481106127bd57fe5b90600052602060002090600a020160040160019054906101000a900460ff1660ff1610612835576040517f08c379a000000000000000000000000000000000000000000000000000000000815260040180806020018281038252602d81526020018061367e602d913960400191505060405180910390fd5b806001838154811061284357fe5b90600052602060002090600a020160050160006001858154811061286357fe5b90600052602060002090600a020160040160019054906101000a900460ff1660ff1660ff16815260200190815260200160002060006101000a81548173ffffffffffffffffffffffffffffffffffffffff021916908373ffffffffffffffffffffffffffffffffffffffff16021790555060018083815481106128e257fe5b90600052602060002090600a020160040160018282829054906101000a900460ff160192506101000a81548160ff021916908360ff160217905550817f7a341913bd407cbdd72b8c3f62dfc23385bcb7f37bb7cc42280c3b7d21d64ea682604051808273ffffffffffffffffffffffffffffffffffffffff1673ffffffffffffffffffffffffffffffffffffffff16815260200191505060405180910390a25050565b6000805482106129fd576040517f08c379a00000000000000000000000000000000000000000000000000000000081526004018080602001828103825260178152602001807f54686520626f61726420646f65736e277420657869737400000000000000000081525060200191505060405180910390fd5b60018281548110612a0a57fe5b90600052602060002090600a0201600701549050919050565b6000548110612a9a576040517f08c379a00000000000000000000000000000000000000000000000000000000081526004018080602001828103825260178152602001807f54686520626f61726420646f65736e277420657869737400000000000000000081525060200191505060405180910390fd5b60018181548110612aa757fe5b90600052602060002090600a020160040160009054906101000a900460ff1615612b39576040517f08c379a000000000000000000000000000000000000000000000000000000000815260040180806020018281038252601d8152602001807f54686520626f61726420697320616c7265616479206465706c6f79656400000081525060200191505060405180910390fd5b3373ffffffffffffffffffffffffffffffffffffffff1660018281548110612b5d57fe5b90600052602060002090600a020160020160009054906101000a900473ffffffffffffffffffffffffffffffffffffffff1673ffffffffffffffffffffffffffffffffffffffff1614612c18576040517f08c379a000000000000000000000000000000000000000000000000000000000815260040180806020018281038252601c8152602001807f4f6e6c7920626f6172642063726561746f722063616e2072657365740000000081525060200191505060405180910390fd5b600060018281548110612c2757fe5b90600052602060002090600a020160040160026101000a81548160ff021916908360ff16021790555050565b600080548210612ccb576040517f08c379a00000000000000000000000000000000000000000000000000000000081526004018080602001828103825260178152602001807f54686520626f61726420646f65736e277420657869737400000000000000000081525060200191505060405180910390fd5b60018281548110612cd857fe5b90600052602060002090600a020160040160009054906101000a900460ff169050919050565b6000548110612d75576040517f08c379a00000000000000000000000000000000000000000000000000000000081526004018080602001828103825260178152602001807f54686520626f61726420646f65736e277420657869737400000000000000000081525060200191505060405180910390fd5b60018181548110612d8257fe5b90600052602060002090600a020160040160009054906101000a900460ff16612e13576040517f08c379a00000000000000000000000000000000000000000000000000000000081526004018080602001828103825260198152602001807f54686520626f617264206973206e6f74206465706c6f7965640000000000000081525060200191505060405180910390fd5b600073ffffffffffffffffffffffffffffffffffffffff1660018281548110612e3857fe5b90600052602060002090600a020160090160009054906101000a900473ffffffffffffffffffffffffffffffffffffffff1673ffffffffffffffffffffffffffffffffffffffff161415612ee8573360018281548110612e9457fe5b90600052602060002090600a020160090160006101000a81548173ffffffffffffffffffffffffffffffffffffffff021916908373ffffffffffffffffffffffffffffffffffffffff1602179055506131c6565b612ef06135e8565b60018281548110612efd57fe5b90600052602060002090600a020160090160009054906101000a900473ffffffffffffffffffffffffffffffffffffffff16816000019073ffffffffffffffffffffffffffffffffffffffff16908173ffffffffffffffffffffffffffffffffffffffff168152505033816020019073ffffffffffffffffffffffffffffffffffffffff16908173ffffffffffffffffffffffffffffffffffffffff168152505060008160400190151590811515815250508060018381548110612fbd57fe5b90600052602060002090600a0201600801600060018581548110612fdd57fe5b90600052602060002090600a020160070154815260200190815260200160002060008201518160000160006101000a81548173ffffffffffffffffffffffffffffffffffffffff021916908373ffffffffffffffffffffffffffffffffffffffff16021790555060208201518160010160006101000a81548173ffffffffffffffffffffffffffffffffffffffff021916908373ffffffffffffffffffffffffffffffffffffffff16021790555060408201518160010160146101000a81548160ff02191690831515021790555090505081816020015173ffffffffffffffffffffffffffffffffffffffff16826000015173ffffffffffffffffffffffffffffffffffffffff167f89e651d0d1f877f5c444ff351a9449c3b36bbc92b470093d9fc085b1bbd1e3bc6001868154811061311357fe5b90600052602060002090600a0201600701546040518082815260200191505060405180910390a460006001838154811061314957fe5b90600052602060002090600a020160090160006101000a81548173ffffffffffffffffffffffffffffffffffffffff021916908373ffffffffffffffffffffffffffffffffffffffff16021790555060018083815481106131a657fe5b90600052602060002090600a020160070160008282540192505081905550505b50565b600080548210613241576040517f08c379a00000000000000000000000000000000000000000000000000000000081526004018080602001828103825260178152602001807f54686520626f61726420646f65736e277420657869737400000000000000000081525060200191505060405180910390fd5b6001828154811061324e57fe5b90600052602060002090600a020160010160009054906101000a900473ffffffffffffffffffffffffffffffffffffffff169050919050565b6000805482106132ff576040517f08c379a00000000000000000000000000000000000000000000000000000000081526004018080602001828103825260178152602001807f54686520626f61726420646f65736e277420657869737400000000000000000081525060200191505060405180910390fd5b6001828154811061330c57fe5b90600052602060002090600a020160040160019054906101000a900460ff169050919050565b6000805483106133aa576040517f08c379a00000000000000000000000000000000000000000000000000000000081526004018080602001828103825260178152602001807f54686520626f61726420646f65736e277420657869737400000000000000000081525060200191505060405180910390fd5b600183815481106133b757fe5b90600052602060002090600a020160070154821061343d576040517f08c379a00000000000000000000000000000000000000000000000000000000081526004018080602001828103825260168152602001807f5468652067616d6520646f65736e27742065786973740000000000000000000081525060200191505060405180910390fd5b6001838154811061344a57fe5b90600052602060002090600a0201600801600083815260200190815260200160002060010160149054906101000a900460ff16905092915050565b6040518060600160405280600060ff168152602001600060ff168152602001600060ff1681525090565b60405180610f200160405280607990602082028038833980820191505090505090565b60405180610120016040528060008152602001600073ffffffffffffffffffffffffffffffffffffffff168152602001600073ffffffffffffffffffffffffffffffffffffffff16815260200160608152602001600015158152602001600060ff168152602001600060ff16815260200160008152602001600073ffffffffffffffffffffffffffffffffffffffff1681525090565b828054600181600116156101000203166002900490600052602060002090601f016020900481019282601f106135a957805160ff19168380011785556135d7565b828001600101855582156135d7579182015b828111156135d65782518255916020019190600101906135bb565b5b5090506135e49190613637565b5090565b6040518060600160405280600073ffffffffffffffffffffffffffffffffffffffff168152602001600073ffffffffffffffffffffffffffffffffffffffff1681526020016000151581525090565b61365991905b8082111561365557600081600090555060010161363d565b5090565b9056fe546865207061776e20706f736974696f6e206973206f7574206f6620626f756e64596f752063616e20616464206d6178696d756d20323530207061776e20747970657320696e206120626f617264596f752063616e20616464206d6178696d756d203130207061776e7320617420612074696d65546865206d6178696d756d20616d6f756e74206f66207061776e20697320726561636865644174206c656173742032207061776e73206d757374206265206f6e2074686520626f6172645468652066756e6374696f6e206d7573742062652063616c6c65642062792074686520657468626f6172647320636f6e74726163744f6e6c7920626f6172642063726561746f722063616e206465706c6f7920626f617264a265627a7a723158205e2bb9876acc55c7fad6603698288f5b28f112aa2a8d78b036fcccced4ffd94564736f6c63430005100032",
  "source": "pragma solidity 0.5.16;\n\ncontract BoardHandler {\n\n    ///////////////////////////////////////////////////////////////\n    /// Events\n\n    /**\n    * Emitted when a new board is created\n    * @param creator The creator of the board\n    * @param boardId The id of the board\n    */\n    event BoardCreated(\n        address indexed creator,\n        uint indexed boardId,\n        string name\n    );\n\n    /**\n    * Emitted when a new pawn type is added to a board\n    * @param boardId The id of the board\n    * @param pawnTypeContract The address of the contract of the pawn type\n    */\n    event PawnTypeAdded(\n        uint indexed boardId,\n        address pawnTypeContract\n    );\n\n    /**\n    * Emitted when a new game is started\n    * @param playerA The player A of the game\n    * @param playerB The player B of the game\n    * @param boardId The id of the board\n    * @param gameId The id of the game\n    */\n    event GameStarted(\n        address indexed playerA,\n        address indexed playerB,\n        uint indexed boardId,\n        uint gameId\n    );\n\n    /**\n    * Emitted when a new game is finished\n    * @param playerA The player A of the game\n    * @param playerB The player B of the game\n    * @param winner The winner of the game\n    * @param boardId The id of the board\n    * @param gameId The id of the game\n    */\n    event GameFinished(\n        address indexed playerA,\n        address indexed playerB,\n        address winner,\n        uint boardId,\n        uint gameId\n    );\n\n    ///////////////////////////////////////////////////////////////\n    /// Structures\n\n    struct PawnPosition {\n        uint8 pawnType;\n        uint8 x;\n        uint8 y;\n    }\n\n    struct Game {\n        address playerA;\n        address playerB;\n        bool over;\n    }\n\n    struct Board {\n        uint id;\n        address boardContract;\n        address creator;\n        string name;\n        bool deployed;\n        uint8 pawnTypeNumber;\n        uint8 pawnNumber;\n        mapping (uint8 => address) pawnTypeAddress;\n        mapping (uint8 => PawnPosition) pawnPosition;\n        uint gameCount;\n        mapping (uint => Game) games;\n        address waitingPlayer;\n    }\n\n    uint boardNumber;\n    Board[] boards;\n    address ethBoards;\n\n    ///////////////////////////////////////////////////////////////\n\n    modifier fromEthBoards {\n        require(msg.sender == ethBoards, \"The function must be called by the ethboards contract\");\n        _;\n    }\n\n    constructor(address ethBoardsAddress) public {\n        boardNumber = 0;\n        ethBoards = ethBoardsAddress;\n    }\n\n    ///////////////////////////////////////////////////////////////\n    /// Board administration\n\n    // Create a new board\n    function createBoard(string memory name, address boardContract) public {\n        // Create the board\n        Board memory newBoard;\n        newBoard.id = boardNumber;\n        newBoard.boardContract = boardContract;\n        newBoard.creator = msg.sender;\n        newBoard.deployed = false;\n        newBoard.pawnTypeNumber = 0;\n        newBoard.pawnNumber = 0;\n        newBoard.gameCount = 0;\n        newBoard.waitingPlayer = address(0);\n        boards.push(newBoard);\n\n        emit BoardCreated(msg.sender, boardNumber, name);\n        boardNumber += 1;\n    }\n\n    // TODO: Check contract contains the function signature\n    function addPawnTypeToBoard(uint boardId, address pawnTypeAddress) public {\n        require(boardId < boardNumber, \"The board doesn't exist\");\n        require(!boards[boardId].deployed, \"The board is already deployed\");\n        require(boards[boardId].creator == msg.sender, \"Only board creator can add pawns\");\n        require(boards[boardId].pawnTypeNumber < 250, \"You can add maximum 250 pawn types in a board\");\n\n        boards[boardId].pawnTypeAddress[boards[boardId].pawnTypeNumber] = pawnTypeAddress;\n        boards[boardId].pawnTypeNumber += 1;\n\n        emit PawnTypeAdded(boardId, pawnTypeAddress);\n    }\n\n    // Add list of pawns to the board\n    function addPawnsToBoard(\n        uint boardId,\n        uint8[10] memory x,\n        uint8[10] memory y,\n        uint8[10] memory pawnType,\n        uint8 nbPawn\n    ) public {\n        require(boardId < boardNumber, \"The board doesn't exist\");\n        require(!boards[boardId].deployed, \"The board is already deployed\");\n        require(boards[boardId].creator == msg.sender, \"Only board creator can add pawns\");\n        require(nbPawn <= 10 && nbPawn > 0, \"You can add maximum 10 pawns at a time\");\n        require(boards[boardId].pawnNumber + nbPawn <= 40, \"The maximum amount of pawn is reached\");\n\n        // Add pawns\n        for (uint8 i = 0; i < nbPawn; i++) {\n            require(x[i] < 8 && y[i] < 8, \"The pawn position is out of bound\");\n            require(pawnType[i] < boards[boardId].pawnTypeNumber, \"The pawn doesn't exist\");\n\n            PawnPosition memory newPawn;\n            newPawn.pawnType = pawnType[i];\n            newPawn.x = x[i];\n            newPawn.y = y[i];\n\n            boards[boardId].pawnPosition[boards[boardId].pawnNumber + i] = newPawn;\n        }\n\n        boards[boardId].pawnNumber += nbPawn;\n    }\n\n    // Remove all pawn for a board\n    function resetBoard(uint boardId) public {\n        require(boardId < boardNumber, \"The board doesn't exist\");\n        require(!boards[boardId].deployed, \"The board is already deployed\");\n        require(boards[boardId].creator == msg.sender, \"Only board creator can reset\");\n\n        boards[boardId].pawnNumber = 0;\n    }\n\n    // Deploy a board\n    // Once deployed, no pawn can be added to the board anymore and game can be started from the board\n    function deployBoard(uint boardId) public {\n        require(boardId < boardNumber, \"The board doesn't exist\");\n        require(!boards[boardId].deployed, \"The board is already deployed\");\n        require(boards[boardId].creator == msg.sender, \"Only board creator can deploy board\");\n        require(boards[boardId].pawnNumber >= 2, \"At least 2 pawns must be on the board\");\n\n        boards[boardId].deployed = true;\n    }\n\n    ///////////////////////////////////////////////////////////////\n    /// Game\n\n    // Join a new game on a board\n    // When a player joins a game, he's in the waiting room for the game\n    // If someone is present in the waiting room, the game is started against this player\n    // This current model will be changed in the future\n    // TODO: Join game callback\n    function joinGame(uint boardId) public {\n        require(boardId < boardNumber, \"The board doesn't exist\");\n        require(boards[boardId].deployed, \"The board is not deployed\");\n\n        // If there is no waiting player yet\n        if (boards[boardId].waitingPlayer == address(0)) {\n            boards[boardId].waitingPlayer = msg.sender;\n        } else {\n            // Start a new game\n            Game memory newGame;\n            newGame.playerA = boards[boardId].waitingPlayer;\n            newGame.playerB = msg.sender;\n            newGame.over = false;\n\n            // Register the game\n            boards[boardId].games[boards[boardId].gameCount] = newGame;\n            emit GameStarted(newGame.playerA, newGame.playerB, boardId, boards[boardId].gameCount);\n\n            // Reset waiting room\n            boards[boardId].waitingPlayer = address(0);\n\n            // Increment total number of game\n            boards[boardId].gameCount += 1;\n        }\n    }\n\n    // Finish a game\n    // This function can only be called by the ethBoards contract, this contract ensure the winner is legit\n    // TODO: Add callback when win\n    function finishGame(uint boardId, uint gameId, uint8 winner) public fromEthBoards {\n        require(boardId < boardNumber, \"The board doesn't exist\");\n        require(gameId < boards[boardId].gameCount, \"The game doesn't exist\");\n        require(!boards[boardId].games[gameId].over, \"The game is already over\");\n        require(winner < 2, \"The winner doesn't exist\");\n\n        address winnerAddress;\n        if (winner == 0) {\n            winnerAddress = boards[boardId].games[gameId].playerA;\n        } else {\n            winnerAddress = boards[boardId].games[gameId].playerB;\n        }\n\n        emit GameFinished(\n            boards[boardId].games[gameId].playerA,\n            boards[boardId].games[gameId].playerB,\n            winnerAddress,\n            boardId,\n            gameId\n        );\n        boards[boardId].games[gameId].over = true;\n    }\n\n    ///////////////////////////////////////////////////////////////\n    /// Board information\n\n    // Number of board\n    function getBoardNumber() public view returns(uint) {\n        return boardNumber;\n    }\n\n    function getBoardContractAddress(uint boardId) public view returns(address) {\n        require(boardId < boardNumber, \"The board doesn't exist\");\n        return boards[boardId].boardContract;\n    }\n\n    // Check if a board is deployed\n    function isDeployed(uint boardId) public view returns(bool) {\n        require(boardId < boardNumber, \"The board doesn't exist\");\n        return boards[boardId].deployed;\n    }\n\n    // Get the number of pawn type in the board\n    function getBoardPawnTypeNumber(uint boardId) public view returns(uint8) {\n        require(boardId < boardNumber, \"The board doesn't exist\");\n        return boards[boardId].pawnTypeNumber;\n    }\n\n    // Get the address of a pawn type\n    function getBoardPawnTypeContract(uint boardId, uint8 pawnType) public view returns(address) {\n        require(boardId < boardNumber, \"The board doesn't exist\");\n        require(pawnType < boards[boardId].pawnTypeNumber, \"The pawn type doesn't exist\");\n\n        return boards[boardId].pawnTypeAddress[pawnType];\n    }\n\n    // Get the number of pawn\n    function getBoardPawnNumber(uint boardId) public view returns(uint8) {\n        require(boardId < boardNumber, \"The board doesn't exist\");\n\n        return boards[boardId].pawnNumber;\n    }\n\n    // Get the contract of pawn\n    function getBoardPawnTypeContractFromPawnIndex(uint boardId, uint8 pawnIndex) public view returns(address) {\n        require(boardId < boardNumber, \"The board doesn't exist\");\n        require(pawnIndex < boards[boardId].pawnNumber, \"The pawn doesn't exist\");\n\n        uint8 pawnType = boards[boardId].pawnPosition[pawnIndex].pawnType;\n\n        return boards[boardId].pawnTypeAddress[pawnType];\n    }\n\n    // Get the initial state of the board\n    function getInitialState(uint boardId) public view returns(uint8[121] memory state) {\n        require(boardId < boardNumber, \"The board doesn't exist\");\n\n        // Pawn number\n        state[0] = boards[boardId].pawnNumber;\n\n        for(uint8 i = 0; i<boards[boardId].pawnNumber; i++) {\n             // Pawn type\n            state[1+i] = boards[boardId].pawnPosition[i].pawnType+1;\n            // Pawn x position\n            state[41+i] = boards[boardId].pawnPosition[i].x;\n            // Pawn y position\n            state[81+i] = boards[boardId].pawnPosition[i].y;\n        }\n\n        return state;\n    }\n\n    ///////////////////////////////////////////////////////////////\n    /// Game information\n\n    function getGameNumber(uint boardId) public view returns(uint) {\n        require(boardId < boardNumber, \"The board doesn't exist\");\n        return boards[boardId].gameCount;\n    }\n\n    function isWaitingPlayer(uint boardId) public view returns(bool isWaiting, address waitingPlayer) {\n        require(boardId < boardNumber, \"The board doesn't exist\");\n\n        isWaiting = true;\n        if (boards[boardId].waitingPlayer == address(0)) {\n            isWaiting = false;\n        }\n        return (isWaiting, boards[boardId].waitingPlayer);\n    }\n\n    function isGameOver(uint boardId, uint gameId) public view returns(bool) {\n        require(boardId < boardNumber, \"The board doesn't exist\");\n        require(gameId < boards[boardId].gameCount, \"The game doesn't exist\");\n\n        return boards[boardId].games[gameId].over;\n    }\n\n    function getGamePlayerAddress(uint boardId, uint gameId, uint turnNumber) public view returns(address) {\n        require(boardId < boardNumber, \"The board doesn't exist\");\n        require(gameId < boards[boardId].gameCount, \"The game doesn't exist\");\n\n        address playerAddress;\n\n        // Every even turn are played by player A while every odd turn are played by player B\n        if (turnNumber % 2 == 0) {\n            playerAddress = boards[boardId].games[gameId].playerA;\n        } else {\n            playerAddress = boards[boardId].games[gameId].playerB;\n        }\n\n        return playerAddress;\n    }\n\n    function getGamePlayerIndex(uint boardId, uint gameId, address playerAddress) public view returns(int) {\n        require(boardId < boardNumber, \"The board doesn't exist\");\n        require(gameId < boards[boardId].gameCount, \"The game doesn't exist\");\n\n        if (playerAddress == boards[boardId].games[gameId].playerA) {\n            return 0;\n        } else if (playerAddress == boards[boardId].games[gameId].playerB) {\n            return 1;\n        }\n\n        return -1;\n    }\n}\n",
  "sourcePath": "/Users/lucas/Desktop/ethboards/contracts/BoardHandler.sol",
  "compiler": {
    "name": "solc",
    "version": "0.5.16+commit.9c3226ce.Emscripten.clang"
  },
  "schemaVersion": "3.2.0",
  "updatedAt": "2020-07-02T11:59:55.452Z",
  "networkType": "ethereum",
  "devdoc": {
    "methods": {}
  },
  "userdoc": {
    "methods": {
      "createBoard(string,address)": {
        "notice": "//////////////////////////////////////////////////////////// Board administration"
      },
      "getBoardNumber()": {
        "notice": "//////////////////////////////////////////////////////////// Board information"
      },
      "getGameNumber(uint256)": {
        "notice": "//////////////////////////////////////////////////////////// Game information"
      },
      "joinGame(uint256)": {
        "notice": "//////////////////////////////////////////////////////////// Game"
      }
    }
  }
}