{
  "contractName": "BoardHandler",
  "abi": [
    {
      "inputs": [
        {
          "internalType": "address",
          "name": "ethBoardsAddress",
          "type": "address"
        }
      ],
      "stateMutability": "nonpayable",
      "type": "constructor"
    },
    {
      "anonymous": false,
      "inputs": [
        {
          "indexed": true,
          "internalType": "address",
          "name": "creator",
          "type": "address"
        },
        {
          "indexed": true,
          "internalType": "uint256",
          "name": "boardId",
          "type": "uint256"
        },
        {
          "indexed": false,
          "internalType": "string",
          "name": "name",
          "type": "string"
        }
      ],
      "name": "BoardCreated",
      "type": "event"
    },
    {
      "anonymous": false,
      "inputs": [
        {
          "indexed": true,
          "internalType": "address",
          "name": "playerA",
          "type": "address"
        },
        {
          "indexed": true,
          "internalType": "address",
          "name": "playerB",
          "type": "address"
        },
        {
          "indexed": false,
          "internalType": "address",
          "name": "winner",
          "type": "address"
        },
        {
          "indexed": false,
          "internalType": "uint256",
          "name": "boardId",
          "type": "uint256"
        },
        {
          "indexed": false,
          "internalType": "uint256",
          "name": "gameId",
          "type": "uint256"
        }
      ],
      "name": "GameFinished",
      "type": "event"
    },
    {
      "anonymous": false,
      "inputs": [
        {
          "indexed": true,
          "internalType": "address",
          "name": "playerA",
          "type": "address"
        },
        {
          "indexed": true,
          "internalType": "address",
          "name": "playerB",
          "type": "address"
        },
        {
          "indexed": true,
          "internalType": "uint256",
          "name": "boardId",
          "type": "uint256"
        },
        {
          "indexed": false,
          "internalType": "uint256",
          "name": "gameId",
          "type": "uint256"
        }
      ],
      "name": "GameStarted",
      "type": "event"
    },
    {
      "inputs": [
        {
          "internalType": "string",
          "name": "name",
          "type": "string"
        },
        {
          "internalType": "address",
          "name": "boardContract",
          "type": "address"
        },
        {
          "internalType": "address",
          "name": "pawnSetAddress",
          "type": "address"
        },
        {
          "internalType": "address",
          "name": "boardEventsAddress",
          "type": "address"
        },
        {
          "internalType": "uint8[40]",
          "name": "x",
          "type": "uint8[40]"
        },
        {
          "internalType": "uint8[40]",
          "name": "y",
          "type": "uint8[40]"
        },
        {
          "internalType": "uint8[40]",
          "name": "pawnIndex",
          "type": "uint8[40]"
        },
        {
          "internalType": "uint8",
          "name": "pawnNb",
          "type": "uint8"
        }
      ],
      "name": "createBoard",
      "outputs": [],
      "stateMutability": "nonpayable",
      "type": "function"
    },
    {
      "inputs": [
        {
          "internalType": "uint256",
          "name": "boardId",
          "type": "uint256"
        }
      ],
      "name": "joinGame",
      "outputs": [],
      "stateMutability": "nonpayable",
      "type": "function"
    },
    {
      "inputs": [
        {
          "internalType": "uint256",
          "name": "boardId",
          "type": "uint256"
        },
        {
          "internalType": "uint256",
          "name": "gameId",
          "type": "uint256"
        },
        {
          "internalType": "uint8",
          "name": "winner",
          "type": "uint8"
        }
      ],
      "name": "finishGame",
      "outputs": [],
      "stateMutability": "nonpayable",
      "type": "function"
    },
    {
      "inputs": [
        {
          "internalType": "uint256",
          "name": "boardId",
          "type": "uint256"
        },
        {
          "internalType": "uint256",
          "name": "gameId",
          "type": "uint256"
        }
      ],
      "name": "giveUp",
      "outputs": [],
      "stateMutability": "nonpayable",
      "type": "function"
    },
    {
      "inputs": [],
      "name": "getBoardNumber",
      "outputs": [
        {
          "internalType": "uint256",
          "name": "",
          "type": "uint256"
        }
      ],
      "stateMutability": "view",
      "type": "function",
      "constant": true
    },
    {
      "inputs": [
        {
          "internalType": "uint256",
          "name": "boardId",
          "type": "uint256"
        }
      ],
      "name": "getBoardContractAddress",
      "outputs": [
        {
          "internalType": "address",
          "name": "",
          "type": "address"
        }
      ],
      "stateMutability": "view",
      "type": "function",
      "constant": true
    },
    {
      "inputs": [
        {
          "internalType": "uint256",
          "name": "boardId",
          "type": "uint256"
        }
      ],
      "name": "getBoardPawnNumber",
      "outputs": [
        {
          "internalType": "uint8",
          "name": "",
          "type": "uint8"
        }
      ],
      "stateMutability": "view",
      "type": "function",
      "constant": true
    },
    {
      "inputs": [
        {
          "internalType": "uint256",
          "name": "boardId",
          "type": "uint256"
        },
        {
          "internalType": "uint8",
          "name": "pawnIndex",
          "type": "uint8"
        }
      ],
      "name": "getBoardPawnContract",
      "outputs": [
        {
          "internalType": "address",
          "name": "",
          "type": "address"
        }
      ],
      "stateMutability": "view",
      "type": "function",
      "constant": true
    },
    {
      "inputs": [
        {
          "internalType": "uint256",
          "name": "boardId",
          "type": "uint256"
        }
      ],
      "name": "getInitialState",
      "outputs": [
        {
          "internalType": "uint8[121]",
          "name": "state",
          "type": "uint8[121]"
        }
      ],
      "stateMutability": "view",
      "type": "function",
      "constant": true
    },
    {
      "inputs": [
        {
          "internalType": "uint256",
          "name": "boardId",
          "type": "uint256"
        }
      ],
      "name": "getGameNumber",
      "outputs": [
        {
          "internalType": "uint256",
          "name": "",
          "type": "uint256"
        }
      ],
      "stateMutability": "view",
      "type": "function",
      "constant": true
    },
    {
      "inputs": [
        {
          "internalType": "uint256",
          "name": "boardId",
          "type": "uint256"
        }
      ],
      "name": "isWaitingPlayer",
      "outputs": [
        {
          "internalType": "bool",
          "name": "isWaiting",
          "type": "bool"
        },
        {
          "internalType": "address",
          "name": "waitingPlayer",
          "type": "address"
        }
      ],
      "stateMutability": "view",
      "type": "function",
      "constant": true
    },
    {
      "inputs": [
        {
          "internalType": "uint256",
          "name": "boardId",
          "type": "uint256"
        },
        {
          "internalType": "uint256",
          "name": "gameId",
          "type": "uint256"
        }
      ],
      "name": "isGameOver",
      "outputs": [
        {
          "internalType": "bool",
          "name": "",
          "type": "bool"
        }
      ],
      "stateMutability": "view",
      "type": "function",
      "constant": true
    },
    {
      "inputs": [
        {
          "internalType": "uint256",
          "name": "boardId",
          "type": "uint256"
        },
        {
          "internalType": "uint256",
          "name": "gameId",
          "type": "uint256"
        },
        {
          "internalType": "uint256",
          "name": "turnNumber",
          "type": "uint256"
        }
      ],
      "name": "getGamePlayerAddress",
      "outputs": [
        {
          "internalType": "address",
          "name": "",
          "type": "address"
        }
      ],
      "stateMutability": "view",
      "type": "function",
      "constant": true
    },
    {
      "inputs": [
        {
          "internalType": "uint256",
          "name": "boardId",
          "type": "uint256"
        },
        {
          "internalType": "uint256",
          "name": "gameId",
          "type": "uint256"
        },
        {
          "internalType": "address",
          "name": "playerAddress",
          "type": "address"
        }
      ],
      "name": "getGamePlayerIndex",
      "outputs": [
        {
          "internalType": "int256",
          "name": "",
          "type": "int256"
        }
      ],
      "stateMutability": "view",
      "type": "function",
      "constant": true
    }
  ],
  "bytecode": "0x608060405234801561001057600080fd5b50604051612d46380380612d468339818101604052602081101561003357600080fd5b81019080805190602001909291905050506000808190555080600260006101000a81548173ffffffffffffffffffffffffffffffffffffffff021916908373ffffffffffffffffffffffffffffffffffffffff16021790555050612caa8061009c6000396000f3fe608060405234801561001057600080fd5b50600436106100ea5760003560e01c806365d377a91161008c5780639439060f116100665780639439060f1461060d578063efaa55a01461064f578063f881add21461067d578063fe2be323146106eb576100ea565b806365d377a9146104a457806368e987e71461051057806372e57afd1461058b576100ea565b8063346bf76a116100c8578063346bf76a146101f05780634d79b758146103df57806359c5cc7b146104245780635cbecfc41461045c576100ea565b806308c4a77e146100ef578063140604cc1461016857806316796dee146101d2575b600080fd5b61011b6004803603602081101561010557600080fd5b810190808035906020019092919050505061073b565b60405180831515151581526020018273ffffffffffffffffffffffffffffffffffffffff1673ffffffffffffffffffffffffffffffffffffffff1681526020019250505060405180910390f35b6101946004803603602081101561017e57600080fd5b810190808035906020019092919050505061087a565b6040518082607960200280838360005b838110156101bf5780820151818401526020810190506101a4565b5050505090500191505060405180910390f35b6101da610ad5565b6040518082815260200191505060405180910390f35b6103dd6004803603610fa081101561020757600080fd5b810190808035906020019064010000000081111561022457600080fd5b82018360208201111561023657600080fd5b8035906020019184600183028401116401000000008311171561025857600080fd5b91908080601f016020809104026020016040519081016040528093929190818152602001838380828437600081840152601f19601f820116905080830192505050505050509192919290803573ffffffffffffffffffffffffffffffffffffffff169060200190929190803573ffffffffffffffffffffffffffffffffffffffff169060200190929190803573ffffffffffffffffffffffffffffffffffffffff1690602001909291908061050001906028806020026040519081016040528092919082602860200280828437600081840152601f19601f82011690508083019250505050505091929192908061050001906028806020026040519081016040528092919082602860200280828437600081840152601f19601f82011690508083019250505050505091929192908061050001906028806020026040519081016040528092919082602860200280828437600081840152601f19601f8201169050808301925050505050509192919290803560ff169060200190929190505050610ade565b005b610422600480360360608110156103f557600080fd5b810190808035906020019092919080359060200190929190803560ff1690602001909291905050506111ac565b005b61045a6004803603604081101561043a57600080fd5b810190808035906020019092919080359060200190929190505050611262565b005b6104886004803603602081101561047257600080fd5b81019080803590602001909291905050506114f0565b604051808260ff1660ff16815260200191505060405180910390f35b6104fa600480360360608110156104ba57600080fd5b810190808035906020019092919080359060200190929190803573ffffffffffffffffffffffffffffffffffffffff16906020019092919050505061159b565b6040518082815260200191505060405180910390f35b6105496004803603604081101561052657600080fd5b8101908080359060200190929190803560ff1690602001909291905050506117ef565b604051808273ffffffffffffffffffffffffffffffffffffffff1673ffffffffffffffffffffffffffffffffffffffff16815260200191505060405180910390f35b6105cb600480360360608110156105a157600080fd5b81019080803590602001909291908035906020019092919080359060200190929190505050611945565b604051808273ffffffffffffffffffffffffffffffffffffffff1673ffffffffffffffffffffffffffffffffffffffff16815260200191505060405180910390f35b6106396004803603602081101561062357600080fd5b8101908080359060200190929190505050611b1f565b6040518082815260200191505060405180910390f35b61067b6004803603602081101561066557600080fd5b8101908080359060200190929190505050611bbd565b005b6106a96004803603602081101561069357600080fd5b8101908080359060200190929190505050612188565b604051808273ffffffffffffffffffffffffffffffffffffffff1673ffffffffffffffffffffffffffffffffffffffff16815260200191505060405180910390f35b6107216004803603604081101561070157600080fd5b810190808035906020019092919080359060200190929190505050612246565b604051808215151515815260200191505060405180910390f35b60008060005483106107b5576040517f08c379a00000000000000000000000000000000000000000000000000000000081526004018080602001828103825260178152602001807f54686520626f61726420646f65736e277420657869737400000000000000000081525060200191505060405180910390fd5b60019150600073ffffffffffffffffffffffffffffffffffffffff16600184815481106107de57fe5b906000526020600020906009020160080160009054906101000a900473ffffffffffffffffffffffffffffffffffffffff1673ffffffffffffffffffffffffffffffffffffffff16141561083157600091505b816001848154811061083f57fe5b906000526020600020906009020160080160009054906101000a900473ffffffffffffffffffffffffffffffffffffffff1691509150915091565b6108826129ed565b60005482106108f9576040517f08c379a00000000000000000000000000000000000000000000000000000000081526004018080602001828103825260178152602001807f54686520626f61726420646f65736e277420657869737400000000000000000081525060200191505060405180910390fd5b6001828154811061090657fe5b906000526020600020906009020160040160149054906101000a900460ff168160006079811061093257fe5b602002019060ff16908160ff168152505060008090505b6001838154811061095657fe5b906000526020600020906009020160040160149054906101000a900460ff1660ff168160ff161015610acc57600180848154811061099057fe5b906000526020600020906009020160050160008360ff1660ff16815260200190815260200160002060000160009054906101000a900460ff1601828260010160ff16607981106109dc57fe5b602002019060ff16908160ff1681525050600183815481106109fa57fe5b906000526020600020906009020160050160008260ff1660ff16815260200190815260200160002060000160019054906101000a900460ff16828260290160ff1660798110610a4557fe5b602002019060ff16908160ff168152505060018381548110610a6357fe5b906000526020600020906009020160050160008260ff1660ff16815260200190815260200160002060000160029054906101000a900460ff16828260510160ff1660798110610aae57fe5b602002019060ff16908160ff16815250508080600101915050610949565b50809050919050565b60008054905090565b60288160ff1611158015610af5575060008160ff16115b610b4a576040517f08c379a000000000000000000000000000000000000000000000000000000000815260040180806020018281038252602b815260200180612c15602b913960400191505060405180910390fd5b610b52612a10565b60005481600001818152505087816040019073ffffffffffffffffffffffffffffffffffffffff16908173ffffffffffffffffffffffffffffffffffffffff168152505086816060019073ffffffffffffffffffffffffffffffffffffffff16908173ffffffffffffffffffffffffffffffffffffffff168152505085816080019073ffffffffffffffffffffffffffffffffffffffff16908173ffffffffffffffffffffffffffffffffffffffff1681525050818160a0019060ff16908160ff168152505060008160c001818152505060008160e0019073ffffffffffffffffffffffffffffffffffffffff16908173ffffffffffffffffffffffffffffffffffffffff16815250506001819080600181540180825580915050600190039060005260206000209060090201600090919091909150600082015181600001556020820151816001019080519060200190610cae929190612ab0565b5060408201518160020160006101000a81548173ffffffffffffffffffffffffffffffffffffffff021916908373ffffffffffffffffffffffffffffffffffffffff16021790555060608201518160030160006101000a81548173ffffffffffffffffffffffffffffffffffffffff021916908373ffffffffffffffffffffffffffffffffffffffff16021790555060808201518160040160006101000a81548173ffffffffffffffffffffffffffffffffffffffff021916908373ffffffffffffffffffffffffffffffffffffffff16021790555060a08201518160040160146101000a81548160ff021916908360ff16021790555060c0820151816006015560e08201518160080160006101000a81548173ffffffffffffffffffffffffffffffffffffffff021916908373ffffffffffffffffffffffffffffffffffffffff1602179055505050600087905060008173ffffffffffffffffffffffffffffffffffffffff166368b1cc996040518163ffffffff1660e01b815260040160206040518083038186803b158015610e4557600080fd5b505afa158015610e59573d6000803e3d6000fd5b505050506040513d6020811015610e6f57600080fd5b8101908080519060200190929190505050905060008090505b8460ff168160ff1610156110d8576008888260ff1660288110610ea757fe5b602002015160ff16108015610ed257506008878260ff1660288110610ec857fe5b602002015160ff16105b610f27576040517f08c379a0000000000000000000000000000000000000000000000000000000008152600401808060200182810382526021815260200180612bf46021913960400191505060405180910390fd5b8160ff16868260ff1660288110610f3a57fe5b602002015160ff1610610fb5576040517f08c379a00000000000000000000000000000000000000000000000000000000081526004018080602001828103825260168152602001807f546865207061776e20646f65736e27742065786973740000000000000000000081525060200191505060405180910390fd5b610fbd612b30565b868260ff1660288110610fcc57fe5b6020020151816000019060ff16908160ff1681525050888260ff1660288110610ff157fe5b6020020151816020019060ff16908160ff1681525050878260ff166028811061101657fe5b6020020151816040019060ff16908160ff16815250508060016000548154811061103c57fe5b906000526020600020906009020160050160008460ff1660ff16815260200190815260200160002060008201518160000160006101000a81548160ff021916908360ff16021790555060208201518160000160016101000a81548160ff021916908360ff16021790555060408201518160000160026101000a81548160ff021916908360ff160217905550905050508080600101915050610e88565b506000543373ffffffffffffffffffffffffffffffffffffffff167fe820c892428a1b85fdf99f24e32fbe1165413ebb7119bde5dfa6cb72334f75808d6040518080602001828103825283818151815260200191508051906020019080838360005b8381101561115557808201518184015260208101905061113a565b50505050905090810190601f1680156111825780820380516001836020036101000a031916815260200191505b509250505060405180910390a3600160008082825401925050819055505050505050505050505050565b600260009054906101000a900473ffffffffffffffffffffffffffffffffffffffff1673ffffffffffffffffffffffffffffffffffffffff163373ffffffffffffffffffffffffffffffffffffffff1614611252576040517f08c379a0000000000000000000000000000000000000000000000000000000008152600401808060200182810382526035815260200180612c406035913960400191505060405180910390fd5b61125d838383612399565b505050565b60005482106112d9576040517f08c379a00000000000000000000000000000000000000000000000000000000081526004018080602001828103825260178152602001807f54686520626f61726420646f65736e277420657869737400000000000000000081525060200191505060405180910390fd5b600182815481106112e657fe5b906000526020600020906009020160060154811061136c576040517f08c379a00000000000000000000000000000000000000000000000000000000081526004018080602001828103825260168152602001807f5468652067616d6520646f65736e27742065786973740000000000000000000081525060200191505060405180910390fd5b6001828154811061137957fe5b9060005260206000209060090201600701600082815260200190815260200160002060000160009054906101000a900473ffffffffffffffffffffffffffffffffffffffff1673ffffffffffffffffffffffffffffffffffffffff163373ffffffffffffffffffffffffffffffffffffffff161415611403576113fe82826001612399565b6114ec565b6001828154811061141057fe5b9060005260206000209060090201600701600082815260200190815260200160002060010160009054906101000a900473ffffffffffffffffffffffffffffffffffffffff1673ffffffffffffffffffffffffffffffffffffffff163373ffffffffffffffffffffffffffffffffffffffff16141561149a5761149582826000612399565b6114eb565b6040517f08c379a0000000000000000000000000000000000000000000000000000000008152600401808060200182810382526025815260200180612bcf6025913960400191505060405180910390fd5b5b5050565b600080548210611568576040517f08c379a00000000000000000000000000000000000000000000000000000000081526004018080602001828103825260178152602001807f54686520626f61726420646f65736e277420657869737400000000000000000081525060200191505060405180910390fd5b6001828154811061157557fe5b906000526020600020906009020160040160149054906101000a900460ff169050919050565b600080548410611613576040517f08c379a00000000000000000000000000000000000000000000000000000000081526004018080602001828103825260178152602001807f54686520626f61726420646f65736e277420657869737400000000000000000081525060200191505060405180910390fd5b6001848154811061162057fe5b90600052602060002090600902016006015483106116a6576040517f08c379a00000000000000000000000000000000000000000000000000000000081526004018080602001828103825260168152602001807f5468652067616d6520646f65736e27742065786973740000000000000000000081525060200191505060405180910390fd5b600184815481106116b357fe5b9060005260206000209060090201600701600084815260200190815260200160002060000160009054906101000a900473ffffffffffffffffffffffffffffffffffffffff1673ffffffffffffffffffffffffffffffffffffffff168273ffffffffffffffffffffffffffffffffffffffff16141561173557600090506117e8565b6001848154811061174257fe5b9060005260206000209060090201600701600084815260200190815260200160002060010160009054906101000a900473ffffffffffffffffffffffffffffffffffffffff1673ffffffffffffffffffffffffffffffffffffffff168273ffffffffffffffffffffffffffffffffffffffff1614156117c457600190506117e8565b7fffffffffffffffffffffffffffffffffffffffffffffffffffffffffffffffff90505b9392505050565b600080548310611867576040517f08c379a00000000000000000000000000000000000000000000000000000000081526004018080602001828103825260178152602001807f54686520626f61726420646f65736e277420657869737400000000000000000081525060200191505060405180910390fd5b60006001848154811061187657fe5b906000526020600020906009020160030160009054906101000a900473ffffffffffffffffffffffffffffffffffffffff1690508073ffffffffffffffffffffffffffffffffffffffff1663ed555823846040518263ffffffff1660e01b8152600401808260ff1660ff16815260200191505060206040518083038186803b15801561190157600080fd5b505afa158015611915573d6000803e3d6000fd5b505050506040513d602081101561192b57600080fd5b810190808051906020019092919050505091505092915050565b6000805484106119bd576040517f08c379a00000000000000000000000000000000000000000000000000000000081526004018080602001828103825260178152602001807f54686520626f61726420646f65736e277420657869737400000000000000000081525060200191505060405180910390fd5b600184815481106119ca57fe5b9060005260206000209060090201600601548310611a50576040517f08c379a00000000000000000000000000000000000000000000000000000000081526004018080602001828103825260168152602001807f5468652067616d6520646f65736e27742065786973740000000000000000000081525060200191505060405180910390fd5b60008060028481611a5d57fe5b061415611abe5760018581548110611a7157fe5b9060005260206000209060090201600701600085815260200190815260200160002060000160009054906101000a900473ffffffffffffffffffffffffffffffffffffffff169050611b14565b60018581548110611acb57fe5b9060005260206000209060090201600701600085815260200190815260200160002060010160009054906101000a900473ffffffffffffffffffffffffffffffffffffffff1690505b809150509392505050565b600080548210611b97576040517f08c379a00000000000000000000000000000000000000000000000000000000081526004018080602001828103825260178152602001807f54686520626f61726420646f65736e277420657869737400000000000000000081525060200191505060405180910390fd5b60018281548110611ba457fe5b9060005260206000209060090201600601549050919050565b6000548110611c34576040517f08c379a00000000000000000000000000000000000000000000000000000000081526004018080602001828103825260178152602001807f54686520626f61726420646f65736e277420657869737400000000000000000081525060200191505060405180910390fd5b600060018281548110611c4357fe5b906000526020600020906009020160040160009054906101000a900473ffffffffffffffffffffffffffffffffffffffff1690508073ffffffffffffffffffffffffffffffffffffffff166301d3a6da8360018581548110611ca157fe5b906000526020600020906009020160060154336040518463ffffffff1660e01b8152600401808481526020018381526020018273ffffffffffffffffffffffffffffffffffffffff1673ffffffffffffffffffffffffffffffffffffffff1681526020019350505050602060405180830381600087803b158015611d2457600080fd5b505af1158015611d38573d6000803e3d6000fd5b505050506040513d6020811015611d4e57600080fd5b8101908080519060200190929190505050611dd1576040517f08c379a000000000000000000000000000000000000000000000000000000000815260040180806020018281038252601e8152602001807f54686520706c617965722063616e2774206a6f696e207468652067616d65000081525060200191505060405180910390fd5b600073ffffffffffffffffffffffffffffffffffffffff1660018381548110611df657fe5b906000526020600020906009020160080160009054906101000a900473ffffffffffffffffffffffffffffffffffffffff1673ffffffffffffffffffffffffffffffffffffffff161415611ea6573360018381548110611e5257fe5b906000526020600020906009020160080160006101000a81548173ffffffffffffffffffffffffffffffffffffffff021916908373ffffffffffffffffffffffffffffffffffffffff160217905550612184565b611eae612b5a565b60018381548110611ebb57fe5b906000526020600020906009020160080160009054906101000a900473ffffffffffffffffffffffffffffffffffffffff16816000019073ffffffffffffffffffffffffffffffffffffffff16908173ffffffffffffffffffffffffffffffffffffffff168152505033816020019073ffffffffffffffffffffffffffffffffffffffff16908173ffffffffffffffffffffffffffffffffffffffff168152505060008160400190151590811515815250508060018481548110611f7b57fe5b9060005260206000209060090201600701600060018681548110611f9b57fe5b906000526020600020906009020160060154815260200190815260200160002060008201518160000160006101000a81548173ffffffffffffffffffffffffffffffffffffffff021916908373ffffffffffffffffffffffffffffffffffffffff16021790555060208201518160010160006101000a81548173ffffffffffffffffffffffffffffffffffffffff021916908373ffffffffffffffffffffffffffffffffffffffff16021790555060408201518160010160146101000a81548160ff02191690831515021790555090505082816020015173ffffffffffffffffffffffffffffffffffffffff16826000015173ffffffffffffffffffffffffffffffffffffffff167f89e651d0d1f877f5c444ff351a9449c3b36bbc92b470093d9fc085b1bbd1e3bc600187815481106120d157fe5b9060005260206000209060090201600601546040518082815260200191505060405180910390a460006001848154811061210757fe5b906000526020600020906009020160080160006101000a81548173ffffffffffffffffffffffffffffffffffffffff021916908373ffffffffffffffffffffffffffffffffffffffff160217905550600180848154811061216457fe5b906000526020600020906009020160060160008282540192505081905550505b5050565b600080548210612200576040517f08c379a00000000000000000000000000000000000000000000000000000000081526004018080602001828103825260178152602001807f54686520626f61726420646f65736e277420657869737400000000000000000081525060200191505060405180910390fd5b6001828154811061220d57fe5b906000526020600020906009020160020160009054906101000a900473ffffffffffffffffffffffffffffffffffffffff169050919050565b6000805483106122be576040517f08c379a00000000000000000000000000000000000000000000000000000000081526004018080602001828103825260178152602001807f54686520626f61726420646f65736e277420657869737400000000000000000081525060200191505060405180910390fd5b600183815481106122cb57fe5b9060005260206000209060090201600601548210612351576040517f08c379a00000000000000000000000000000000000000000000000000000000081526004018080602001828103825260168152602001807f5468652067616d6520646f65736e27742065786973740000000000000000000081525060200191505060405180910390fd5b6001838154811061235e57fe5b9060005260206000209060090201600701600083815260200190815260200160002060010160149054906101000a900460ff16905092915050565b6000548310612410576040517f08c379a00000000000000000000000000000000000000000000000000000000081526004018080602001828103825260178152602001807f54686520626f61726420646f65736e277420657869737400000000000000000081525060200191505060405180910390fd5b6001838154811061241d57fe5b90600052602060002090600902016006015482106124a3576040517f08c379a00000000000000000000000000000000000000000000000000000000081526004018080602001828103825260168152602001807f5468652067616d6520646f65736e27742065786973740000000000000000000081525060200191505060405180910390fd5b600183815481106124b057fe5b9060005260206000209060090201600701600083815260200190815260200160002060010160149054906101000a900460ff1615612556576040517f08c379a00000000000000000000000000000000000000000000000000000000081526004018080602001828103825260188152602001807f5468652067616d6520697320616c7265616479206f766572000000000000000081525060200191505060405180910390fd5b60028160ff16106125cf576040517f08c379a00000000000000000000000000000000000000000000000000000000081526004018080602001828103825260188152602001807f5468652077696e6e657220646f65736e2774206578697374000000000000000081525060200191505060405180910390fd5b60008060008360ff16141561268d57600185815481106125eb57fe5b9060005260206000209060090201600701600085815260200190815260200160002060000160009054906101000a900473ffffffffffffffffffffffffffffffffffffffff1691506001858154811061264057fe5b9060005260206000209060090201600701600085815260200190815260200160002060010160009054906101000a900473ffffffffffffffffffffffffffffffffffffffff169050612738565b6001858154811061269a57fe5b9060005260206000209060090201600701600085815260200190815260200160002060010160009054906101000a900473ffffffffffffffffffffffffffffffffffffffff169150600185815481106126ef57fe5b9060005260206000209060090201600701600085815260200190815260200160002060000160009054906101000a900473ffffffffffffffffffffffffffffffffffffffff1690505b6001858154811061274557fe5b9060005260206000209060090201600701600085815260200190815260200160002060010160009054906101000a900473ffffffffffffffffffffffffffffffffffffffff1673ffffffffffffffffffffffffffffffffffffffff16600186815481106127ae57fe5b9060005260206000209060090201600701600086815260200190815260200160002060000160009054906101000a900473ffffffffffffffffffffffffffffffffffffffff1673ffffffffffffffffffffffffffffffffffffffff167f0ffff200143c07c471e3d4bd1972a1b601d278491708eef4ec7cf9e921fda192848888604051808473ffffffffffffffffffffffffffffffffffffffff1673ffffffffffffffffffffffffffffffffffffffff168152602001838152602001828152602001935050505060405180910390a3600180868154811061288b57fe5b9060005260206000209060090201600701600086815260200190815260200160002060010160146101000a81548160ff0219169083151502179055506000600186815481106128d657fe5b906000526020600020906009020160040160009054906101000a900473ffffffffffffffffffffffffffffffffffffffff1690508073ffffffffffffffffffffffffffffffffffffffff16631fe6d2ca878786866040518563ffffffff1660e01b8152600401808581526020018481526020018373ffffffffffffffffffffffffffffffffffffffff1673ffffffffffffffffffffffffffffffffffffffff1681526020018273ffffffffffffffffffffffffffffffffffffffff1673ffffffffffffffffffffffffffffffffffffffff168152602001945050505050600060405180830381600087803b1580156129cd57600080fd5b505af11580156129e1573d6000803e3d6000fd5b50505050505050505050565b60405180610f200160405280607990602082028036833780820191505090505090565b6040518061010001604052806000815260200160608152602001600073ffffffffffffffffffffffffffffffffffffffff168152602001600073ffffffffffffffffffffffffffffffffffffffff168152602001600073ffffffffffffffffffffffffffffffffffffffff168152602001600060ff16815260200160008152602001600073ffffffffffffffffffffffffffffffffffffffff1681525090565b828054600181600116156101000203166002900490600052602060002090601f016020900481019282601f10612af157805160ff1916838001178555612b1f565b82800160010185558215612b1f579182015b82811115612b1e578251825591602001919060010190612b03565b5b509050612b2c9190612ba9565b5090565b6040518060600160405280600060ff168152602001600060ff168152602001600060ff1681525090565b6040518060600160405280600073ffffffffffffffffffffffffffffffffffffffff168152602001600073ffffffffffffffffffffffffffffffffffffffff1681526020016000151581525090565b612bcb91905b80821115612bc7576000816000905550600101612baf565b5090565b9056fe4f6e6c79206120706c61796572206f66207468652067616d652063616e2067697665207570546865207061776e20706f736974696f6e206973206f7574206f6620626f756e64596f752063616e20706c616365206d6178696d756d203430207061776e73206f6e2074686520626f6172645468652066756e6374696f6e206d7573742062652063616c6c65642062792074686520657468626f6172647320636f6e7472616374a2646970667358221220e22dd3f3def45912234b25becff82326e0860c8db17c57f5faabbbff843a249a64736f6c634300060b0033",
  "immutableReferences": {},
  "source": "pragma solidity 0.6.11;\n\nimport \"./PawnSet.sol\";\nimport \"./BoardEvents.sol\";\n\n/**\n * @title Board Handler\n * @notice The storage contract, store the informations about boards and games\n*/\ncontract BoardHandler {\n\n    ///////////////////////////////////////////////////////////////\n    /// Events\n\n    /**\n    * Emitted when a new board is created\n    * @param creator The creator of the board\n    * @param boardId The id of the board\n    * @param name Name of the board\n    */\n    event BoardCreated(\n        address indexed creator,\n        uint indexed boardId,\n        string name\n    );\n\n    /**\n    * Emitted when a new game is started\n    * @param playerA The player A of the game\n    * @param playerB The player B of the game\n    * @param boardId The id of the board\n    * @param gameId The id of the game\n    */\n    event GameStarted(\n        address indexed playerA,\n        address indexed playerB,\n        uint indexed boardId,\n        uint gameId\n    );\n\n    /**\n    * Emitted when a new game is finished\n    * @param playerA The player A of the game\n    * @param playerB The player B of the game\n    * @param winner The winner of the game\n    * @param boardId The id of the board\n    * @param gameId The id of the game\n    */\n    event GameFinished(\n        address indexed playerA,\n        address indexed playerB,\n        address winner,\n        uint boardId,\n        uint gameId\n    );\n\n    ///////////////////////////////////////////////////////////////\n    /// Structures\n\n    struct PawnPosition {\n        uint8 pawnIndex;\n        uint8 x;\n        uint8 y;\n    }\n\n    struct Game {\n        address playerA;\n        address playerB;\n        bool over;\n    }\n\n    struct Board {\n        uint id;\n        string name;\n        address boardContract;\n        address pawnSet;\n        address boardEvents;\n        uint8 pawnNumber;\n        mapping (uint8 => PawnPosition) pawnPosition;\n        uint gameCount;\n        mapping (uint => Game) games;\n        address waitingPlayer;\n    }\n\n    uint boardNumber;\n    Board[] boards;\n    address ethBoards;\n\n    ///////////////////////////////////////////////////////////////\n\n    constructor(address ethBoardsAddress) public {\n        boardNumber = 0;\n        ethBoards = ethBoardsAddress;\n    }\n\n    ///////////////////////////////////////////////////////////////\n    /// Board administration\n\n    /**\n     * @notice Create a new board\n     * @param name name of the board\n     * @param boardContract address of the smart contract that represents the board\n     * @param pawnSetAddress the address of the set of pawn to use for the board\n     * @param x array that represents the x coordinates where to add the pawns\n     * @param y array that represents the y coordinates where to add the pawns\n     * @param pawnIndex array that represents the pawn index from the set of the pawns to add\n     * @param pawnNb number of pawn to add\n    */\n    function createBoard(\n        string memory name,\n        address boardContract,\n        address pawnSetAddress,\n        address boardEventsAddress,\n        uint8[40] memory x,\n        uint8[40] memory y,\n        uint8[40] memory pawnIndex,\n        uint8 pawnNb\n    ) public {\n        require(pawnNb <= 40 && pawnNb > 0, \"You can place maximum 40 pawns on the board\");\n\n        // Create the board\n        Board memory newBoard;\n        newBoard.id = boardNumber;\n        newBoard.boardContract = boardContract;\n        newBoard.pawnSet = pawnSetAddress;\n        newBoard.boardEvents = boardEventsAddress;\n        newBoard.pawnNumber = pawnNb;\n        newBoard.gameCount = 0;\n        newBoard.waitingPlayer = address(0);\n        boards.push(newBoard);\n\n        // Get the pawn set to verify pawn indexes are correct\n        PawnSet pawnSet = PawnSet(pawnSetAddress);\n        uint8 pawnSetPawnNb = pawnSet.getPawnNb();\n\n        // Place pawns\n        for (uint8 i = 0; i < pawnNb; i++) {\n            require(x[i] < 8 && y[i] < 8, \"The pawn position is out of bound\");\n            require(pawnIndex[i] < pawnSetPawnNb, \"The pawn doesn't exist\");\n\n            PawnPosition memory newPawn;\n            newPawn.pawnIndex = pawnIndex[i];\n            newPawn.x = x[i];\n            newPawn.y = y[i];\n\n            boards[boardNumber].pawnPosition[i] = newPawn;\n        }\n\n        emit BoardCreated(msg.sender, boardNumber, name);\n        boardNumber += 1;\n    }\n\n    ///////////////////////////////////////////////////////////////\n    /// Game\n\n    /**\n     * @notice Join a new game on a board. When a player joins a game, he's in the waiting room for the game, if someone is present in the waiting room, the game is started against this player\n     * @param boardId id of the board\n    */\n    function joinGame(uint boardId) public {\n        require(boardId < boardNumber, \"The board doesn't exist\");\n\n        // Get the board events contract to verify join conditions\n        BoardEvents boardEvents = BoardEvents(boards[boardId].boardEvents);\n        require(boardEvents.joinGame(boardId, boards[boardId].gameCount, msg.sender), \"The player can't join the game\");\n\n        // If there is no waiting player yet\n        if (boards[boardId].waitingPlayer == address(0)) {\n            boards[boardId].waitingPlayer = msg.sender;\n        } else {\n            // Start a new game\n            Game memory newGame;\n            newGame.playerA = boards[boardId].waitingPlayer;\n            newGame.playerB = msg.sender;\n            newGame.over = false;\n\n            // Register the game\n            boards[boardId].games[boards[boardId].gameCount] = newGame;\n            emit GameStarted(newGame.playerA, newGame.playerB, boardId, boards[boardId].gameCount);\n\n            // Reset waiting room\n            boards[boardId].waitingPlayer = address(0);\n\n            // Increment total number of game\n            boards[boardId].gameCount += 1;\n        }\n    }\n\n    /**\n     * @notice Finish a game, internal\n     * @param boardId id of the board\n     * @param gameId id of the game\n     * @param winner player that won the game (0 or 1)\n    */\n    function _finishGame(uint boardId, uint gameId, uint8 winner) internal {\n        require(boardId < boardNumber, \"The board doesn't exist\");\n        require(gameId < boards[boardId].gameCount, \"The game doesn't exist\");\n        require(!boards[boardId].games[gameId].over, \"The game is already over\");\n        require(winner < 2, \"The winner doesn't exist\");\n\n        address winnerAddress;\n        address loserAddress;\n        if (winner == 0) {\n            winnerAddress = boards[boardId].games[gameId].playerA;\n            loserAddress = boards[boardId].games[gameId].playerB;\n        } else {\n            winnerAddress = boards[boardId].games[gameId].playerB;\n            loserAddress = boards[boardId].games[gameId].playerA;\n        }\n\n        emit GameFinished(\n            boards[boardId].games[gameId].playerA,\n            boards[boardId].games[gameId].playerB,\n            winnerAddress,\n            boardId,\n            gameId\n        );\n        boards[boardId].games[gameId].over = true;\n\n        // Call the event finished of the board\n        BoardEvents boardEvents = BoardEvents(boards[boardId].boardEvents);\n        boardEvents.gameFinished(boardId, gameId, winnerAddress, loserAddress);\n    }\n\n    /**\n     * @notice Finish a game, this function can only be called by the ethBoards contract, this contract ensure the winner is legit\n     * @param boardId id of the board\n     * @param gameId id of the game\n     * @param winner player that won the game (0 or 1)\n    */\n    function finishGame(uint boardId, uint gameId, uint8 winner) public {\n        require(msg.sender == ethBoards, \"The function must be called by the ethboards contract\");\n        _finishGame(boardId, gameId, winner);\n    }\n\n    /**\n     * @notice Give up a game, can be called anytime by one of the player of the game\n     * @param boardId id of the board\n     * @param gameId id of the game\n    */\n    function giveUp(uint boardId, uint gameId) public {\n        require(boardId < boardNumber, \"The board doesn't exist\");\n        require(gameId < boards[boardId].gameCount, \"The game doesn't exist\");\n\n        if (msg.sender == boards[boardId].games[gameId].playerA) {\n            // The player A gave up, player B wins\n            _finishGame(boardId, gameId, 1);\n        } else if (msg.sender == boards[boardId].games[gameId].playerB) {\n            // The player B gave up, player A wins\n            _finishGame(boardId, gameId, 0);\n        } else {\n            revert(\"Only a player of the game can give up\");\n        }\n    }\n\n    ///////////////////////////////////////////////////////////////\n    /// Board information\n\n    /**\n     * @notice Get the number of boards\n     * @return number of boards\n    */\n    function getBoardNumber() public view returns(uint) {\n        return boardNumber;\n    }\n\n    /**\n     * @notice Get the address of the smart contract of the board\n     * @param boardId id of the board\n     * @return address of the smart contract of the board\n    */\n    function getBoardContractAddress(uint boardId) public view returns(address) {\n        require(boardId < boardNumber, \"The board doesn't exist\");\n        return boards[boardId].boardContract;\n    }\n\n    /**\n     * @notice Get the number of pawns placed on a board\n     * @param boardId id of the board\n     * @return number of pawns placed on a board\n    */\n    function getBoardPawnNumber(uint boardId) public view returns(uint8) {\n        require(boardId < boardNumber, \"The board doesn't exist\");\n\n        return boards[boardId].pawnNumber;\n    }\n\n    /**\n     * @notice Get pawn smart contract of a specific pawn in the pawn set of the board\n     * @param boardId id of the board\n     * @param pawnIndex index of the pawn in the pawn set\n     * @return address of the pawn smart contract\n    */\n    function getBoardPawnContract(uint boardId, uint8 pawnIndex) public view returns(address) {\n        require(boardId < boardNumber, \"The board doesn't exist\");\n\n        // Get the pawn set\n        PawnSet pawnSet = PawnSet(boards[boardId].pawnSet);\n\n        return pawnSet.getPawn(pawnIndex);\n    }\n\n    /**\n     * @notice Get the initial state of a board\n     * @param boardId id of the board\n     * @return state the initial state of the board\n    */\n    function getInitialState(uint boardId) public view returns(uint8[121] memory state) {\n        require(boardId < boardNumber, \"The board doesn't exist\");\n\n        // Pawn number\n        state[0] = boards[boardId].pawnNumber;\n\n        for(uint8 i = 0; i<boards[boardId].pawnNumber; i++) {\n             // Pawn type\n            state[1+i] = boards[boardId].pawnPosition[i].pawnIndex+1;\n            // Pawn x position\n            state[41+i] = boards[boardId].pawnPosition[i].x;\n            // Pawn y position\n            state[81+i] = boards[boardId].pawnPosition[i].y;\n        }\n\n        return state;\n    }\n\n    ///////////////////////////////////////////////////////////////\n    /// Game information\n\n    /**\n     * @notice Get the number of game occurences of a board\n     * @param boardId id of the board\n     * @return the number of game occurences of the board\n    */\n    function getGameNumber(uint boardId) public view returns(uint) {\n        require(boardId < boardNumber, \"The board doesn't exist\");\n        return boards[boardId].gameCount;\n    }\n\n    /**\n     * @notice Check if a player is currently waiting to play a game on a board\n     * @param boardId id of the board\n     * @return isWaiting true if a player is currently waiting\n     * @return waitingPlayer address of this player\n    */\n    function isWaitingPlayer(uint boardId) public view returns(bool isWaiting, address waitingPlayer) {\n        require(boardId < boardNumber, \"The board doesn't exist\");\n\n        isWaiting = true;\n        if (boards[boardId].waitingPlayer == address(0)) {\n            isWaiting = false;\n        }\n        return (isWaiting, boards[boardId].waitingPlayer);\n    }\n\n    /**\n     * @notice Check if a specifc game of a board is finished\n     * @param boardId id of the board\n     * @param gameId id of the game\n     * @return true if the game has been finished, revert if the game doesn't exist\n    */\n    function isGameOver(uint boardId, uint gameId) public view returns(bool) {\n        require(boardId < boardNumber, \"The board doesn't exist\");\n        require(gameId < boards[boardId].gameCount, \"The game doesn't exist\");\n\n        return boards[boardId].games[gameId].over;\n    }\n\n    /**\n     * @notice Get the address of a player in the game\n     * @param boardId id of the board\n     * @param gameId id of the game\n     * @param turnNumber the number of the current turn in the game, even number means player A, odd number means player B\n     * @return addres of the player\n    */\n    function getGamePlayerAddress(uint boardId, uint gameId, uint turnNumber) public view returns(address) {\n        require(boardId < boardNumber, \"The board doesn't exist\");\n        require(gameId < boards[boardId].gameCount, \"The game doesn't exist\");\n\n        address playerAddress;\n\n        // Every even turn are played by player A while every odd turn are played by player B\n        if (turnNumber % 2 == 0) {\n            playerAddress = boards[boardId].games[gameId].playerA;\n        } else {\n            playerAddress = boards[boardId].games[gameId].playerB;\n        }\n\n        return playerAddress;\n    }\n\n    /**\n     * @notice Check from the player address, if it's player A or B\n     * @param boardId id of the board\n     * @param gameId id of the game\n     * @param playerAddress address of the player\n     * @return 0 if it's player A, 1 if it's player B, -1 if this address is not part of the game\n    */\n    function getGamePlayerIndex(uint boardId, uint gameId, address playerAddress) public view returns(int) {\n        require(boardId < boardNumber, \"The board doesn't exist\");\n        require(gameId < boards[boardId].gameCount, \"The game doesn't exist\");\n\n        if (playerAddress == boards[boardId].games[gameId].playerA) {\n            return 0;\n        } else if (playerAddress == boards[boardId].games[gameId].playerB) {\n            return 1;\n        }\n\n        return -1;\n    }\n}\n",
  "sourcePath": "/Users/lucas/Desktop/ethboards/contracts/BoardHandler.sol",
  "compiler": {
    "name": "solc",
    "version": "0.6.11+commit.5ef660b1.Emscripten.clang"
  },
  "schemaVersion": "3.2.2",
  "updatedAt": "2020-08-01T13:32:00.819Z",
  "networkType": "ethereum",
  "devdoc": {
    "events": {
      "BoardCreated(address,uint256,string)": {
        "params": {
          "boardId": "The id of the board",
          "creator": "The creator of the board",
          "name": "Name of the board"
        }
      },
      "GameFinished(address,address,address,uint256,uint256)": {
        "params": {
          "boardId": "The id of the board",
          "gameId": "The id of the game",
          "playerA": "The player A of the game",
          "playerB": "The player B of the game",
          "winner": "The winner of the game"
        }
      },
      "GameStarted(address,address,uint256,uint256)": {
        "params": {
          "boardId": "The id of the board",
          "gameId": "The id of the game",
          "playerA": "The player A of the game",
          "playerB": "The player B of the game"
        }
      }
    },
    "kind": "dev",
    "methods": {
      "createBoard(string,address,address,address,uint8[40],uint8[40],uint8[40],uint8)": {
        "params": {
          "boardContract": "address of the smart contract that represents the board",
          "name": "name of the board",
          "pawnIndex": "array that represents the pawn index from the set of the pawns to add",
          "pawnNb": "number of pawn to add",
          "pawnSetAddress": "the address of the set of pawn to use for the board",
          "x": "array that represents the x coordinates where to add the pawns",
          "y": "array that represents the y coordinates where to add the pawns"
        }
      },
      "finishGame(uint256,uint256,uint8)": {
        "params": {
          "boardId": "id of the board",
          "gameId": "id of the game",
          "winner": "player that won the game (0 or 1)"
        }
      },
      "getBoardContractAddress(uint256)": {
        "params": {
          "boardId": "id of the board"
        },
        "returns": {
          "_0": "address of the smart contract of the board"
        }
      },
      "getBoardNumber()": {
        "returns": {
          "_0": "number of boards"
        }
      },
      "getBoardPawnContract(uint256,uint8)": {
        "params": {
          "boardId": "id of the board",
          "pawnIndex": "index of the pawn in the pawn set"
        },
        "returns": {
          "_0": "address of the pawn smart contract"
        }
      },
      "getBoardPawnNumber(uint256)": {
        "params": {
          "boardId": "id of the board"
        },
        "returns": {
          "_0": "number of pawns placed on a board"
        }
      },
      "getGameNumber(uint256)": {
        "params": {
          "boardId": "id of the board"
        },
        "returns": {
          "_0": "the number of game occurences of the board"
        }
      },
      "getGamePlayerAddress(uint256,uint256,uint256)": {
        "params": {
          "boardId": "id of the board",
          "gameId": "id of the game",
          "turnNumber": "the number of the current turn in the game, even number means player A, odd number means player B"
        },
        "returns": {
          "_0": "addres of the player"
        }
      },
      "getGamePlayerIndex(uint256,uint256,address)": {
        "params": {
          "boardId": "id of the board",
          "gameId": "id of the game",
          "playerAddress": "address of the player"
        },
        "returns": {
          "_0": "0 if it's player A, 1 if it's player B, -1 if this address is not part of the game"
        }
      },
      "getInitialState(uint256)": {
        "params": {
          "boardId": "id of the board"
        },
        "returns": {
          "state": "the initial state of the board"
        }
      },
      "giveUp(uint256,uint256)": {
        "params": {
          "boardId": "id of the board",
          "gameId": "id of the game"
        }
      },
      "isGameOver(uint256,uint256)": {
        "params": {
          "boardId": "id of the board",
          "gameId": "id of the game"
        },
        "returns": {
          "_0": "true if the game has been finished, revert if the game doesn't exist"
        }
      },
      "isWaitingPlayer(uint256)": {
        "params": {
          "boardId": "id of the board"
        },
        "returns": {
          "isWaiting": "true if a player is currently waiting",
          "waitingPlayer": "address of this player"
        }
      },
      "joinGame(uint256)": {
        "params": {
          "boardId": "id of the board"
        }
      }
    },
    "title": "Board Handler",
    "version": 1
  },
  "userdoc": {
    "events": {
      "BoardCreated(address,uint256,string)": {
        "notice": "Emitted when a new board is created"
      },
      "GameFinished(address,address,address,uint256,uint256)": {
        "notice": "Emitted when a new game is finished"
      },
      "GameStarted(address,address,uint256,uint256)": {
        "notice": "Emitted when a new game is started"
      }
    },
    "kind": "user",
    "methods": {
      "createBoard(string,address,address,address,uint8[40],uint8[40],uint8[40],uint8)": {
        "notice": "Create a new board"
      },
      "finishGame(uint256,uint256,uint8)": {
        "notice": "Finish a game, this function can only be called by the ethBoards contract, this contract ensure the winner is legit"
      },
      "getBoardContractAddress(uint256)": {
        "notice": "Get the address of the smart contract of the board"
      },
      "getBoardNumber()": {
        "notice": "Get the number of boards"
      },
      "getBoardPawnContract(uint256,uint8)": {
        "notice": "Get pawn smart contract of a specific pawn in the pawn set of the board"
      },
      "getBoardPawnNumber(uint256)": {
        "notice": "Get the number of pawns placed on a board"
      },
      "getGameNumber(uint256)": {
        "notice": "Get the number of game occurences of a board"
      },
      "getGamePlayerAddress(uint256,uint256,uint256)": {
        "notice": "Get the address of a player in the game"
      },
      "getGamePlayerIndex(uint256,uint256,address)": {
        "notice": "Check from the player address, if it's player A or B"
      },
      "getInitialState(uint256)": {
        "notice": "Get the initial state of a board"
      },
      "giveUp(uint256,uint256)": {
        "notice": "Give up a game, can be called anytime by one of the player of the game"
      },
      "isGameOver(uint256,uint256)": {
        "notice": "Check if a specifc game of a board is finished"
      },
      "isWaitingPlayer(uint256)": {
        "notice": "Check if a player is currently waiting to play a game on a board"
      },
      "joinGame(uint256)": {
        "notice": "Join a new game on a board. When a player joins a game, he's in the waiting room for the game, if someone is present in the waiting room, the game is started against this player"
      }
    },
    "notice": "The storage contract, store the informations about boards and games",
    "version": 1
  }
}