{
  "contractName": "ChessBoard",
  "abi": [
    {
      "inputs": [],
      "name": "getMetadata",
      "outputs": [
        {
          "internalType": "string",
          "name": "",
          "type": "string"
        }
      ],
      "stateMutability": "view",
      "type": "function",
      "constant": true
    },
    {
      "inputs": [
        {
          "internalType": "uint8",
          "name": "player",
          "type": "uint8"
        },
        {
          "internalType": "uint8[121]",
          "name": "state",
          "type": "uint8[121]"
        }
      ],
      "name": "checkVictory",
      "outputs": [
        {
          "internalType": "bool",
          "name": "",
          "type": "bool"
        }
      ],
      "stateMutability": "view",
      "type": "function",
      "constant": true
    }
  ],
  "bytecode": "0x608060405234801561001057600080fd5b506103aa806100206000396000f3fe608060405234801561001057600080fd5b50600436106100365760003560e01c8063110f25011461003b5780637a5b4f5914610090575b600080fd5b6100766004803603610f4081101561005257600080fd5b81019080803560ff16906020019092919080610f2001909192919290505050610113565b604051808215151515815260200191505060405180910390f35b610098610320565b6040518080602001828103825283818151815260200191508051906020019080838360005b838110156100d85780820151818401526020810190506100bd565b50505050905090810190601f1680156101055780820380516001836020036101000a031916815260200191505b509250505060405180910390f35b6000808360ff16141561021f57816079806020026040519081016040528092919082607960200280828437600081840152601f19601f82011690508083019250505050505073__StateController_______________________63ad17c489909160016040518363ffffffff1660e01b81526004018083607960200280838360005b838110156101b0578082015181840152602081019050610195565b505050509050018260ff1681526020019250505060206040518083038186803b1580156101dc57600080fd5b505af41580156101f0573d6000803e3d6000fd5b505050506040513d602081101561020657600080fd5b810190808051906020019092919050505015905061031a565b816079806020026040519081016040528092919082607960200280828437600081840152601f19601f82011690508083019250505050505073__StateController_______________________63ad17c489909160006040518363ffffffff1660e01b81526004018083607960200280838360005b838110156102af578082015181840152602081019050610294565b505050509050018260ff1681526020019250505060206040518083038186803b1580156102db57600080fd5b505af41580156102ef573d6000803e3d6000fd5b505050506040513d602081101561030557600080fd5b81019080805190602001909291905050501590505b92915050565b60606040518060600160405280603481526020016103416034913990509056fe2f697066732f516d5979344347764a686f75416769346d63654b417965634d7a337471696d56685a556255377474343354384c58a26469706673582212205bfe917d6fe14ac87cf6b29d505ce9f9f943aa1061e97da00ac74ab67e64dd2564736f6c634300060b0033",
  "immutableReferences": {},
  "source": "pragma solidity 0.6.11;\n\nimport \"../Board.sol\";\nimport \"../StateController.sol\";\n\ncontract ChessBoard is Board {\n    using StateController for uint8[121];\n\n    function getMetadata() external override view returns (string memory) {\n        return '/ipfs/QmYy4CGvJhouAgi4mceKAyecMz3tqimVhZUbU7tt43T8LX';\n    }\n\n    // This is no real chess, we check if the king has been killed to determine the victory\n    function checkVictory(uint8 player, uint8[121] calldata state) external override view returns(bool) {\n        if (player == 0) {\n            // The player is A therefore the black king must be kill\n            return !state.isAlive(1);\n        } else {\n            // White king must be killed\n            return !state.isAlive(0);\n        }\n    }\n}",
  "sourcePath": "/Users/lucas/Desktop/ethboards/contracts/Board/ChessBoard.sol",
  "compiler": {
    "name": "solc",
    "version": "0.6.11+commit.5ef660b1.Emscripten.clang"
  },
  "schemaVersion": "3.2.2",
  "updatedAt": "2020-07-29T11:58:11.283Z",
  "networkType": "ethereum",
  "devdoc": {
    "kind": "dev",
    "methods": {
      "checkVictory(uint8,uint8[121])": {
        "params": {
          "player": "the player we want to check as victorious",
          "state": "the state of the game"
        },
        "returns": {
          "_0": "true if the player is victorious, false otherwise"
        }
      },
      "getMetadata()": {
        "returns": {
          "_0": "the string a allows to retrieve metadata (e.g IPFS hash)"
        }
      }
    },
    "version": 1
  },
  "userdoc": {
    "kind": "user",
    "methods": {
      "checkVictory(uint8,uint8[121])": {
        "notice": "Check if the state of a game of the board is victorious for a player"
      },
      "getMetadata()": {
        "notice": "Allow to retrieve the metadata of the board"
      }
    },
    "version": 1
  }
}