{
  "contractName": "ChessBoard",
  "abi": [
    {
      "inputs": [
        {
          "internalType": "uint8",
          "name": "player",
          "type": "uint8"
        },
        {
          "internalType": "uint8[121]",
          "name": "state",
          "type": "uint8[121]"
        }
      ],
      "name": "checkVictory",
      "outputs": [
        {
          "internalType": "bool",
          "name": "",
          "type": "bool"
        }
      ],
      "stateMutability": "view",
      "type": "function",
      "constant": true
    }
  ],
  "bytecode": "0x608060405234801561001057600080fd5b506102c8806100206000396000f3fe608060405234801561001057600080fd5b506004361061002b5760003560e01c8063110f250114610030575b600080fd5b61006b6004803603610f4081101561004757600080fd5b81019080803560ff16906020019092919080610f2001909192919290505050610085565b604051808215151515815260200191505060405180910390f35b6000808360ff16141561019157816079806020026040519081016040528092919082607960200280828437600081840152601f19601f82011690508083019250505050505073__StateController_______________________63ad17c489909160016040518363ffffffff1660e01b81526004018083607960200280838360005b83811015610122578082015181840152602081019050610107565b505050509050018260ff1681526020019250505060206040518083038186803b15801561014e57600080fd5b505af4158015610162573d6000803e3d6000fd5b505050506040513d602081101561017857600080fd5b810190808051906020019092919050505015905061028c565b816079806020026040519081016040528092919082607960200280828437600081840152601f19601f82011690508083019250505050505073__StateController_______________________63ad17c489909160006040518363ffffffff1660e01b81526004018083607960200280838360005b83811015610221578082015181840152602081019050610206565b505050509050018260ff1681526020019250505060206040518083038186803b15801561024d57600080fd5b505af4158015610261573d6000803e3d6000fd5b505050506040513d602081101561027757600080fd5b81019080805190602001909291905050501590505b9291505056fea2646970667358221220e10df1dbdd233bb80549da7ed119b3fae18f8d08d6e87ff44e4f8c1550d1e25164736f6c634300060b0033",
  "immutableReferences": {},
  "source": "pragma solidity 0.6.11;\n\nimport \"../Board.sol\";\nimport \"../StateController.sol\";\n\ncontract ChessBoard is Board {\n    using StateController for uint8[121];\n\n    // This is no real chess, we check if the king has been killed to determine the victory\n    function checkVictory(uint8 player, uint8[121] calldata state) external override view returns(bool) {\n        if (player == 0) {\n            // The player is A therefore the black king must be kill\n            return !state.isAlive(1);\n        } else {\n            // White king must be killed\n            return !state.isAlive(0);\n        }\n    }\n}",
  "sourcePath": "/Users/lucas/Desktop/ethboards/contracts/Board/ChessBoard.sol",
  "compiler": {
    "name": "solc",
    "version": "0.6.11+commit.5ef660b1.Emscripten.clang"
  },
  "schemaVersion": "3.2.2",
  "updatedAt": "2020-07-20T12:46:03.416Z",
  "networkType": "ethereum",
  "devdoc": {
    "kind": "dev",
    "methods": {
      "checkVictory(uint8,uint8[121])": {
        "params": {
          "player": "the player we want to check as victorious",
          "state": "the state of the game"
        },
        "returns": {
          "_0": "true if the player is victorious, false otherwise"
        }
      }
    },
    "version": 1
  },
  "userdoc": {
    "kind": "user",
    "methods": {
      "checkVictory(uint8,uint8[121])": {
        "notice": "Check if the state of a game of the board is victorious for a player"
      }
    },
    "version": 1
  }
}