{
  "contractName": "EthBoards",
  "abi": [
    {
      "constant": true,
      "inputs": [
        {
          "internalType": "address",
          "name": "boardHandlerAddress",
          "type": "address"
        },
        {
          "internalType": "uint256",
          "name": "boardId",
          "type": "uint256"
        },
        {
          "internalType": "uint8",
          "name": "player",
          "type": "uint8"
        },
        {
          "internalType": "uint8[4]",
          "name": "move",
          "type": "uint8[4]"
        },
        {
          "internalType": "uint8[121]",
          "name": "state",
          "type": "uint8[121]"
        }
      ],
      "name": "simulate",
      "outputs": [
        {
          "internalType": "uint8[121]",
          "name": "",
          "type": "uint8[121]"
        }
      ],
      "payable": false,
      "stateMutability": "view",
      "type": "function"
    },
    {
      "constant": true,
      "inputs": [
        {
          "internalType": "uint8[121]",
          "name": "state",
          "type": "uint8[121]"
        },
        {
          "internalType": "uint256[3]",
          "name": "nonce",
          "type": "uint256[3]"
        },
        {
          "internalType": "uint8[4]",
          "name": "move",
          "type": "uint8[4]"
        },
        {
          "internalType": "bytes32",
          "name": "r",
          "type": "bytes32"
        },
        {
          "internalType": "bytes32",
          "name": "s",
          "type": "bytes32"
        },
        {
          "internalType": "uint8",
          "name": "v",
          "type": "uint8"
        }
      ],
      "name": "getTurnSignatureAddress",
      "outputs": [
        {
          "internalType": "address",
          "name": "recovered",
          "type": "address"
        }
      ],
      "payable": false,
      "stateMutability": "pure",
      "type": "function"
    },
    {
      "constant": false,
      "inputs": [
        {
          "internalType": "address",
          "name": "boardHandlerAddress",
          "type": "address"
        },
        {
          "internalType": "uint256",
          "name": "boardId",
          "type": "uint256"
        },
        {
          "internalType": "uint256",
          "name": "gameId",
          "type": "uint256"
        },
        {
          "internalType": "uint256",
          "name": "initialTurnNumber",
          "type": "uint256"
        },
        {
          "internalType": "uint8[4][2]",
          "name": "move",
          "type": "uint8[4][2]"
        },
        {
          "internalType": "bytes32[2]",
          "name": "r",
          "type": "bytes32[2]"
        },
        {
          "internalType": "bytes32[2]",
          "name": "s",
          "type": "bytes32[2]"
        },
        {
          "internalType": "uint8[2]",
          "name": "v",
          "type": "uint8[2]"
        },
        {
          "internalType": "uint8[121]",
          "name": "inputState",
          "type": "uint8[121]"
        }
      ],
      "name": "claimVictory",
      "outputs": [],
      "payable": false,
      "stateMutability": "nonpayable",
      "type": "function"
    }
  ],
  "bytecode": "0x608060405234801561001057600080fd5b506113a9806100206000396000f3fe608060405234801561001057600080fd5b50600436106100415760003560e01c806365a91aca14610046578063e3e490d414610228578063ead5e46314610343575b600080fd5b610226600480360361116081101561005d57600080fd5b81019080803573ffffffffffffffffffffffffffffffffffffffff169060200190929190803590602001909291908035906020019092919080359060200190929190806101000190600280602002604051908101604052809291906000905b82821015610110578382608002016004806020026040519081016040528092919082600460200280828437600081840152601f19601f820116905080830192505050505050815260200190600101906100bc565b50505050919291929080604001906002806020026040519081016040528092919082600260200280828437600081840152601f19601f820116905080830192505050505050919291929080604001906002806020026040519081016040528092919082600260200280828437600081840152601f19601f820116905080830192505050505050919291929080604001906002806020026040519081016040528092919082600260200280828437600081840152601f19601f820116905080830192505050505050919291929080610f2001906079806020026040519081016040528092919082607960200280828437600081840152601f19601f820116905080830192505050505050919291929050505061048d565b005b610305600480360361100081101561023f57600080fd5b81019080803573ffffffffffffffffffffffffffffffffffffffff16906020019092919080359060200190929190803560ff16906020019092919080608001906004806020026040519081016040528092919082600460200280828437600081840152601f19601f820116905080830192505050505050919291929080610f2001906079806020026040519081016040528092919082607960200280828437600081840152601f19601f8201169050808301925050505050509192919290505050610be7565b6040518082607960200280838360005b83811015610330578082015181840152602081019050610315565b5050505090500191505060405180910390f35b61044b600480360361106081101561035a57600080fd5b8101908080610f2001906079806020026040519081016040528092919082607960200280828437600081840152601f19601f820116905080830192505050505050919291929080606001906003806020026040519081016040528092919082600360200280828437600081840152601f19601f820116905080830192505050505050919291929080608001906004806020026040519081016040528092919082600460200280828437600081840152601f19601f82011690508083019250505050505091929192908035906020019092919080359060200190929190803560ff169060200190929190505050611014565b604051808273ffffffffffffffffffffffffffffffffffffffff1673ffffffffffffffffffffffffffffffffffffffff16815260200191505060405180910390f35b60008990508073ffffffffffffffffffffffffffffffffffffffff166316796dee6040518163ffffffff1660e01b815260040160206040518083038186803b1580156104d857600080fd5b505afa1580156104ec573d6000803e3d6000fd5b505050506040513d602081101561050257600080fd5b81019080805190602001909291905050508910610587576040517f08c379a00000000000000000000000000000000000000000000000000000000081526004018080602001828103825260178152602001807f54686520626f61726420646f65736e277420657869737400000000000000000081525060200191505060405180910390fd5b8073ffffffffffffffffffffffffffffffffffffffff1663fe2be3238a8a6040518363ffffffff1660e01b8152600401808381526020018281526020019250505060206040518083038186803b1580156105e057600080fd5b505afa1580156105f4573d6000803e3d6000fd5b505050506040513d602081101561060a57600080fd5b81019080805190602001909291905050501561068e576040517f08c379a00000000000000000000000000000000000000000000000000000000081526004018080602001828103825260188152602001807f5468652067616d6520697320616c7265616479206f766572000000000000000081525060200191505060405180910390fd5b6106966112a1565b600088141561073a578173ffffffffffffffffffffffffffffffffffffffff1663140604cc8b6040518263ffffffff1660e01b815260040180828152602001915050610f206040518083038186803b1580156106f157600080fd5b505afa158015610705573d6000803e3d6000fd5b505050506040513d601f19601f82011682018060405250610f2081101561072b57600080fd5b8101908091905050905061073e565b8290505b600088905061074b6112c4565b8b8160006003811061075957fe5b6020020181815250508a8160016003811061077057fe5b602002018181525050818160026003811061078757fe5b60200201818152505060008090505b60028160ff161015610977578473ffffffffffffffffffffffffffffffffffffffff166372e57afd8e8e866040518463ffffffff1660e01b815260040180848152602001838152602001828152602001935050505060206040518083038186803b15801561080357600080fd5b505afa158015610817573d6000803e3d6000fd5b505050506040513d602081101561082d57600080fd5b810190808051906020019092919050505073ffffffffffffffffffffffffffffffffffffffff166108ae85848d8560ff166002811061086857fe5b60200201518d8660ff166002811061087c57fe5b60200201518d8760ff166002811061089057fe5b60200201518d8860ff16600281106108a457fe5b6020020151611014565b73ffffffffffffffffffffffffffffffffffffffff161461091a576040517f08c379a000000000000000000000000000000000000000000000000000000000815260040180806020018281038252602681526020018061134f6026913960400191505060405180910390fd5b6109448e8e6002868161092957fe5b068d8560ff166002811061093957fe5b602002015188610be7565b935060018260026003811061095557fe5b6020020181815101915081815250506001830192508080600101915050610796565b5060018203915060008473ffffffffffffffffffffffffffffffffffffffff1663f881add28e6040518263ffffffff1660e01b81526004018082815260200191505060206040518083038186803b1580156109d157600080fd5b505afa1580156109e5573d6000803e3d6000fd5b505050506040513d60208110156109fb57600080fd5b810190808051906020019092919050505090508073ffffffffffffffffffffffffffffffffffffffff1663110f250160028581610a3457fe5b06866040518363ffffffff1660e01b8152600401808360ff1660ff16815260200182607960200280838360005b83811015610a7c578082015181840152602081019050610a61565b505050509050019250505060206040518083038186803b158015610a9f57600080fd5b505afa158015610ab3573d6000803e3d6000fd5b505050506040513d6020811015610ac957600080fd5b8101908080519060200190929190505050610b4c576040517f08c379a000000000000000000000000000000000000000000000000000000000815260040180806020018281038252601e8152602001807f54686520706c61796572206861736e277420776f6e207468652067616d65000081525060200191505060405180910390fd5b8473ffffffffffffffffffffffffffffffffffffffff16634d79b7588e8e60028781610b7457fe5b066040518463ffffffff1660e01b8152600401808481526020018381526020018260ff1660ff1681526020019350505050600060405180830381600087803b158015610bbf57600080fd5b505af1158015610bd3573d6000803e3d6000fd5b505050505050505050505050505050505050565b610bef6112a1565b60028460ff1610610c4b576040517f08c379a000000000000000000000000000000000000000000000000000000000815260040180806020018281038252602381526020018061132c6023913960400191505060405180910390fd5b60008690508073ffffffffffffffffffffffffffffffffffffffff166316796dee6040518163ffffffff1660e01b815260040160206040518083038186803b158015610c9657600080fd5b505afa158015610caa573d6000803e3d6000fd5b505050506040513d6020811015610cc057600080fd5b81019080805190602001909291905050508610610d45576040517f08c379a00000000000000000000000000000000000000000000000000000000081526004018080602001828103825260178152602001807f54686520626f61726420646f65736e277420657869737400000000000000000081525060200191505060405180910390fd5b60008373__StateController_______________________63d7b600b4909187600060048110610d7157fe5b60200201516040518363ffffffff1660e01b81526004018083607960200280838360005b83811015610db0578082015181840152602081019050610d95565b505050509050018260ff1660ff1681526020019250505060206040518083038186803b158015610ddf57600080fd5b505af4158015610df3573d6000803e3d6000fd5b505050506040513d6020811015610e0957600080fd5b8101908080519060200190929190505050905060008273ffffffffffffffffffffffffffffffffffffffff166356a112c789846040518363ffffffff1660e01b8152600401808381526020018260ff1660ff1681526020019250505060206040518083038186803b158015610e7d57600080fd5b505afa158015610e91573d6000803e3d6000fd5b505050506040513d6020811015610ea757600080fd5b8101908080519060200190929190505050905060008190508073ffffffffffffffffffffffffffffffffffffffff1663374f2ea18989600060048110610ee957fe5b60200201518a600160048110610efb57fe5b60200201518b600260048110610f0d57fe5b60200201518c600360048110610f1f57fe5b60200201518c6040518763ffffffff1660e01b8152600401808760ff1660ff1681526020018660ff1660ff1681526020018560ff1660ff1681526020018460ff1660ff1681526020018360ff1660ff16815260200182607960200280838360005b83811015610f9b578082015181840152602081019050610f80565b505050509050019650505050505050610f206040518083038186803b158015610fc357600080fd5b505afa158015610fd7573d6000803e3d6000fd5b505050506040513d601f19601f82011682018060405250610f20811015610ffd57600080fd5b810190809190505094505050505095945050505050565b600061101e6112e6565b60008090505b60798160ff16101561106c57888160ff166079811061103f57fe5b602002015160ff16828260ff166079811061105657fe5b6020020181815250508080600101915050611024565b50611075611309565b60008090505b60048160ff1610156110c357878160ff166004811061109657fe5b602002015160ff16828260ff16600481106110ad57fe5b602002018181525050808060010191505061107b565b5060606040518060400160405280601c81526020017f19457468657265756d205369676e6564204d6573736167653a0a33320000000081525090506000818a84866040516020018084600360200280838360005b83811015611132578082015181840152602081019050611117565b5050505090500183600460200280838360005b83811015611160578082015181840152602081019050611145565b5050505090500182607960200280838360005b8381101561118e578082015181840152602081019050611173565b505050509050019350505050604051602081830303815290604052805190602001206040516020018083805190602001908083835b602083106111e657805182526020820191506020810190506020830392506111c3565b6001836020036101000a03801982511681845116808217855250505050505090500182815260200192505050604051602081830303815290604052805190602001209050600181878a8a60405160008152602001604052604051808581526020018460ff1660ff1681526020018381526020018281526020019450505050506020604051602081039080840390855afa158015611287573d6000803e3d6000fd5b505050602060405103519450505050509695505050505050565b60405180610f200160405280607990602082028038833980820191505090505090565b6040518060600160405280600390602082028038833980820191505090505090565b60405180610f200160405280607990602082028038833980820191505090505090565b604051806080016040528060049060208202803883398082019150509050509056fe506c61796572206d75737420626520706c617965722041206f7220706c617965722042546865207369676e6174757265206f6620746865207475726e20697320696e636f7272656374a265627a7a72315820e9d05de7ae60406d828f7b8031b662df4c21bac803d5afe871e1dbca97d7e9f164736f6c63430005100032",
  "source": "pragma solidity 0.5.16;\n\nimport \"./Board.sol\";\nimport \"./BoardHandler.sol\";\nimport \"./Pawn.sol\";\nimport \"./StateController.sol\";\n\ncontract EthBoards {\n    using StateController for uint8[121];\n\n    // Simulate the turn from the board, user's move and input state\n    function simulate(\n        address boardHandlerAddress,\n        uint boardId,\n        uint8 player,\n        uint8[4] memory move,\n        uint8[121] memory state\n    ) public view returns (uint8[121] memory) {\n        require(player < 2, \"Player must be player A or player B\");\n\n        // Get the board\n        BoardHandler boardHandler = BoardHandler(boardHandlerAddress);\n        require(boardId < boardHandler.getBoardNumber(), \"The board doesn't exist\");\n\n        // Get the address of the pawn\n        uint8 pawnType = state.getPawnType(move[0]);\n        address pawnAddress = boardHandler.getBoardPawnTypeContract(boardId, pawnType);\n        Pawn pawn = Pawn(pawnAddress);\n\n        // Perform the move of the pawn\n        return pawn.performMove(player, move[0], move[1], move[2], move[3], state);\n    }\n\n    // Get from a turn set (nonce, move, input state) the address of the signer\n    function getTurnSignatureAddress(\n      uint8[121] memory state,\n      uint[3] memory nonce,\n      uint8[4] memory move,\n      bytes32 r,\n      bytes32 s,\n      uint8 v\n      ) public pure returns (address recovered) {\n\n        // Convert to uint for keccak256 function\n        uint[121] memory inStateUint;\n        for(uint8 i = 0; i < 121; i++) {\n          inStateUint[i] = uint(state[i]);\n        }\n        uint[4] memory moveUint;\n        for(uint8 i = 0; i < 4; i++) {\n          moveUint[i] = uint(move[i]);\n        }\n\n        // Calculate the hash of the move\n        bytes memory prefix = \"\\x19Ethereum Signed Message:\\n32\";\n        bytes32 message = keccak256(abi.encodePacked(prefix, keccak256(abi.encodePacked(nonce, moveUint, inStateUint))));\n\n        return ecrecover(message, v, r, s);\n    }\n\n    // Test the victory of the board and call the terminate the game if victory\n    function claimVictory(\n        address boardHandlerAddress,\n        uint boardId,\n        uint gameId,\n        uint initialTurnNumber,\n        uint8[4][2] memory move,\n        bytes32[2] memory r,\n        bytes32[2] memory s,\n        uint8[2] memory v,\n        uint8[121] memory inputState\n    ) public {\n        // Get the board\n        BoardHandler boardHandler = BoardHandler(boardHandlerAddress);\n        require(boardId < boardHandler.getBoardNumber(), \"The board doesn't exist\");\n\n        // Check the game exist and is not finished\n        require(!boardHandler.isGameOver(boardId, gameId), \"The game is already over\");\n\n        uint8[121] memory currentState;\n\n        // If we begin from the first turn therefore the input state is the initial state from the board\n        if (initialTurnNumber == 0) {\n            currentState = boardHandler.getInitialState(boardId);\n        } else {\n            currentState = inputState;\n        }\n\n        // The nonce is a triplet containing: [boardId, gameId, turn]\n        uint turnNumber = initialTurnNumber;\n        uint[3] memory nonce;\n        nonce[0] = boardId;\n        nonce[1] = gameId;\n        nonce[2] = turnNumber;\n\n        // Check each turn has been signed by the correct player\n        // And retrieve the final state\n        for (uint8 i = 0; i < 2; i++) {\n            require(getTurnSignatureAddress(\n                    currentState,\n                    nonce,\n                    move[i],\n                    r[i],\n                    s[i],\n                    v[i]\n                ) == boardHandler.getGamePlayerAddress(boardId, gameId, turnNumber), \"The signature of the turn is incorrect\"\n            );\n\n            // Simulate the player turn\n            currentState = simulate(\n                boardHandlerAddress,\n                boardId,\n                uint8(turnNumber % 2),  // Even turn -> player A/0, odd turn -> player B/1\n                move[i],\n                currentState\n            );\n\n            // Increment the turn number for the second turn\n            nonce[2] += 1;  // TODO: Use SafeMath\n            turnNumber += 1;\n        }\n        turnNumber -= 1;\n\n        // Check if the final state is victoreious\n        Board board = Board(boardHandler.getBoardContractAddress(boardId));\n        require(board.checkVictory(uint8(turnNumber%2), currentState), \"The player hasn't won the game\");\n\n        // If the player won, terminate the game\n        boardHandler.finishGame(boardId, gameId, uint8(turnNumber%2));\n    }\n}\n",
  "sourcePath": "/Users/lucas/Desktop/ethboards/contracts/EthBoards.sol",
  "compiler": {
    "name": "solc",
    "version": "0.5.16+commit.9c3226ce.Emscripten.clang"
  },
  "schemaVersion": "3.2.0",
  "updatedAt": "2020-07-02T11:59:55.437Z",
  "networkType": "ethereum",
  "devdoc": {
    "methods": {}
  },
  "userdoc": {
    "methods": {}
  }
}