{
  "contractName": "EthBoards",
  "abi": [
    {
      "inputs": [
        {
          "internalType": "address",
          "name": "boardHandlerAddress",
          "type": "address"
        },
        {
          "internalType": "uint256",
          "name": "boardId",
          "type": "uint256"
        },
        {
          "internalType": "uint8",
          "name": "player",
          "type": "uint8"
        },
        {
          "internalType": "uint8[4]",
          "name": "move",
          "type": "uint8[4]"
        },
        {
          "internalType": "uint8[121]",
          "name": "state",
          "type": "uint8[121]"
        }
      ],
      "name": "simulate",
      "outputs": [
        {
          "internalType": "uint8[121]",
          "name": "",
          "type": "uint8[121]"
        }
      ],
      "stateMutability": "view",
      "type": "function",
      "constant": true
    },
    {
      "inputs": [
        {
          "internalType": "uint8[121]",
          "name": "state",
          "type": "uint8[121]"
        },
        {
          "internalType": "uint256[3]",
          "name": "nonce",
          "type": "uint256[3]"
        },
        {
          "internalType": "uint8[4]",
          "name": "move",
          "type": "uint8[4]"
        },
        {
          "internalType": "bytes32",
          "name": "r",
          "type": "bytes32"
        },
        {
          "internalType": "bytes32",
          "name": "s",
          "type": "bytes32"
        },
        {
          "internalType": "uint8",
          "name": "v",
          "type": "uint8"
        }
      ],
      "name": "getTurnSignatureAddress",
      "outputs": [
        {
          "internalType": "address",
          "name": "",
          "type": "address"
        }
      ],
      "stateMutability": "pure",
      "type": "function",
      "constant": true
    },
    {
      "inputs": [
        {
          "internalType": "address",
          "name": "boardHandlerAddress",
          "type": "address"
        },
        {
          "internalType": "uint256",
          "name": "boardId",
          "type": "uint256"
        },
        {
          "internalType": "uint256",
          "name": "gameId",
          "type": "uint256"
        },
        {
          "internalType": "uint256",
          "name": "turnNumber",
          "type": "uint256"
        },
        {
          "internalType": "uint8[4][2]",
          "name": "move",
          "type": "uint8[4][2]"
        },
        {
          "internalType": "bytes32[2]",
          "name": "r",
          "type": "bytes32[2]"
        },
        {
          "internalType": "bytes32[2]",
          "name": "s",
          "type": "bytes32[2]"
        },
        {
          "internalType": "uint8[2]",
          "name": "v",
          "type": "uint8[2]"
        },
        {
          "internalType": "uint8[121]",
          "name": "inputState",
          "type": "uint8[121]"
        }
      ],
      "name": "claimVictory",
      "outputs": [],
      "stateMutability": "nonpayable",
      "type": "function"
    },
    {
      "inputs": [
        {
          "internalType": "address",
          "name": "boardHandlerAddress",
          "type": "address"
        },
        {
          "internalType": "uint256",
          "name": "boardId",
          "type": "uint256"
        },
        {
          "internalType": "uint256",
          "name": "gameId",
          "type": "uint256"
        },
        {
          "internalType": "uint256",
          "name": "turnNumber",
          "type": "uint256"
        },
        {
          "internalType": "uint8[4][2]",
          "name": "move",
          "type": "uint8[4][2]"
        },
        {
          "internalType": "bytes32[2]",
          "name": "r",
          "type": "bytes32[2]"
        },
        {
          "internalType": "bytes32[2]",
          "name": "s",
          "type": "bytes32[2]"
        },
        {
          "internalType": "uint8[2]",
          "name": "v",
          "type": "uint8[2]"
        },
        {
          "internalType": "uint8[121]",
          "name": "inputState",
          "type": "uint8[121]"
        }
      ],
      "name": "startTimeout",
      "outputs": [],
      "stateMutability": "nonpayable",
      "type": "function"
    },
    {
      "inputs": [
        {
          "internalType": "address",
          "name": "boardHandlerAddress",
          "type": "address"
        },
        {
          "internalType": "uint256",
          "name": "boardId",
          "type": "uint256"
        },
        {
          "internalType": "uint256",
          "name": "gameId",
          "type": "uint256"
        },
        {
          "internalType": "uint256",
          "name": "turnNumber",
          "type": "uint256"
        },
        {
          "internalType": "uint8[4][2]",
          "name": "move",
          "type": "uint8[4][2]"
        },
        {
          "internalType": "bytes32[2]",
          "name": "r",
          "type": "bytes32[2]"
        },
        {
          "internalType": "bytes32[2]",
          "name": "s",
          "type": "bytes32[2]"
        },
        {
          "internalType": "uint8[2]",
          "name": "v",
          "type": "uint8[2]"
        },
        {
          "internalType": "uint8[121]",
          "name": "inputState",
          "type": "uint8[121]"
        }
      ],
      "name": "stopTimeout",
      "outputs": [],
      "stateMutability": "nonpayable",
      "type": "function"
    },
    {
      "inputs": [
        {
          "internalType": "address",
          "name": "boardHandlerAddress",
          "type": "address"
        },
        {
          "internalType": "uint256",
          "name": "boardId",
          "type": "uint256"
        },
        {
          "internalType": "uint256",
          "name": "gameId",
          "type": "uint256"
        }
      ],
      "name": "executeTimeout",
      "outputs": [],
      "stateMutability": "nonpayable",
      "type": "function"
    },
    {
      "inputs": [
        {
          "internalType": "address",
          "name": "boardHandlerAddress",
          "type": "address"
        },
        {
          "internalType": "uint256",
          "name": "boardId",
          "type": "uint256"
        },
        {
          "internalType": "uint256",
          "name": "gameId",
          "type": "uint256"
        }
      ],
      "name": "getTimeoutInfo",
      "outputs": [
        {
          "internalType": "bool",
          "name": "isPending",
          "type": "bool"
        },
        {
          "internalType": "uint256",
          "name": "timestamp",
          "type": "uint256"
        },
        {
          "internalType": "uint256",
          "name": "turnNumber",
          "type": "uint256"
        },
        {
          "internalType": "uint8[4]",
          "name": "move",
          "type": "uint8[4]"
        },
        {
          "internalType": "bytes32",
          "name": "r",
          "type": "bytes32"
        },
        {
          "internalType": "bytes32",
          "name": "s",
          "type": "bytes32"
        },
        {
          "internalType": "uint8",
          "name": "v",
          "type": "uint8"
        }
      ],
      "stateMutability": "view",
      "type": "function",
      "constant": true
    }
  ],
  "bytecode": "0x608060405234801561001057600080fd5b506126cb806100206000396000f3fe608060405234801561001057600080fd5b506004361061007d5760003560e01c8063d8c711ed1161005b578063d8c711ed1461049e578063e3e490d414610566578063ead5e46314610681578063ff217f9d146107cb5761007d565b80630c1d2f81146100825780631bf2ab741461026457806365a91aca146102bc575b600080fd5b610262600480360361116081101561009957600080fd5b81019080803573ffffffffffffffffffffffffffffffffffffffff169060200190929190803590602001909291908035906020019092919080359060200190929190806101000190600280602002604051908101604052809291906000905b8282101561014c578382608002016004806020026040519081016040528092919082600460200280828437600081840152601f19601f820116905080830192505050505050815260200190600101906100f8565b50505050919291929080604001906002806020026040519081016040528092919082600260200280828437600081840152601f19601f820116905080830192505050505050919291929080604001906002806020026040519081016040528092919082600260200280828437600081840152601f19601f820116905080830192505050505050919291929080604001906002806020026040519081016040528092919082600260200280828437600081840152601f19601f820116905080830192505050505050919291929080610f2001906079806020026040519081016040528092919082607960200280828437600081840152601f19601f82011690508083019250505050505091929192905050506109ad565b005b6102ba6004803603606081101561027a57600080fd5b81019080803573ffffffffffffffffffffffffffffffffffffffff1690602001909291908035906020019092919080359060200190929190505050610b43565b005b61049c60048036036111608110156102d357600080fd5b81019080803573ffffffffffffffffffffffffffffffffffffffff169060200190929190803590602001909291908035906020019092919080359060200190929190806101000190600280602002604051908101604052809291906000905b82821015610386578382608002016004806020026040519081016040528092919082600460200280828437600081840152601f19601f82011690508083019250505050505081526020019060010190610332565b50505050919291929080604001906002806020026040519081016040528092919082600260200280828437600081840152601f19601f820116905080830192505050505050919291929080604001906002806020026040519081016040528092919082600260200280828437600081840152601f19601f820116905080830192505050505050919291929080604001906002806020026040519081016040528092919082600260200280828437600081840152601f19601f820116905080830192505050505050919291929080610f2001906079806020026040519081016040528092919082607960200280828437600081840152601f19601f8201169050808301925050505050509192919290505050610f2e565b005b6104f4600480360360608110156104b457600080fd5b81019080803573ffffffffffffffffffffffffffffffffffffffff16906020019092919080359060200190929190803590602001909291905050506111bd565b604051808815151515815260200187815260200186815260200185600460200280838360005b8381101561053557808201518184015260208101905061051a565b505050509050018481526020018381526020018260ff1660ff16815260200197505050505050505060405180910390f35b610643600480360361100081101561057d57600080fd5b81019080803573ffffffffffffffffffffffffffffffffffffffff16906020019092919080359060200190929190803560ff16906020019092919080608001906004806020026040519081016040528092919082600460200280828437600081840152601f19601f820116905080830192505050505050919291929080610f2001906079806020026040519081016040528092919082607960200280828437600081840152601f19601f82011690508083019250505050505091929192905050506115a8565b6040518082607960200280838360005b8381101561066e578082015181840152602081019050610653565b5050505090500191505060405180910390f35b610789600480360361106081101561069857600080fd5b8101908080610f2001906079806020026040519081016040528092919082607960200280828437600081840152601f19601f820116905080830192505050505050919291929080606001906003806020026040519081016040528092919082600360200280828437600081840152601f19601f820116905080830192505050505050919291929080608001906004806020026040519081016040528092919082600460200280828437600081840152601f19601f82011690508083019250505050505091929192908035906020019092919080359060200190929190803560ff1690602001909291905050506119d5565b604051808273ffffffffffffffffffffffffffffffffffffffff1673ffffffffffffffffffffffffffffffffffffffff16815260200191505060405180910390f35b6109ab60048036036111608110156107e257600080fd5b81019080803573ffffffffffffffffffffffffffffffffffffffff169060200190929190803590602001909291908035906020019092919080359060200190929190806101000190600280602002604051908101604052809291906000905b82821015610895578382608002016004806020026040519081016040528092919082600460200280828437600081840152601f19601f82011690508083019250505050505081526020019060010190610841565b50505050919291929080604001906002806020026040519081016040528092919082600260200280828437600081840152601f19601f820116905080830192505050505050919291929080604001906002806020026040519081016040528092919082600260200280828437600081840152601f19601f820116905080830192505050505050919291929080604001906002806020026040519081016040528092919082600260200280828437600081840152601f19601f820116905080830192505050505050919291929080610f2001906079806020026040519081016040528092919082607960200280828437600081840152601f19601f8201169050808301925050505050509192919290505050611c62565b005b6109b5612434565b600080600160008c815260200190815260200160002060008b81526020019081526020016000205411610a50576040517f08c379a000000000000000000000000000000000000000000000000000000000815260040180806020018281038252601b8152602001807f5468657265206973206e6f2070656e64696e672074696d656f7574000000000081525060200191505060405180910390fd5b610a618b8b8b8b8b8b8b8b8b611ef2565b80925081935050506000808b815260200190815260200160002060008a8152602001908152602001600020548811610ae4576040517f08c379a000000000000000000000000000000000000000000000000000000000815260040180806020018281038252602781526020018061266f6027913960400191505060405180910390fd5b6000600160008c815260200190815260200160002060008b815260200190815260200160002081905550876000808c815260200190815260200160002060008b8152602001908152602001600020819055505050505050505050505050565b60008390508073ffffffffffffffffffffffffffffffffffffffff166316796dee6040518163ffffffff1660e01b815260040160206040518083038186803b158015610b8e57600080fd5b505afa158015610ba2573d6000803e3d6000fd5b505050506040513d6020811015610bb857600080fd5b81019080805190602001909291905050508310610c3d576040517f08c379a00000000000000000000000000000000000000000000000000000000081526004018080602001828103825260178152602001807f54686520626f61726420646f65736e277420657869737400000000000000000081525060200191505060405180910390fd5b8073ffffffffffffffffffffffffffffffffffffffff1663fe2be32384846040518363ffffffff1660e01b8152600401808381526020018281526020019250505060206040518083038186803b158015610c9657600080fd5b505afa158015610caa573d6000803e3d6000fd5b505050506040513d6020811015610cc057600080fd5b810190808051906020019092919050505015610d44576040517f08c379a00000000000000000000000000000000000000000000000000000000081526004018080602001828103825260188152602001807f5468652067616d6520697320616c7265616479206f766572000000000000000081525060200191505060405180910390fd5b60006001600085815260200190815260200160002060008481526020019081526020016000205411610dde576040517f08c379a000000000000000000000000000000000000000000000000000000000815260040180806020018281038252601b8152602001807f5468657265206973206e6f2070656e64696e672074696d656f7574000000000081525060200191505060405180910390fd5b600160008481526020019081526020016000206000838152602001908152602001600020544211610e77576040517f08c379a000000000000000000000000000000000000000000000000000000000815260040180806020018281038252601e8152602001807f5468652074696d656f7574206973206e6f74207265616368656420796574000081525060200191505060405180910390fd5b8073ffffffffffffffffffffffffffffffffffffffff16634d79b7588484600260016000808a81526020019081526020016000206000898152602001908152602001600020540181610ec557fe5b066040518463ffffffff1660e01b8152600401808481526020018381526020018260ff1660ff1681526020019350505050600060405180830381600087803b158015610f1057600080fd5b505af1158015610f24573d6000803e3d6000fd5b5050505050505050565b610f36612434565b6000808b9050610f4d8c8c8c8c8c8c8c8c8c611ef2565b809350819450505060008173ffffffffffffffffffffffffffffffffffffffff1663f881add28d6040518263ffffffff1660e01b81526004018082815260200191505060206040518083038186803b158015610fa857600080fd5b505afa158015610fbc573d6000803e3d6000fd5b505050506040513d6020811015610fd257600080fd5b810190808051906020019092919050505090508073ffffffffffffffffffffffffffffffffffffffff1663110f25016002858161100b57fe5b06866040518363ffffffff1660e01b8152600401808360ff1660ff16815260200182607960200280838360005b83811015611053578082015181840152602081019050611038565b505050509050019250505060206040518083038186803b15801561107657600080fd5b505afa15801561108a573d6000803e3d6000fd5b505050506040513d60208110156110a057600080fd5b8101908080519060200190929190505050611123576040517f08c379a000000000000000000000000000000000000000000000000000000000815260040180806020018281038252601e8152602001807f54686520706c61796572206861736e277420776f6e207468652067616d65000081525060200191505060405180910390fd5b8173ffffffffffffffffffffffffffffffffffffffff16634d79b7588d8d6002878161114b57fe5b066040518463ffffffff1660e01b8152600401808481526020018381526020018260ff1660ff1681526020019350505050600060405180830381600087803b15801561119657600080fd5b505af11580156111aa573d6000803e3d6000fd5b5050505050505050505050505050505050565b60008060006111ca612457565b6000806000808a90508073ffffffffffffffffffffffffffffffffffffffff166316796dee6040518163ffffffff1660e01b815260040160206040518083038186803b15801561121957600080fd5b505afa15801561122d573d6000803e3d6000fd5b505050506040513d602081101561124357600080fd5b81019080805190602001909291905050508a106112c8576040517f08c379a00000000000000000000000000000000000000000000000000000000081526004018080602001828103825260178152602001807f54686520626f61726420646f65736e277420657869737400000000000000000081525060200191505060405180910390fd5b8073ffffffffffffffffffffffffffffffffffffffff1663fe2be3238b8b6040518363ffffffff1660e01b8152600401808381526020018281526020019250505060206040518083038186803b15801561132157600080fd5b505afa158015611335573d6000803e3d6000fd5b505050506040513d602081101561134b57600080fd5b8101908080519060200190929190505050156113cf576040517f08c379a00000000000000000000000000000000000000000000000000000000081526004018080602001828103825260188152602001807f5468652067616d6520697320616c7265616479206f766572000000000000000081525060200191505060405180910390fd5b6000600160008c815260200190815260200160002060008b81526020019081526020016000205414156114575760008060006040518060800160405280600060ff168152602001600060ff168152602001600060ff168152602001600060ff16815250600083935082925060009060009080905097509750975097509750975097505061159b565b61145f612479565b600260008c815260200190815260200160002060008b8152602001908152602001600020604051806080016040529081600082016004806020026040519081016040528092919082600480156114f0576020028201916000905b82829054906101000a900460ff1660ff16815260200190600101906020826000010492830192600103820291508084116114b95790505b5050505050815260200160018201548152602001600282015481526020016003820160009054906101000a900460ff1660ff1660ff1681525050905060018060008d815260200190815260200160002060008c8152602001908152602001600020546000808e815260200190815260200160002060008d8152602001908152602001600020548360000151846020015185604001518660600151985098509850985098509850985050505b9397509397509397909450565b6115b0612434565b60028460ff161061160c576040517f08c379a00000000000000000000000000000000000000000000000000000000081526004018080602001828103825260238152602001806125e26023913960400191505060405180910390fd5b60008690508073ffffffffffffffffffffffffffffffffffffffff166316796dee6040518163ffffffff1660e01b815260040160206040518083038186803b15801561165757600080fd5b505afa15801561166b573d6000803e3d6000fd5b505050506040513d602081101561168157600080fd5b81019080805190602001909291905050508610611706576040517f08c379a00000000000000000000000000000000000000000000000000000000081526004018080602001828103825260178152602001807f54686520626f61726420646f65736e277420657869737400000000000000000081525060200191505060405180910390fd5b60008373__StateController_______________________63d7b600b490918760006004811061173257fe5b60200201516040518363ffffffff1660e01b81526004018083607960200280838360005b83811015611771578082015181840152602081019050611756565b505050509050018260ff1660ff1681526020019250505060206040518083038186803b1580156117a057600080fd5b505af41580156117b4573d6000803e3d6000fd5b505050506040513d60208110156117ca57600080fd5b8101908080519060200190929190505050905060008273ffffffffffffffffffffffffffffffffffffffff166368e987e789846040518363ffffffff1660e01b8152600401808381526020018260ff1660ff1681526020019250505060206040518083038186803b15801561183e57600080fd5b505afa158015611852573d6000803e3d6000fd5b505050506040513d602081101561186857600080fd5b8101908080519060200190929190505050905060008190508073ffffffffffffffffffffffffffffffffffffffff1663374f2ea189896000600481106118aa57fe5b60200201518a6001600481106118bc57fe5b60200201518b6002600481106118ce57fe5b60200201518c6003600481106118e057fe5b60200201518c6040518763ffffffff1660e01b8152600401808760ff1660ff1681526020018660ff1660ff1681526020018560ff1660ff1681526020018460ff1660ff1681526020018360ff1660ff16815260200182607960200280838360005b8381101561195c578082015181840152602081019050611941565b505050509050019650505050505050610f206040518083038186803b15801561198457600080fd5b505afa158015611998573d6000803e3d6000fd5b505050506040513d601f19601f82011682018060405250610f208110156119be57600080fd5b810190809190505094505050505095945050505050565b60006119df6124b0565b60008090505b60798160ff161015611a2d57888160ff1660798110611a0057fe5b602002015160ff16828260ff1660798110611a1757fe5b60200201818152505080806001019150506119e5565b50611a366124d3565b60008090505b60048160ff161015611a8457878160ff1660048110611a5757fe5b602002015160ff16828260ff1660048110611a6e57fe5b6020020181815250508080600101915050611a3c565b5060606040518060400160405280601c81526020017f19457468657265756d205369676e6564204d6573736167653a0a33320000000081525090506000818a84866040516020018084600360200280838360005b83811015611af3578082015181840152602081019050611ad8565b5050505090500183600460200280838360005b83811015611b21578082015181840152602081019050611b06565b5050505090500182607960200280838360005b83811015611b4f578082015181840152602081019050611b34565b505050509050019350505050604051602081830303815290604052805190602001206040516020018083805190602001908083835b60208310611ba75780518252602082019150602081019050602083039250611b84565b6001836020036101000a03801982511681845116808217855250505050505090500182815260200192505050604051602081830303815290604052805190602001209050600181878a8a60405160008152602001604052604051808581526020018460ff1660ff1681526020018381526020018281526020019450505050506020604051602081039080840390855afa158015611c48573d6000803e3d6000fd5b505050602060405103519450505050509695505050505050565b611c6a612434565b600080600160008c815260200190815260200160002060008b81526020019081526020016000205414611ce8576040517f08c379a000000000000000000000000000000000000000000000000000000000815260040180806020018281038252602281526020018061264d6022913960400191505060405180910390fd5b6000808b815260200190815260200160002060008a815260200190815260200160002054881015611d64576040517f08c379a000000000000000000000000000000000000000000000000000000000815260040180806020018281038252602281526020018061262b6022913960400191505060405180910390fd5b611d758b8b8b8b8b8b8b8b8b611ef2565b8092508193505050876000808c815260200190815260200160002060008b81526020019081526020016000208190555061012c4201600160008c815260200190815260200160002060008b81526020019081526020016000208190555086600160028110611ddf57fe5b6020020151600260008c815260200190815260200160002060008b8152602001908152602001600020600001906004611e199291906124f5565b5085600160028110611e2757fe5b6020020151600260008c815260200190815260200160002060008b81526020019081526020016000206001018190555084600160028110611e6457fe5b6020020151600260008c815260200190815260200160002060008b81526020019081526020016000206002018190555083600160028110611ea157fe5b6020020151600260008c815260200190815260200160002060008b815260200190815260200160002060030160006101000a81548160ff021916908360ff1602179055505050505050505050505050565b611efa612434565b6000808b90508073ffffffffffffffffffffffffffffffffffffffff166316796dee6040518163ffffffff1660e01b815260040160206040518083038186803b158015611f4657600080fd5b505afa158015611f5a573d6000803e3d6000fd5b505050506040513d6020811015611f7057600080fd5b81019080805190602001909291905050508b10611ff5576040517f08c379a00000000000000000000000000000000000000000000000000000000081526004018080602001828103825260178152602001807f54686520626f61726420646f65736e277420657869737400000000000000000081525060200191505060405180910390fd5b8073ffffffffffffffffffffffffffffffffffffffff1663fe2be3238c8c6040518363ffffffff1660e01b8152600401808381526020018281526020019250505060206040518083038186803b15801561204e57600080fd5b505afa158015612062573d6000803e3d6000fd5b505050506040513d602081101561207857600080fd5b8101908080519060200190929190505050156120fc576040517f08c379a00000000000000000000000000000000000000000000000000000000081526004018080602001828103825260188152602001807f5468652067616d6520697320616c7265616479206f766572000000000000000081525060200191505060405180910390fd5b600289116121b8578073ffffffffffffffffffffffffffffffffffffffff1663140604cc8c6040518263ffffffff1660e01b815260040180828152602001915050610f206040518083038186803b15801561215657600080fd5b505afa15801561216a573d6000803e3d6000fd5b505050506040513d601f19601f82011682018060405250610f2081101561219057600080fd5b8101908091905050925060008914156121b3578260008090509250925050612426565b6121bc565b8392505b600189146121cd57600289036121d0565b60005b91506121da61258f565b8b816000600381106121e857fe5b6020020181815250508a816001600381106121ff57fe5b602002018181525050828160026003811061221657fe5b60200201818152505060008090505b60018b14612234576002612237565b60015b60ff168160ff161015612419578273ffffffffffffffffffffffffffffffffffffffff166372e57afd8e8e876040518463ffffffff1660e01b815260040180848152602001838152602001828152602001935050505060206040518083038186803b1580156122a557600080fd5b505afa1580156122b9573d6000803e3d6000fd5b505050506040513d60208110156122cf57600080fd5b810190808051906020019092919050505073ffffffffffffffffffffffffffffffffffffffff1661235086848d8560ff166002811061230a57fe5b60200201518d8660ff166002811061231e57fe5b60200201518d8760ff166002811061233257fe5b60200201518d8860ff166002811061234657fe5b60200201516119d5565b73ffffffffffffffffffffffffffffffffffffffff16146123bc576040517f08c379a00000000000000000000000000000000000000000000000000000000081526004018080602001828103825260268152602001806126056026913960400191505060405180910390fd5b6123e68e8e600287816123cb57fe5b068d8560ff16600281106123db57fe5b6020020151896115a8565b94506001826002600381106123f757fe5b6020020181815101915081815250506001840193508080600101915050612225565b5083600184039350935050505b995099975050505050505050565b60405180610f200160405280607990602082028036833780820191505090505090565b6040518060800160405280600490602082028036833780820191505090505090565b604051806080016040528061248c612457565b81526020016000801916815260200160008019168152602001600060ff1681525090565b60405180610f200160405280607990602082028036833780820191505090505090565b6040518060800160405280600490602082028036833780820191505090505090565b826004601f0160209004810192821561257e5791602002820160005b8382111561254f57835183826101000a81548160ff021916908360ff1602179055509260200192600101602081600001049283019260010302612511565b801561257c5782816101000a81549060ff021916905560010160208160000104928301926001030261254f565b505b50905061258b91906125b1565b5090565b6040518060600160405280600390602082028036833780820191505090505090565b6125de91905b808211156125da57600081816101000a81549060ff0219169055506001016125b7565b5090565b9056fe506c61796572206d75737420626520706c617965722041206f7220706c617965722042546865207369676e6174757265206f6620746865207475726e20697320696e636f7272656374412075707065722074696d656f7574207475726e20616c7265616479206578697374546865726520697320616c726561647920612070656e64696e672074696d656f757454686973207475726e206973206e6f742061626f7665207468652074696d656f7574207475726ea2646970667358221220d160756d41cf94af7d537caaca4562d7ca2056780fbb5a004f790ef848e9fc6164736f6c634300060b0033",
  "immutableReferences": {},
  "source": "pragma solidity 0.6.11;\n\nimport \"./Board.sol\";\nimport \"./BoardHandler.sol\";\nimport \"./Pawn.sol\";\nimport \"./StateController.sol\";\n\n/**\n * @title EthBoards\n * @notice The contract for the logical flow of games, simulate turns, check turns legitimacy and claim victory\n*/\ncontract EthBoards {\n    using StateController for uint8[121];\n\n    uint constant timeoutTime = 5 minutes;\n\n    struct Turn {\n        uint8[4] move;\n        bytes32 r;\n        bytes32 s;\n        uint8 v;\n    }\n\n    // Store the current turn with a started timeout for the specific game\n    mapping (uint => mapping (uint => uint)) timeoutTurnNumber;\n\n    // Store the timestamp of the timeout for the specific game\n    mapping (uint => mapping (uint => uint)) timeoutTimestamp;\n\n    // A player could start a timeout without sharing the turn he played\n    // Therefore we save the last played turn (move and signature)\n    // to ensure the second player can play and stop the timeout\n    mapping (uint => mapping (uint => Turn)) timeoutTurn;\n\n\n    // Simulate the turn from the board, user's move and input state\n    /**\n     * @notice Simulate the state transition when performing a move on the game\n     * @param boardHandlerAddress the address of the Board Handler contract\n     * @param boardId the id of the board\n     * @param player that player that simulates the move (0 or 1)\n     * @param move an array containing necessary information to perform the move [index of the selected pawn, type of the move, x coordinate, y coordinate]\n     * @param state the state of the game\n     * @return the new state once the move has been performed, reverted if the move is not possible\n    */\n    function simulate(\n        address boardHandlerAddress,\n        uint boardId,\n        uint8 player,\n        uint8[4] memory move,\n        uint8[121] memory state\n    ) public view returns (uint8[121] memory) {\n        require(player < 2, \"Player must be player A or player B\");\n\n        // Get the board\n        BoardHandler boardHandler = BoardHandler(boardHandlerAddress);\n        require(boardId < boardHandler.getBoardNumber(), \"The board doesn't exist\");\n\n        // Get the address of the pawn\n        uint8 pawnType = state.getPawnType(move[0]);\n        address pawnAddress = boardHandler.getBoardPawnContract(boardId, pawnType);\n        Pawn pawn = Pawn(pawnAddress);\n\n        // Perform the move of the pawn\n        return pawn.performMove(player, move[0], move[1], move[2], move[3], state);\n    }\n\n    /**\n     * @notice Get from a turn signature (nonce, move, input state) the address of the signer, allow to verify if the player performing a move has correctly signed it\n     * @param state the input state\n     * @param nonce triplet that uniquely identifies the turn (board id, game id, turn number)\n     * @param move an array containing necessary information to perform the move [index of the selected pawn, type of the move, x coordinate, y coordinate]\n     * @param r the r component of the signature\n     * @param s the s component of the signature\n     * @param v the v component of the signature\n     * @return the address of the signer\n    */\n    function getTurnSignatureAddress(\n      uint8[121] memory state,\n      uint[3] memory nonce,\n      uint8[4] memory move,\n      bytes32 r,\n      bytes32 s,\n      uint8 v\n      ) public pure returns (address) {\n\n        // Convert to uint for keccak256 function\n        uint[121] memory inStateUint;\n        for(uint8 i = 0; i < 121; i++) {\n          inStateUint[i] = uint(state[i]);\n        }\n        uint[4] memory moveUint;\n        for(uint8 i = 0; i < 4; i++) {\n          moveUint[i] = uint(move[i]);\n        }\n\n        // Calculate the hash of the move\n        bytes memory prefix = \"\\x19Ethereum Signed Message:\\n32\";\n        bytes32 message = keccak256(abi.encodePacked(prefix, keccak256(abi.encodePacked(nonce, moveUint, inStateUint))));\n\n        return ecrecover(message, v, r, s);\n    }\n\n    /**\n     * @notice Verify the two last turns and check if the current state of the game is legitimate\n     * @param boardHandlerAddress the address of the Board Handler contract\n     * @param boardId the id of the board\n     * @param gameId the id of the game\n     * @param turnNumber the number of the latest turn\n     * @param move two arrays that contain the necessary information to perform the two last moves [index of the selected pawn, type of the move, x coordinate, y coordinate]\n     * @param r the two last r components of the signature\n     * @param s the two last s components of the signature\n     * @param v the two last v components of the signature\n     * @param inputState the input state where we start checking the legitimacy of the state\n     * @return currentState the legitimate state out of the turns\n     * @return latestTurn the legitimate turn number\n    */\n    function checkTurnsLegitimacy(\n        address boardHandlerAddress,\n        uint boardId,\n        uint gameId,\n        uint turnNumber,\n        uint8[4][2] memory move,\n        bytes32[2] memory r,\n        bytes32[2] memory s,\n        uint8[2] memory v,\n        uint8[121] memory inputState\n    ) internal view returns (uint8[121] memory currentState, uint latestTurn) {\n        // Get the board\n        BoardHandler boardHandler = BoardHandler(boardHandlerAddress);\n        require(boardId < boardHandler.getBoardNumber(), \"The board doesn't exist\");\n\n        // Check the game exist and is not finished\n        require(!boardHandler.isGameOver(boardId, gameId), \"The game is already over\");\n\n        // If we begin from the first turn therefore the input state is the initial state from the board\n        if (turnNumber <= 2) {\n            currentState = boardHandler.getInitialState(boardId);\n\n            if (turnNumber == 0) {\n                // The turn number == 0, no legitimacy to verify since no turn\n                return (currentState, 0);\n            }\n        } else {\n            currentState = inputState;\n        }\n\n        // The nonce is a triplet containing: [boardId, gameId, turn]\n        latestTurn = (turnNumber == 1 ? 0 : turnNumber-2);\n        uint[3] memory nonce;\n        nonce[0] = boardId;\n        nonce[1] = gameId;\n        nonce[2] = latestTurn;\n\n        // Check each turn has been signed by the correct player\n        // And retrieve the final state\n        for (uint8 i = 0; i < (turnNumber == 1 ? 1 : 2); i++) {\n            require(getTurnSignatureAddress(\n                    currentState,\n                    nonce,\n                    move[i],\n                    r[i],\n                    s[i],\n                    v[i]\n                ) == boardHandler.getGamePlayerAddress(boardId, gameId, latestTurn), \"The signature of the turn is incorrect\"\n            );\n\n            // Simulate the player turn\n            currentState = simulate(\n                boardHandlerAddress,\n                boardId,\n                uint8(latestTurn % 2),  // Even turn -> player A/0, odd turn -> player B/1\n                move[i],\n                currentState\n            );\n\n            // Increment the turn number for the second turn\n            nonce[2] += 1;\n            latestTurn += 1;\n        }\n\n        // We decrement latestTurn to get the number of latest played turn\n        return (currentState, latestTurn-1);\n    }\n\n    /**\n     * @notice Allow a player to claim victory if the state of the game is victorious for the player, if it's the case, the finishGame of the board handler contract is called\n     * @dev To check if the state is victorious, we give the two last turns to ensure the state is legitime (signed by the two players)\n     * @param boardHandlerAddress the address of the Board Handler contract\n     * @param boardId the id of the board\n     * @param gameId the id of the game\n     * @param turnNumber the number of the latest turn\n     * @param move two arrays that contain the necessary information to perform the two last moves [index of the selected pawn, type of the move, x coordinate, y coordinate]\n     * @param r the two last r components of the signature\n     * @param s the two last s components of the signature\n     * @param v the two last v components of the signature\n     * @param inputState the input state where we start checking the legitimacy of the victorious state\n    */\n    function claimVictory(\n        address boardHandlerAddress,\n        uint boardId,\n        uint gameId,\n        uint turnNumber,\n        uint8[4][2] memory move,\n        bytes32[2] memory r,\n        bytes32[2] memory s,\n        uint8[2] memory v,\n        uint8[121] memory inputState\n    ) public {\n        uint8[121] memory currentState;\n        uint latestTurn;\n\n        BoardHandler boardHandler = BoardHandler(boardHandlerAddress);\n\n        // Check the legitimacy of the latest turn\n        (currentState, latestTurn) = checkTurnsLegitimacy(\n            boardHandlerAddress,\n            boardId,\n            gameId,\n            turnNumber,\n            move,\n            r,\n            s,\n            v,\n            inputState\n        );\n\n        // Check if the final state is victoreious\n        Board board = Board(boardHandler.getBoardContractAddress(boardId));\n        require(board.checkVictory(uint8(latestTurn%2), currentState), \"The player hasn't won the game\");\n\n        // If the player won, terminate the game\n        boardHandler.finishGame(boardId, gameId, uint8(latestTurn%2));\n    }\n\n    /**\n     * @notice Start a timeout, once started the opponent has to call the stop timeout function within 5 minutes\n     * @param boardHandlerAddress the address of the Board Handler contract\n     * @param boardId the id of the board\n     * @param gameId the id of the game\n     * @param turnNumber the number of the latest turn\n     * @param move two arrays that contain the necessary information to perform the two last moves [index of the selected pawn, type of the move, x coordinate, y coordinate]\n     * @param r the two last r components of the signature\n     * @param s the two last s components of the signature\n     * @param v the two last v components of the signature\n     * @param inputState the input state where we start checking the legitimacy of the victorious state\n    */\n    function startTimeout(\n        address boardHandlerAddress,\n        uint boardId,\n        uint gameId,\n        uint turnNumber,\n        uint8[4][2] memory move,\n        bytes32[2] memory r,\n        bytes32[2] memory s,\n        uint8[2] memory v,\n        uint8[121] memory inputState\n    ) public {\n        uint8[121] memory currentState;\n        uint latestTurn;\n\n        // Verify there is no pending timeout\n        require(timeoutTimestamp[boardId][gameId] == 0, \"There is already a pending timeout\");\n\n        // Verify there is no upper timeout turn\n        require(turnNumber >= timeoutTurnNumber[boardId][gameId], \"A upper timeout turn already exist\");\n\n        // Check the legitimacy of the latest turn\n        (currentState, latestTurn) = checkTurnsLegitimacy(\n            boardHandlerAddress,\n            boardId,\n            gameId,\n            turnNumber,\n            move,\n            r,\n            s,\n            v,\n            inputState\n        );\n\n        // Set the timeout\n        timeoutTurnNumber[boardId][gameId] = turnNumber;\n        timeoutTimestamp[boardId][gameId] = block.timestamp + timeoutTime;\n\n        // Store the last played turn to ensure it is shared to the players\n        timeoutTurn[boardId][gameId].move = move[1];\n        timeoutTurn[boardId][gameId].r = r[1];\n        timeoutTurn[boardId][gameId].s = s[1];\n        timeoutTurn[boardId][gameId].v = v[1];\n    }\n\n    /**\n     * @notice Stop a started timeout\n     * @param boardHandlerAddress the address of the Board Handler contract\n     * @param boardId the id of the board\n     * @param gameId the id of the game\n     * @param turnNumber the number of the latest turn\n     * @param move two arrays that contain the necessary information to perform the two last moves [index of the selected pawn, type of the move, x coordinate, y coordinate]\n     * @param r the two last r components of the signature\n     * @param s the two last s components of the signature\n     * @param v the two last v components of the signature\n     * @param inputState the input state where we start checking the legitimacy of the victorious state\n    */\n    function stopTimeout(\n        address boardHandlerAddress,\n        uint boardId,\n        uint gameId,\n        uint turnNumber,\n        uint8[4][2] memory move,\n        bytes32[2] memory r,\n        bytes32[2] memory s,\n        uint8[2] memory v,\n        uint8[121] memory inputState\n    ) public {\n        uint8[121] memory currentState;\n        uint latestTurn;\n\n        // Check there is a pending timeout\n        require(timeoutTimestamp[boardId][gameId] > 0, \"There is no pending timeout\");\n\n        // Check the legitimacy of the latest turn\n        (currentState, latestTurn) = checkTurnsLegitimacy(\n            boardHandlerAddress,\n            boardId,\n            gameId,\n            turnNumber,\n            move,\n            r,\n            s,\n            v,\n            inputState\n        );\n\n        // Verify that the turn is above the timeout turn\n        require(turnNumber > timeoutTurnNumber[boardId][gameId], \"This turn is not above the timeout turn\");\n\n        // Cancel timeout and update timeoutTurnNumber\n        timeoutTimestamp[boardId][gameId] = 0;\n        timeoutTurnNumber[boardId][gameId] = turnNumber;\n    }\n\n    /**\n     * @notice Stop a started timeout\n     * @param boardHandlerAddress the address of the Board Handler contract\n     * @param boardId the id of the board\n     * @param gameId the id of the game\n    */\n    function executeTimeout(\n        address boardHandlerAddress,\n        uint boardId,\n        uint gameId\n    ) public {\n        // Get the board\n        BoardHandler boardHandler = BoardHandler(boardHandlerAddress);\n        require(boardId < boardHandler.getBoardNumber(), \"The board doesn't exist\");\n\n        // Check the game exist and is not finished\n        require(!boardHandler.isGameOver(boardId, gameId), \"The game is already over\");\n\n        // Check there is a pending timeout\n        require(timeoutTimestamp[boardId][gameId] > 0, \"There is no pending timeout\");\n\n        // Check the timeout time has been reached\n        require(block.timestamp > timeoutTimestamp[boardId][gameId], \"The timeout is not reached yet\");\n\n        // FInish the game with the latest player who played the turn as the winner\n        boardHandler.finishGame(boardId, gameId, uint8((timeoutTurnNumber[boardId][gameId]+1)%2));\n    }\n\n    /**\n     * @notice Get the information about timeout for a game\n     * @param boardHandlerAddress the address of the Board Handler contract\n     * @param boardId the id of the board\n     * @param gameId the id of the game\n     * @return isPending true if a timeout is pending\n     * @return timestamp the timestamp when the timeout can be executed\n     * @return turnNumber the number of the latest turn before the timeout\n     * @return move the last turn played\n     * @return r the r component of the signature of the last turn\n     * @return s the s component of the signature of the last turn\n     * @return v the v component of the signature of the last turn\n    */\n    function getTimeoutInfo(\n        address boardHandlerAddress,\n        uint boardId,\n        uint gameId\n    ) public view returns (\n        bool isPending,\n        uint timestamp,\n        uint turnNumber,\n        uint8[4] memory move,\n        bytes32 r,\n        bytes32 s,\n        uint8 v\n    ) {\n        // Get the board\n        BoardHandler boardHandler = BoardHandler(boardHandlerAddress);\n        require(boardId < boardHandler.getBoardNumber(), \"The board doesn't exist\");\n\n        // Check the game exist and is not finished\n        require(!boardHandler.isGameOver(boardId, gameId), \"The game is already over\");\n\n        // Check if a timestamp is pending\n        if (timeoutTimestamp[boardId][gameId] == 0) {\n            return (false, 0, 0, [0,0,0,0], \"\", \"\", 0);\n        }\n\n        Turn memory latestTurn = timeoutTurn[boardId][gameId];\n\n        return (\n            true,\n            timeoutTimestamp[boardId][gameId],\n            timeoutTurnNumber[boardId][gameId],\n            latestTurn.move,\n            latestTurn.r,\n            latestTurn.s,\n            latestTurn.v\n        );\n    }\n}",
  "sourcePath": "/Users/lucas/Desktop/ethboards/contracts/EthBoards.sol",
  "compiler": {
    "name": "solc",
    "version": "0.6.11+commit.5ef660b1.Emscripten.clang"
  },
  "schemaVersion": "3.2.2",
  "updatedAt": "2020-07-24T15:59:58.854Z",
  "networkType": "ethereum",
  "devdoc": {
    "kind": "dev",
    "methods": {
      "claimVictory(address,uint256,uint256,uint256,uint8[4][2],bytes32[2],bytes32[2],uint8[2],uint8[121])": {
        "details": "To check if the state is victorious, we give the two last turns to ensure the state is legitime (signed by the two players)",
        "params": {
          "boardHandlerAddress": "the address of the Board Handler contract",
          "boardId": "the id of the board",
          "gameId": "the id of the game",
          "inputState": "the input state where we start checking the legitimacy of the victorious state",
          "move": "two arrays that contain the necessary information to perform the two last moves [index of the selected pawn, type of the move, x coordinate, y coordinate]",
          "r": "the two last r components of the signature",
          "s": "the two last s components of the signature",
          "turnNumber": "the number of the latest turn",
          "v": "the two last v components of the signature"
        }
      },
      "executeTimeout(address,uint256,uint256)": {
        "params": {
          "boardHandlerAddress": "the address of the Board Handler contract",
          "boardId": "the id of the board",
          "gameId": "the id of the game"
        }
      },
      "getTimeoutInfo(address,uint256,uint256)": {
        "params": {
          "boardHandlerAddress": "the address of the Board Handler contract",
          "boardId": "the id of the board",
          "gameId": "the id of the game"
        },
        "returns": {
          "isPending": "true if a timeout is pending",
          "move": "the last turn played",
          "r": "the r component of the signature of the last turn",
          "s": "the s component of the signature of the last turn",
          "timestamp": "the timestamp when the timeout can be executed",
          "turnNumber": "the number of the latest turn before the timeout",
          "v": "the v component of the signature of the last turn"
        }
      },
      "getTurnSignatureAddress(uint8[121],uint256[3],uint8[4],bytes32,bytes32,uint8)": {
        "params": {
          "move": "an array containing necessary information to perform the move [index of the selected pawn, type of the move, x coordinate, y coordinate]",
          "nonce": "triplet that uniquely identifies the turn (board id, game id, turn number)",
          "r": "the r component of the signature",
          "s": "the s component of the signature",
          "state": "the input state",
          "v": "the v component of the signature"
        },
        "returns": {
          "_0": "the address of the signer"
        }
      },
      "simulate(address,uint256,uint8,uint8[4],uint8[121])": {
        "params": {
          "boardHandlerAddress": "the address of the Board Handler contract",
          "boardId": "the id of the board",
          "move": "an array containing necessary information to perform the move [index of the selected pawn, type of the move, x coordinate, y coordinate]",
          "player": "that player that simulates the move (0 or 1)",
          "state": "the state of the game"
        },
        "returns": {
          "_0": "the new state once the move has been performed, reverted if the move is not possible"
        }
      },
      "startTimeout(address,uint256,uint256,uint256,uint8[4][2],bytes32[2],bytes32[2],uint8[2],uint8[121])": {
        "params": {
          "boardHandlerAddress": "the address of the Board Handler contract",
          "boardId": "the id of the board",
          "gameId": "the id of the game",
          "inputState": "the input state where we start checking the legitimacy of the victorious state",
          "move": "two arrays that contain the necessary information to perform the two last moves [index of the selected pawn, type of the move, x coordinate, y coordinate]",
          "r": "the two last r components of the signature",
          "s": "the two last s components of the signature",
          "turnNumber": "the number of the latest turn",
          "v": "the two last v components of the signature"
        }
      },
      "stopTimeout(address,uint256,uint256,uint256,uint8[4][2],bytes32[2],bytes32[2],uint8[2],uint8[121])": {
        "params": {
          "boardHandlerAddress": "the address of the Board Handler contract",
          "boardId": "the id of the board",
          "gameId": "the id of the game",
          "inputState": "the input state where we start checking the legitimacy of the victorious state",
          "move": "two arrays that contain the necessary information to perform the two last moves [index of the selected pawn, type of the move, x coordinate, y coordinate]",
          "r": "the two last r components of the signature",
          "s": "the two last s components of the signature",
          "turnNumber": "the number of the latest turn",
          "v": "the two last v components of the signature"
        }
      }
    },
    "title": "EthBoards",
    "version": 1
  },
  "userdoc": {
    "kind": "user",
    "methods": {
      "claimVictory(address,uint256,uint256,uint256,uint8[4][2],bytes32[2],bytes32[2],uint8[2],uint8[121])": {
        "notice": "Allow a player to claim victory if the state of the game is victorious for the player, if it's the case, the finishGame of the board handler contract is called"
      },
      "executeTimeout(address,uint256,uint256)": {
        "notice": "Stop a started timeout"
      },
      "getTimeoutInfo(address,uint256,uint256)": {
        "notice": "Get the information about timeout for a game"
      },
      "getTurnSignatureAddress(uint8[121],uint256[3],uint8[4],bytes32,bytes32,uint8)": {
        "notice": "Get from a turn signature (nonce, move, input state) the address of the signer, allow to verify if the player performing a move has correctly signed it"
      },
      "simulate(address,uint256,uint8,uint8[4],uint8[121])": {
        "notice": "Simulate the state transition when performing a move on the game"
      },
      "startTimeout(address,uint256,uint256,uint256,uint8[4][2],bytes32[2],bytes32[2],uint8[2],uint8[121])": {
        "notice": "Start a timeout, once started the opponent has to call the stop timeout function within 5 minutes"
      },
      "stopTimeout(address,uint256,uint256,uint256,uint8[4][2],bytes32[2],bytes32[2],uint8[2],uint8[121])": {
        "notice": "Stop a started timeout"
      }
    },
    "notice": "The contract for the logical flow of games, simulate turns, check turns legitimacy and claim victory",
    "version": 1
  }
}