{
  "contractName": "NoEvents",
  "abi": [
    {
      "inputs": [
        {
          "internalType": "uint256",
          "name": "boardId",
          "type": "uint256"
        },
        {
          "internalType": "uint256",
          "name": "gameId",
          "type": "uint256"
        },
        {
          "internalType": "address",
          "name": "winner",
          "type": "address"
        },
        {
          "internalType": "address",
          "name": "loser",
          "type": "address"
        }
      ],
      "name": "gameFinished",
      "outputs": [],
      "stateMutability": "nonpayable",
      "type": "function"
    },
    {
      "inputs": [
        {
          "internalType": "uint256",
          "name": "boardId",
          "type": "uint256"
        },
        {
          "internalType": "uint256",
          "name": "gameId",
          "type": "uint256"
        },
        {
          "internalType": "address",
          "name": "joiner",
          "type": "address"
        }
      ],
      "name": "joinGame",
      "outputs": [
        {
          "internalType": "bool",
          "name": "",
          "type": "bool"
        }
      ],
      "stateMutability": "nonpayable",
      "type": "function"
    }
  ],
  "bytecode": "0x608060405234801561001057600080fd5b5061016c806100206000396000f3fe608060405234801561001057600080fd5b50600436106100365760003560e01c806301d3a6da1461003b5780631fe6d2ca146100ab575b600080fd5b6100916004803603606081101561005157600080fd5b810190808035906020019092919080359060200190929190803573ffffffffffffffffffffffffffffffffffffffff169060200190929190505050610123565b604051808215151515815260200191505060405180910390f35b610121600480360360808110156100c157600080fd5b810190808035906020019092919080359060200190929190803573ffffffffffffffffffffffffffffffffffffffff169060200190929190803573ffffffffffffffffffffffffffffffffffffffff169060200190929190505050610130565b005b6000600190509392505050565b5050505056fea26469706673582212206edafcb410ef81877a8887f86fb756b633c0aa15939e0ef039a02915cceba92164736f6c634300060b0033",
  "immutableReferences": {},
  "source": "pragma solidity 0.6.11;\n\nimport \"../BoardEvents.sol\";\n\ncontract NoEvents is BoardEvents {\n    function gameFinished(uint boardId, uint gameId, address winner, address loser) external override {\n        // No event occurs on finished games\n        return;\n    }\n\n    function joinGame(uint boardId, uint gameId, address joiner) external override returns(bool) {\n        // Player can always join a game\n        return true;\n    }\n}",
  "sourcePath": "/Users/lucas/Desktop/ethboards/contracts/BoardEvents/NoEvents.sol",
  "compiler": {
    "name": "solc",
    "version": "0.6.11+commit.5ef660b1.Emscripten.clang"
  },
  "schemaVersion": "3.2.2",
  "updatedAt": "2020-08-01T13:32:00.839Z",
  "networkType": "ethereum",
  "devdoc": {
    "kind": "dev",
    "methods": {
      "gameFinished(uint256,uint256,address,address)": {
        "params": {
          "boardId": "id of the board",
          "gameId": "id of the game",
          "loser": "address of the loser",
          "winner": "address of the winner"
        }
      },
      "joinGame(uint256,uint256,address)": {
        "params": {
          "boardId": "id of the board",
          "gameId": "id of the game",
          "joiner": "address of the joining player"
        },
        "returns": {
          "_0": "true if the player the caller can join the specified game"
        }
      }
    },
    "version": 1
  },
  "userdoc": {
    "kind": "user",
    "methods": {
      "gameFinished(uint256,uint256,address,address)": {
        "notice": "Callback function called when the game is finished. It could for example distribute deposits to the winner"
      },
      "joinGame(uint256,uint256,address)": {
        "notice": "Check if the player can join the game. It could be for example a function that verify the player has ade a deposit in the BoardEvents contract. This call shoud lock the fund until the game is finished"
      }
    },
    "version": 1
  }
}