{
  "contractName": "PawnSetRegistry",
  "abi": [
    {
      "anonymous": false,
      "inputs": [
        {
          "indexed": false,
          "internalType": "address",
          "name": "pawnSetAddress",
          "type": "address"
        },
        {
          "indexed": false,
          "internalType": "string",
          "name": "name",
          "type": "string"
        }
      ],
      "name": "PawnSetCreated",
      "type": "event"
    },
    {
      "inputs": [
        {
          "internalType": "string",
          "name": "name",
          "type": "string"
        },
        {
          "internalType": "address[255]",
          "name": "pawns",
          "type": "address[255]"
        },
        {
          "internalType": "uint8",
          "name": "pawnNb",
          "type": "uint8"
        }
      ],
      "name": "createPawnSet",
      "outputs": [
        {
          "internalType": "address",
          "name": "",
          "type": "address"
        }
      ],
      "stateMutability": "nonpayable",
      "type": "function"
    }
  ],
  "bytecode": "0x608060405234801561001057600080fd5b506106f0806100206000396000f3fe608060405234801561001057600080fd5b506004361061002b5760003560e01c80635b3355d714610030575b600080fd5b610139600480360361202081101561004757600080fd5b810190808035906020019064010000000081111561006457600080fd5b82018360208201111561007657600080fd5b8035906020019184600183028401116401000000008311171561009857600080fd5b91908080601f016020809104026020016040519081016040528093929190818152602001838380828437600081840152601f19601f82011690508083019250505050505050919291929080611fe0019060ff80602002604051908101604052809291908260ff60200280828437600081840152601f19601f8201169050808301925050505050509192919290803560ff16906020019092919050505061017b565b604051808273ffffffffffffffffffffffffffffffffffffffff1673ffffffffffffffffffffffffffffffffffffffff16815260200191505060405180910390f35b600080838360405161018c906102c5565b808360ff60200280838360005b838110156101b4578082015181840152602081019050610199565b505050509050018260ff1660ff16815260200192505050604051809103906000f0801580156101e7573d6000803e3d6000fd5b5090507f05e797d542144afc7e9bd6125d0c73cd015ef7a29b2d671ac798ac56073d82fb8186604051808373ffffffffffffffffffffffffffffffffffffffff1673ffffffffffffffffffffffffffffffffffffffff16815260200180602001828103825283818151815260200191508051906020019080838360005b8381101561027f578082015181840152602081019050610264565b50505050905090810190601f1680156102ac5780820380516001836020036101000a031916815260200191505b50935050505060405180910390a1809150509392505050565b6103e8806102d38339019056fe608060405234801561001057600080fd5b506040516103e83803806103e8833981810160405261200081101561003457600080fd5b81019080919082611fe0018051906020019092919050505060008160ff16116100c5576040517f08c379a00000000000000000000000000000000000000000000000000000000081526004018080602001828103825260178152602001807f4e6f207061776e20696e20746865207061776e2073657400000000000000000081525060200191505060405180910390fd5b60ff8160ff16111561013f576040517f08c379a000000000000000000000000000000000000000000000000000000000815260040180806020018281038252601d8152602001807f4d6178696d756d206e756d626572206f66207061776e2069732032353500000081525060200191505060405180910390fd5b60008090505b8160ff168110156101d0576000838260ff811061015e57fe5b60200201519080600181540180825580915050600190039060005260206000200160009091909190916101000a81548173ffffffffffffffffffffffffffffffffffffffff021916908373ffffffffffffffffffffffffffffffffffffffff1602179055508080600101915050610145565b5080600160006101000a81548160ff021916908360ff16021790555050506101eb806101fd6000396000f3fe608060405234801561001057600080fd5b50600436106100365760003560e01c806368b1cc991461003b578063ed5558231461005f575b600080fd5b6100436100d0565b604051808260ff1660ff16815260200191505060405180910390f35b61008e6004803603602081101561007557600080fd5b81019080803560ff1690602001909291905050506100e7565b604051808273ffffffffffffffffffffffffffffffffffffffff1673ffffffffffffffffffffffffffffffffffffffff16815260200191505060405180910390f35b6000600160009054906101000a900460ff16905090565b6000600160009054906101000a900460ff1660ff168260ff1610610173576040517f08c379a00000000000000000000000000000000000000000000000000000000081526004018080602001828103825260168152602001807f546865207061776e20646f65736e27742065786973740000000000000000000081525060200191505060405180910390fd5b60008260ff168154811061018357fe5b9060005260206000200160009054906101000a900473ffffffffffffffffffffffffffffffffffffffff16905091905056fea26469706673582212204d7751b7fc25f92b8d5bd5fdae59360131c3d7f6b271e8af197e824c8f606ceb64736f6c634300060b0033a2646970667358221220ae4a3404f581bf2a73c060a8368c1a08c3e0fb790580e5025b02fb382f0ca05464736f6c634300060b0033",
  "immutableReferences": {},
  "source": "pragma solidity 0.6.11;\n\nimport \"./PawnSet.sol\";\n\n/**\n * @title Pawn set registry\n * @notice List the created pawn sets through events\n*/\ncontract PawnSetRegistry {\n    /**\n    * Emitted when a new pawn set is created\n    * @param pawnSetAddress Address of the pawn set\n    * @param name The name of the pawn set\n    */\n    event PawnSetCreated(\n        address pawnSetAddress,\n        string name\n    );\n\n    /**\n     * @notice Create a new pawn set\n     * @param name name of the pawn set\n     * @param pawns addresses of the pawn to add\n     * @param pawnNb number of the pawn added\n     * @return address of the pawn set\n    */\n    function createPawnSet(string memory name, address[255] memory pawns, uint8 pawnNb) public returns (address) {\n        PawnSet pawnSet = new PawnSet(pawns, pawnNb);\n\n        emit PawnSetCreated(address(pawnSet), name);\n\n        return address(pawnSet);\n    }\n}",
  "sourcePath": "/Users/lucas/Desktop/ethboards/contracts/PawnSetRegistry.sol",
  "compiler": {
    "name": "solc",
    "version": "0.6.11+commit.5ef660b1.Emscripten.clang"
  },
  "schemaVersion": "3.2.2",
  "updatedAt": "2020-07-24T15:59:58.896Z",
  "networkType": "ethereum",
  "devdoc": {
    "events": {
      "PawnSetCreated(address,string)": {
        "params": {
          "name": "The name of the pawn set",
          "pawnSetAddress": "Address of the pawn set"
        }
      }
    },
    "kind": "dev",
    "methods": {
      "createPawnSet(string,address[255],uint8)": {
        "params": {
          "name": "name of the pawn set",
          "pawnNb": "number of the pawn added",
          "pawns": "addresses of the pawn to add"
        },
        "returns": {
          "_0": "address of the pawn set"
        }
      }
    },
    "title": "Pawn set registry",
    "version": 1
  },
  "userdoc": {
    "events": {
      "PawnSetCreated(address,string)": {
        "notice": "Emitted when a new pawn set is created"
      }
    },
    "kind": "user",
    "methods": {
      "createPawnSet(string,address[255],uint8)": {
        "notice": "Create a new pawn set"
      }
    },
    "notice": "List the created pawn sets through events",
    "version": 1
  }
}