{
  "contractName": "PawnSet",
  "abi": [
    {
      "inputs": [
        {
          "internalType": "address[255]",
          "name": "_pawns",
          "type": "address[255]"
        },
        {
          "internalType": "uint8",
          "name": "_pawnNb",
          "type": "uint8"
        }
      ],
      "stateMutability": "nonpayable",
      "type": "constructor"
    },
    {
      "inputs": [],
      "name": "getPawnNb",
      "outputs": [
        {
          "internalType": "uint8",
          "name": "",
          "type": "uint8"
        }
      ],
      "stateMutability": "view",
      "type": "function"
    },
    {
      "inputs": [
        {
          "internalType": "uint8",
          "name": "index",
          "type": "uint8"
        }
      ],
      "name": "getPawn",
      "outputs": [
        {
          "internalType": "address",
          "name": "",
          "type": "address"
        }
      ],
      "stateMutability": "view",
      "type": "function"
    }
  ],
  "bytecode": "0x608060405234801561001057600080fd5b506040516103e83803806103e8833981810160405261200081101561003457600080fd5b81019080919082611fe0018051906020019092919050505060008160ff16116100c5576040517f08c379a00000000000000000000000000000000000000000000000000000000081526004018080602001828103825260178152602001807f4e6f207061776e20696e20746865207061776e2073657400000000000000000081525060200191505060405180910390fd5b60ff8160ff16111561013f576040517f08c379a000000000000000000000000000000000000000000000000000000000815260040180806020018281038252601d8152602001807f4d6178696d756d206e756d626572206f66207061776e2069732032353500000081525060200191505060405180910390fd5b60008090505b8160ff168110156101d0576000838260ff811061015e57fe5b60200201519080600181540180825580915050600190039060005260206000200160009091909190916101000a81548173ffffffffffffffffffffffffffffffffffffffff021916908373ffffffffffffffffffffffffffffffffffffffff1602179055508080600101915050610145565b5080600160006101000a81548160ff021916908360ff16021790555050506101eb806101fd6000396000f3fe608060405234801561001057600080fd5b50600436106100365760003560e01c806368b1cc991461003b578063ed5558231461005f575b600080fd5b6100436100d0565b604051808260ff1660ff16815260200191505060405180910390f35b61008e6004803603602081101561007557600080fd5b81019080803560ff1690602001909291905050506100e7565b604051808273ffffffffffffffffffffffffffffffffffffffff1673ffffffffffffffffffffffffffffffffffffffff16815260200191505060405180910390f35b6000600160009054906101000a900460ff16905090565b6000600160009054906101000a900460ff1660ff168260ff1610610173576040517f08c379a00000000000000000000000000000000000000000000000000000000081526004018080602001828103825260168152602001807f546865207061776e20646f65736e27742065786973740000000000000000000081525060200191505060405180910390fd5b60008260ff168154811061018357fe5b9060005260206000200160009054906101000a900473ffffffffffffffffffffffffffffffffffffffff16905091905056fea26469706673582212204d7751b7fc25f92b8d5bd5fdae59360131c3d7f6b271e8af197e824c8f606ceb64736f6c634300060b0033",
  "immutableReferences": {},
  "source": "pragma solidity 0.6.11;\n\n/**\n * @title Pawn set\n * @notice Register a list of pawns used by a board\n*/\ncontract PawnSet {\n    address[] pawns;\n    uint8 pawnNb;\n\n    constructor(address[255] memory _pawns, uint8 _pawnNb) public {\n        // At least one pawn\n        require(_pawnNb > 0, \"No pawn in the pawn set\");\n        // Maximum number of pawns in a pawn set\n        require(_pawnNb <= 255, \"Maximum number of pawn is 255\");\n\n        for (uint i = 0; i < _pawnNb; i++) {\n            pawns.push(_pawns[i]);\n        }\n\n        pawnNb = _pawnNb;\n    }\n\n    /**\n     * @notice Get the number of pawns in the pawn set\n     * @return number of pawns in the pawn set\n    */\n    function getPawnNb() public view returns(uint8) {\n        return pawnNb;\n    }\n\n    /**\n     * @notice Get the address of a specific pawn of the pawn set\n     * @param index index of the pawn\n     * @return address of the pawn\n    */\n    function getPawn(uint8 index) public view returns(address) {\n        require(index < pawnNb, \"The pawn doesn't exist\");\n\n        return pawns[index];\n    }\n}",
  "sourcePath": "/Users/lucas/Desktop/ethboards/contracts/PawnSet.sol",
  "compiler": {
    "name": "solc",
    "version": "0.6.11+commit.5ef660b1.Emscripten.clang"
  },
  "schemaVersion": "3.2.2",
  "updatedAt": "2020-07-29T09:22:10.794Z",
  "networkType": "ethereum",
  "devdoc": {
    "kind": "dev",
    "methods": {
      "getPawn(uint8)": {
        "params": {
          "index": "index of the pawn"
        },
        "returns": {
          "_0": "address of the pawn"
        }
      },
      "getPawnNb()": {
        "returns": {
          "_0": "number of pawns in the pawn set"
        }
      }
    },
    "title": "Pawn set",
    "version": 1
  },
  "userdoc": {
    "kind": "user",
    "methods": {
      "getPawn(uint8)": {
        "notice": "Get the address of a specific pawn of the pawn set"
      },
      "getPawnNb()": {
        "notice": "Get the number of pawns in the pawn set"
      }
    },
    "notice": "Register a list of pawns used by a board",
    "version": 1
  }
}