{
  "contractName": "StateController",
  "abi": [
    {
      "constant": true,
      "inputs": [
        {
          "internalType": "uint8[121]",
          "name": "state",
          "type": "uint8[121]"
        }
      ],
      "name": "getPawnNumber",
      "outputs": [
        {
          "internalType": "uint8",
          "name": "",
          "type": "uint8"
        }
      ],
      "payable": false,
      "stateMutability": "pure",
      "type": "function"
    },
    {
      "constant": true,
      "inputs": [
        {
          "internalType": "uint8[121]",
          "name": "state",
          "type": "uint8[121]"
        },
        {
          "internalType": "uint8",
          "name": "pawn",
          "type": "uint8"
        }
      ],
      "name": "getPawnPosition",
      "outputs": [
        {
          "internalType": "uint8",
          "name": "",
          "type": "uint8"
        },
        {
          "internalType": "uint8",
          "name": "",
          "type": "uint8"
        }
      ],
      "payable": false,
      "stateMutability": "pure",
      "type": "function"
    },
    {
      "constant": true,
      "inputs": [
        {
          "internalType": "uint8[121]",
          "name": "state",
          "type": "uint8[121]"
        },
        {
          "internalType": "uint8",
          "name": "pawn",
          "type": "uint8"
        }
      ],
      "name": "getPawnType",
      "outputs": [
        {
          "internalType": "uint8",
          "name": "",
          "type": "uint8"
        }
      ],
      "payable": false,
      "stateMutability": "pure",
      "type": "function"
    },
    {
      "constant": true,
      "inputs": [
        {
          "internalType": "uint8[121]",
          "name": "state",
          "type": "uint8[121]"
        },
        {
          "internalType": "uint8",
          "name": "pawn",
          "type": "uint8"
        }
      ],
      "name": "isAlive",
      "outputs": [
        {
          "internalType": "bool",
          "name": "",
          "type": "bool"
        }
      ],
      "payable": false,
      "stateMutability": "pure",
      "type": "function"
    },
    {
      "constant": true,
      "inputs": [
        {
          "internalType": "uint8[121]",
          "name": "state",
          "type": "uint8[121]"
        },
        {
          "internalType": "uint8",
          "name": "x",
          "type": "uint8"
        },
        {
          "internalType": "uint256",
          "name": "y",
          "type": "uint256"
        }
      ],
      "name": "getPawnAt",
      "outputs": [
        {
          "internalType": "int8",
          "name": "",
          "type": "int8"
        }
      ],
      "payable": false,
      "stateMutability": "pure",
      "type": "function"
    },
    {
      "constant": true,
      "inputs": [
        {
          "internalType": "uint8[121]",
          "name": "state",
          "type": "uint8[121]"
        },
        {
          "internalType": "uint8",
          "name": "x",
          "type": "uint8"
        },
        {
          "internalType": "uint256",
          "name": "y",
          "type": "uint256"
        }
      ],
      "name": "noPawnAt",
      "outputs": [
        {
          "internalType": "bool",
          "name": "",
          "type": "bool"
        }
      ],
      "payable": false,
      "stateMutability": "pure",
      "type": "function"
    },
    {
      "constant": true,
      "inputs": [
        {
          "internalType": "uint8[121]",
          "name": "state",
          "type": "uint8[121]"
        },
        {
          "internalType": "uint8",
          "name": "pawn",
          "type": "uint8"
        },
        {
          "internalType": "uint8",
          "name": "x",
          "type": "uint8"
        },
        {
          "internalType": "uint8",
          "name": "y",
          "type": "uint8"
        }
      ],
      "name": "movePawn",
      "outputs": [
        {
          "internalType": "uint8[121]",
          "name": "",
          "type": "uint8[121]"
        }
      ],
      "payable": false,
      "stateMutability": "pure",
      "type": "function"
    },
    {
      "constant": true,
      "inputs": [
        {
          "internalType": "uint8[121]",
          "name": "state",
          "type": "uint8[121]"
        },
        {
          "internalType": "uint8",
          "name": "pawn",
          "type": "uint8"
        }
      ],
      "name": "removePawn",
      "outputs": [
        {
          "internalType": "uint8[121]",
          "name": "",
          "type": "uint8[121]"
        }
      ],
      "payable": false,
      "stateMutability": "pure",
      "type": "function"
    },
    {
      "constant": true,
      "inputs": [
        {
          "internalType": "uint8[121]",
          "name": "state",
          "type": "uint8[121]"
        },
        {
          "internalType": "uint8",
          "name": "pawn",
          "type": "uint8"
        },
        {
          "internalType": "uint8",
          "name": "pawnType",
          "type": "uint8"
        },
        {
          "internalType": "uint8",
          "name": "x",
          "type": "uint8"
        },
        {
          "internalType": "uint8",
          "name": "y",
          "type": "uint8"
        }
      ],
      "name": "respawnPawn",
      "outputs": [
        {
          "internalType": "uint8[121]",
          "name": "",
          "type": "uint8[121]"
        }
      ],
      "payable": false,
      "stateMutability": "pure",
      "type": "function"
    }
  ],
  "bytecode": "0x6112b4610026600b82828239805160001a60731461001957fe5b30600052607381538281f3fe730000000000000000000000000000000000000000301460806040526004361061009d5760003560e01c8063ad17c48911610070578063ad17c4891461032b578063b939b103146103b7578063d7b600b41461044f578063fbecb24e146104dd578063fcc5cedb1461058d5761009d565b806313657108146100a2578063781bdcde14610179578063803dab64146102145780638b01812814610295575b600080fd5b61013b6004803603610fa08110156100b957600080fd5b8101908080610f2001906079806020026040519081016040528092919082607960200280828437600081840152601f19601f8201169050808301925050505050509192919290803560ff169060200190929190803560ff169060200190929190803560ff169060200190929190803560ff169060200190929190505050610657565b6040518082607960200280838360005b8381101561016657808201518184015260208101905061014b565b5050505090500191505060405180910390f35b6101eb6004803603610f4081101561019057600080fd5b8101908080610f2001906079806020026040519081016040528092919082607960200280828437600081840152601f19601f8201169050808301925050505050509192919290803560ff16906020019092919050505061098c565b604051808360ff1660ff1681526020018260ff1660ff1681526020019250505060405180910390f35b6102796004803603610f2081101561022b57600080fd5b8101908080610f2001906079806020026040519081016040528092919082607960200280828437600081840152601f19601f8201169050808301925050505050509192919290505050610ae3565b604051808260ff1660ff16815260200191505060405180910390f35b6103116004803603610f608110156102ac57600080fd5b8101908080610f2001906079806020026040519081016040528092919082607960200280828437600081840152601f19601f8201169050808301925050505050509192919290803560ff16906020019092919080359060200190929190505050610afe565b604051808215151515815260200191505060405180910390f35b61039d6004803603610f4081101561034257600080fd5b8101908080610f2001906079806020026040519081016040528092919082607960200280828437600081840152601f19601f8201169050808301925050505050509192919290803560ff169060200190929190505050610b39565b604051808215151515815260200191505060405180910390f35b6104336004803603610f608110156103ce57600080fd5b8101908080610f2001906079806020026040519081016040528092919082607960200280828437600081840152601f19601f8201169050808301925050505050509192919290803560ff16906020019092919080359060200190929190505050610bec565b604051808260000b60000b815260200191505060405180910390f35b6104c16004803603610f4081101561046657600080fd5b8101908080610f2001906079806020026040519081016040528092919082607960200280828437600081840152601f19601f8201169050808301925050505050509192919290803560ff169060200190929190505050610cbf565b604051808260ff1660ff16815260200191505060405180910390f35b61054f6004803603610f408110156104f457600080fd5b8101908080610f2001906079806020026040519081016040528092919082607960200280828437600081840152601f19601f8201169050808301925050505050509192919290803560ff169060200190929190505050610dfe565b6040518082607960200280838360005b8381101561057a57808201518184015260208101905061055f565b5050505090500191505060405180910390f35b6106196004803603610f808110156105a457600080fd5b8101908080610f2001906079806020026040519081016040528092919082607960200280828437600081840152601f19601f8201169050808301925050505050509192919290803560ff169060200190929190803560ff169060200190929190803560ff169060200190929190505050610f4f565b6040518082607960200280838360005b83811015610644578082015181840152602081019050610629565b5050505090500191505060405180910390f35b61065f61125c565b60088360ff16106106d8576040517f08c379a000000000000000000000000000000000000000000000000000000000815260040180806020018281038252600e8152602001807f78206f7574206f6620626f756e6400000000000000000000000000000000000081525060200191505060405180910390fd5b60088260ff1610610751576040517f08c379a000000000000000000000000000000000000000000000000000000000815260040180806020018281038252600e8152602001807f79206f7574206f6620626f756e6400000000000000000000000000000000000081525060200191505060405180910390fd5b8560006079811061075e57fe5b602002015160ff168560ff16106107dd576040517f08c379a00000000000000000000000000000000000000000000000000000000081526004018080602001828103825260128152602001807f5061776e20646f65736e2774206578697374000000000000000000000000000081525060200191505060405180910390fd5b6000868660010160ff16607981106107f157fe5b602002015160ff161461086c576040517f08c379a00000000000000000000000000000000000000000000000000000000081526004018080602001828103825260138152602001807f5061776e206973207374696c6c20616c6976650000000000000000000000000081525060200191505060405180910390fd5b7fffffffffffffffffffffffffffffffffffffffffffffffffffffffffffffffff61089b87858560ff16610bec565b60000b14610911576040517f08c379a00000000000000000000000000000000000000000000000000000000081526004018080602001828103825260198152602001807f41207061776e20697320616c72656164792070726573656e740000000000000081525060200191505060405180910390fd5b60018401868660010160ff166079811061092757fe5b602002019060ff16908160ff168152505082868660290160ff166079811061094b57fe5b602002019060ff16908160ff168152505081868660510160ff166079811061096f57fe5b602002019060ff16908160ff168152505085905095945050505050565b6000808360006079811061099c57fe5b602002015160ff168360ff1610610a1b576040517f08c379a00000000000000000000000000000000000000000000000000000000081526004018080602001828103825260128152602001807f5061776e20646f65736e2774206578697374000000000000000000000000000081525060200191505060405180910390fd5b6000848460010160ff1660798110610a2f57fe5b602002015160ff1611610aaa576040517f08c379a000000000000000000000000000000000000000000000000000000000815260040180806020018281038252600c8152602001807f5061776e2069732064656164000000000000000000000000000000000000000081525060200191505060405180910390fd5b838360290160ff1660798110610abc57fe5b6020020151848460510160ff1660798110610ad357fe5b6020020151915091509250929050565b600081600060798110610af257fe5b60200201519050919050565b60007fffffffffffffffffffffffffffffffffffffffffffffffffffffffffffffffff610b2c858585610bec565b60000b1490509392505050565b600082600060798110610b4857fe5b602002015160ff168260ff1610610bc7576040517f08c379a00000000000000000000000000000000000000000000000000000000081526004018080602001828103825260128152602001807f5061776e20646f65736e2774206578697374000000000000000000000000000081525060200191505060405180910390fd5b6000838360010160ff1660798110610bdb57fe5b602002015160ff1611905092915050565b600080610bf885610ae3565b905060008090505b8160ff168160ff161015610c92576000868260010160ff1660798110610c2257fe5b602002015160ff16118015610c5257508460ff16868260290160ff1660798110610c4857fe5b602002015160ff16145b8015610c76575083868260510160ff1660798110610c6c57fe5b602002015160ff16145b15610c85578092505050610cb8565b8080600101915050610c00565b507fffffffffffffffffffffffffffffffffffffffffffffffffffffffffffffffff9150505b9392505050565b600082600060798110610cce57fe5b602002015160ff168260ff1610610d4d576040517f08c379a00000000000000000000000000000000000000000000000000000000081526004018080602001828103825260128152602001807f5061776e20646f65736e2774206578697374000000000000000000000000000081525060200191505060405180910390fd5b6000838360010160ff1660798110610d6157fe5b602002015160ff1611610ddc576040517f08c379a000000000000000000000000000000000000000000000000000000000815260040180806020018281038252600c8152602001807f5061776e2069732064656164000000000000000000000000000000000000000081525060200191505060405180910390fd5b6001838360010160ff1660798110610df057fe5b602002015103905092915050565b610e0661125c565b82600060798110610e1357fe5b602002015160ff168260ff1610610e92576040517f08c379a00000000000000000000000000000000000000000000000000000000081526004018080602001828103825260128152602001807f5061776e20646f65736e2774206578697374000000000000000000000000000081525060200191505060405180910390fd5b6000838360010160ff1660798110610ea657fe5b602002015160ff1611610f21576040517f08c379a000000000000000000000000000000000000000000000000000000000815260040180806020018281038252600c8152602001807f5061776e2069732064656164000000000000000000000000000000000000000081525060200191505060405180910390fd5b6000838360010160ff1660798110610f3557fe5b602002019060ff16908160ff168152505082905092915050565b610f5761125c565b60088360ff1610610fd0576040517f08c379a000000000000000000000000000000000000000000000000000000000815260040180806020018281038252600e8152602001807f78206f7574206f6620626f756e6400000000000000000000000000000000000081525060200191505060405180910390fd5b60088260ff1610611049576040517f08c379a000000000000000000000000000000000000000000000000000000000815260040180806020018281038252600e8152602001807f79206f7574206f6620626f756e6400000000000000000000000000000000000081525060200191505060405180910390fd5b8460006079811061105657fe5b602002015160ff168460ff16106110d5576040517f08c379a00000000000000000000000000000000000000000000000000000000081526004018080602001828103825260128152602001807f5061776e20646f65736e2774206578697374000000000000000000000000000081525060200191505060405180910390fd5b6000858560010160ff16607981106110e957fe5b602002015160ff1611611164576040517f08c379a000000000000000000000000000000000000000000000000000000000815260040180806020018281038252600c8152602001807f5061776e2069732064656164000000000000000000000000000000000000000081525060200191505060405180910390fd5b7fffffffffffffffffffffffffffffffffffffffffffffffffffffffffffffffff61119386858560ff16610bec565b60000b14611209576040517f08c379a00000000000000000000000000000000000000000000000000000000081526004018080602001828103825260198152602001807f41207061776e20697320616c72656164792070726573656e740000000000000081525060200191505060405180910390fd5b82858560290160ff166079811061121c57fe5b602002019060ff16908160ff168152505081858560510160ff166079811061124057fe5b602002019060ff16908160ff1681525050849050949350505050565b60405180610f20016040528060799060208202803883398082019150509050509056fea265627a7a7231582045884602eb7d10509dd9e5b2b588d320c827d5f79088e0c6313d56eb2b3a59e264736f6c63430005100032",
  "source": "pragma solidity 0.5.16;\n\n/*\nState:\nuint8[1] nbPawn,\nuint8[40] pawnId,\nuint8[40] xPosistion,\nuint8[40] yPosisiton,\n*/\n\n/*\nMove\nuint8 pawn\nuint8 type\nuint8 x\nuint8 y\n*/\n\n/**\n * @title State controller\n * @author Lucas Bertrand\n * @notice Contain function to control transition of the state\n*/\nlibrary StateController {\n\n    /**\n    * State observation utilitary function\n    */\n\n    // Get the initial number of pawn\n    function getPawnNumber(uint8[121] memory state) public pure returns (uint8) {\n        return state[0];\n    }\n\n    // Get the position of a specific pawn\n    function getPawnPosition(uint8[121] memory state, uint8 pawn) public pure returns (uint8, uint8) {\n        // Require the pawn exist\n        require(pawn < state[0], \"Pawn doesn't exist\");\n        require(state[1+pawn] > 0, \"Pawn is dead\");\n\n        return (state[41+pawn], state[81+pawn]);\n    }\n\n    // Get the type of the pawn\n    function getPawnType(uint8[121] memory state, uint8 pawn) public pure returns (uint8) {\n        // Require the pawn exist\n        require(pawn < state[0], \"Pawn doesn't exist\");\n        require(state[1+pawn] > 0, \"Pawn is dead\");\n\n        return state[1+pawn]-1;\n    }\n\n    function isAlive(uint8[121] memory state, uint8 pawn) public pure returns (bool) {\n        // Require the pawn exist\n        require(pawn < state[0], \"Pawn doesn't exist\");\n        return state[1+pawn] > 0;\n    }\n\n    // Get the pawn id in a position\n    function getPawnAt(uint8[121] memory state, uint8 x, uint y) public pure returns (int8) {\n        uint8 pawnNb = getPawnNumber(state);\n        for (uint8 i = 0; i < pawnNb; i++) {\n            if (state[1+i] > 0 && state[41+i] == x && state[81+i] == y) {\n                return int8(i);\n            }\n        }\n\n        return -1;\n    }\n\n    function noPawnAt(uint8[121] memory state, uint8 x, uint y)  public pure returns (bool) {\n        return getPawnAt(state, x, y) == -1;\n    }\n\n    /**\n    * State transition utilitary function\n    */\n\n    // Move a pawn\n    function movePawn(uint8[121] memory state, uint8 pawn, uint8 x, uint8 y) public pure returns (uint8[121] memory) {\n        require(x < 8, \"x out of bound\");\n        require(y < 8, \"y out of bound\");\n        require(pawn < state[0], \"Pawn doesn't exist\");\n        require(state[1+pawn] > 0, \"Pawn is dead\");\n        require(getPawnAt(state, x, y) == -1, \"A pawn is already present\");\n\n        state[41+pawn] = x;\n        state[81+pawn] = y;\n\n        return state;\n    }\n\n    // Remove a pawn\n    function removePawn(uint8[121] memory state, uint8 pawn) public pure returns (uint8[121] memory) {\n        require(pawn < state[0], \"Pawn doesn't exist\");\n        require(state[1+pawn] > 0, \"Pawn is dead\");\n\n        state[1+pawn] = 0;\n\n        return state;\n    }\n\n    // Respawn a pawn\n    function respawnPawn(uint8[121] memory state, uint8 pawn, uint8 pawnType, uint8 x, uint8 y) public pure returns (uint8[121] memory) {\n        require(x < 8, \"x out of bound\");\n        require(y < 8, \"y out of bound\");\n        require(pawn < state[0], \"Pawn doesn't exist\");\n        require(state[1+pawn] == 0, \"Pawn is still alive\");\n        require(getPawnAt(state, x, y) == -1, \"A pawn is already present\");\n\n        state[1+pawn] = pawnType + 1;\n        state[41+pawn] = x;\n        state[81+pawn] = y;\n\n        return state;\n    }\n}\n",
  "sourcePath": "/Users/lucas/Desktop/ethboards/contracts/StateController.sol",
  "compiler": {
    "name": "solc",
    "version": "0.5.16+commit.9c3226ce.Emscripten.clang"
  },
  "schemaVersion": "3.2.0",
  "updatedAt": "2020-07-02T11:59:55.464Z",
  "networkType": "ethereum",
  "devdoc": {
    "author": "Lucas Bertrand",
    "methods": {},
    "title": "State controller"
  },
  "userdoc": {
    "methods": {
      "getPawnNumber(uint8[121])": {
        "notice": "State observation utilitary function"
      },
      "movePawn(uint8[121],uint8,uint8,uint8)": {
        "notice": "State transition utilitary function"
      }
    },
    "notice": "Contain function to control transition of the state"
  }
}