{
  "contractName": "WarfieldBoard",
  "abi": [
    {
      "inputs": [
        {
          "internalType": "uint8",
          "name": "player",
          "type": "uint8"
        },
        {
          "internalType": "uint8[121]",
          "name": "state",
          "type": "uint8[121]"
        }
      ],
      "name": "checkVictory",
      "outputs": [
        {
          "internalType": "bool",
          "name": "",
          "type": "bool"
        }
      ],
      "stateMutability": "view",
      "type": "function",
      "constant": true
    }
  ],
  "bytecode": "0x608060405234801561001057600080fd5b50610533806100206000396000f3fe608060405234801561001057600080fd5b506004361061002b5760003560e01c8063110f250114610030575b600080fd5b61006b6004803603610f4081101561004757600080fd5b81019080803560ff16906020019092919080610f2001909192919290505050610085565b604051808215151515815260200191505060405180910390f35b6000808360ff1614156102c45760008090505b60288160ff1610156102be57826079806020026040519081016040528092919082607960200280828437600081840152601f19601f82011690508083019250505050505073__StateController_______________________63ad17c4899091836040518363ffffffff1660e01b81526004018083607960200280838360005b83811015610133578082015181840152602081019050610118565b505050509050018260ff1660ff1681526020019250505060206040518083038186803b15801561016257600080fd5b505af4158015610176573d6000803e3d6000fd5b505050506040513d602081101561018c57600080fd5b8101908080519060200190929190505050156102b1576004836079806020026040519081016040528092919082607960200280828437600081840152601f19601f82011690508083019250505050505073__StateController_______________________63d7b600b49091846040518363ffffffff1660e01b81526004018083607960200280838360005b83811015610233578082015181840152602081019050610218565b505050509050018260ff1660ff1681526020019250505060206040518083038186803b15801561026257600080fd5b505af4158015610276573d6000803e3d6000fd5b505050506040513d602081101561028c57600080fd5b810190808051906020019092919050505060ff1614156102b05760009150506104f7565b5b8080600101915050610098565b506104f2565b60008090505b60288160ff1610156104f057826079806020026040519081016040528092919082607960200280828437600081840152601f19601f82011690508083019250505050505073__StateController_______________________63ad17c4899091836040518363ffffffff1660e01b81526004018083607960200280838360005b8381101561036557808201518184015260208101905061034a565b505050509050018260ff1660ff1681526020019250505060206040518083038186803b15801561039457600080fd5b505af41580156103a8573d6000803e3d6000fd5b505050506040513d60208110156103be57600080fd5b8101908080519060200190929190505050156104e3576000836079806020026040519081016040528092919082607960200280828437600081840152601f19601f82011690508083019250505050505073__StateController_______________________63d7b600b49091846040518363ffffffff1660e01b81526004018083607960200280838360005b8381101561046557808201518184015260208101905061044a565b505050509050018260ff1660ff1681526020019250505060206040518083038186803b15801561049457600080fd5b505af41580156104a8573d6000803e3d6000fd5b505050506040513d60208110156104be57600080fd5b810190808051906020019092919050505060ff1614156104e25760009150506104f7565b5b80806001019150506102ca565b505b600190505b9291505056fea264697066735822122070c7ac5a5aadab8dfe26e104ec9d59bbdeb7fafa31887a93962ab69d4e64f2d064736f6c634300060b0033",
  "immutableReferences": {},
  "source": "pragma solidity 0.6.11;\n\nimport \"../Board.sol\";\nimport \"../StateController.sol\";\n\ncontract WarfieldBoard is Board {\n    using StateController for uint8[121];\n\n    // This is no real chess, we check if the king has been killed to determine the victory\n    function checkVictory(uint8 player, uint8[121] calldata state) external override view returns(bool) {\n        if (player == 0) {\n            // Player A win if all red bases are captured\n            for (uint8 i = 0; i < 40; i++) {\n                if (state.isAlive(i)) {\n                    // Pawn 4 should be a red base\n                    if (state.getPawnType(i) == 4) {\n                        return false;\n                    }\n                }\n            }\n        } else {\n            // Player B win if all blue bases are captured\n             for (uint8 i = 0; i < 40; i++) {\n                if (state.isAlive(i)) {\n                    // Pawn 0 should be a blue base\n                    if (state.getPawnType(i) == 0) {\n                        return false;\n                    }\n                }\n            }\n        }\n\n        return true;\n    }\n}",
  "sourcePath": "/Users/lucas/Desktop/ethboards/contracts/Board/WarfieldBoard.sol",
  "compiler": {
    "name": "solc",
    "version": "0.6.11+commit.5ef660b1.Emscripten.clang"
  },
  "schemaVersion": "3.2.2",
  "updatedAt": "2020-07-27T14:24:02.376Z",
  "networkType": "ethereum",
  "devdoc": {
    "kind": "dev",
    "methods": {
      "checkVictory(uint8,uint8[121])": {
        "params": {
          "player": "the player we want to check as victorious",
          "state": "the state of the game"
        },
        "returns": {
          "_0": "true if the player is victorious, false otherwise"
        }
      }
    },
    "version": 1
  },
  "userdoc": {
    "kind": "user",
    "methods": {
      "checkVictory(uint8,uint8[121])": {
        "notice": "Check if the state of a game of the board is victorious for a player"
      }
    },
    "version": 1
  }
}