{
  "contractName": "WarfieldBoard",
  "abi": [
    {
      "inputs": [],
      "name": "getMetadata",
      "outputs": [
        {
          "internalType": "string",
          "name": "",
          "type": "string"
        }
      ],
      "stateMutability": "view",
      "type": "function",
      "constant": true
    },
    {
      "inputs": [
        {
          "internalType": "uint8",
          "name": "player",
          "type": "uint8"
        },
        {
          "internalType": "uint8[121]",
          "name": "state",
          "type": "uint8[121]"
        }
      ],
      "name": "checkVictory",
      "outputs": [
        {
          "internalType": "bool",
          "name": "",
          "type": "bool"
        }
      ],
      "stateMutability": "view",
      "type": "function",
      "constant": true
    }
  ],
  "bytecode": "0x608060405234801561001057600080fd5b506105cf806100206000396000f3fe608060405234801561001057600080fd5b50600436106100365760003560e01c8063110f25011461003b5780637a5b4f5914610090575b600080fd5b6100766004803603610f4081101561005257600080fd5b81019080803560ff16906020019092919080610f2001909192919290505050610113565b604051808215151515815260200191505060405180910390f35b610098610545565b6040518080602001828103825283818151815260200191508051906020019080838360005b838110156100d85780820151818401526020810190506100bd565b50505050905090810190601f1680156101055780820380516001836020036101000a031916815260200191505b509250505060405180910390f35b6000808360ff16141561032f57816079806020026040519081016040528092919082607960200280828437600081840152601f19601f82011690508083019250505050505073__StateController_______________________63ad17c489909160016040518363ffffffff1660e01b81526004018083607960200280838360005b838110156101b0578082015181840152602081019050610195565b505050509050018260ff1681526020019250505060206040518083038186803b1580156101dc57600080fd5b505af41580156101f0573d6000803e3d6000fd5b505050506040513d602081101561020657600080fd5b8101908080519060200190929190505050801561031c57506009826079806020026040519081016040528092919082607960200280828437600081840152601f19601f82011690508083019250505050505073__StateController_______________________63d7b600b4909160016040518363ffffffff1660e01b81526004018083607960200280838360005b838110156102b0578082015181840152602081019050610295565b505050509050018260ff1681526020019250505060206040518083038186803b1580156102dc57600080fd5b505af41580156102f0573d6000803e3d6000fd5b505050506040513d602081101561030657600080fd5b810190808051906020019092919050505060ff16145b1561032a576000905061053f565b61053a565b816079806020026040519081016040528092919082607960200280828437600081840152601f19601f82011690508083019250505050505073__StateController_______________________63ad17c489909160006040518363ffffffff1660e01b81526004018083607960200280838360005b838110156103bf5780820151818401526020810190506103a4565b505050509050018260ff1681526020019250505060206040518083038186803b1580156103eb57600080fd5b505af41580156103ff573d6000803e3d6000fd5b505050506040513d602081101561041557600080fd5b8101908080519060200190929190505050801561052b57506008826079806020026040519081016040528092919082607960200280828437600081840152601f19601f82011690508083019250505050505073__StateController_______________________63d7b600b4909160006040518363ffffffff1660e01b81526004018083607960200280838360005b838110156104bf5780820151818401526020810190506104a4565b505050509050018260ff1681526020019250505060206040518083038186803b1580156104eb57600080fd5b505af41580156104ff573d6000803e3d6000fd5b505050506040513d602081101561051557600080fd5b810190808051906020019092919050505060ff16145b15610539576000905061053f565b5b600190505b92915050565b60606040518060600160405280603481526020016105666034913990509056fe2f697066732f516d4e5545475678703466724d396f476d53585144336a5a6957796f42726e5a3859417935386865375a4b775379a26469706673582212209ff81f3738a3582afb56943df1b2fb14c09bc21bb7c8c4e8fe2c7371315d2bd364736f6c634300060b0033",
  "immutableReferences": {},
  "source": "pragma solidity 0.6.11;\n\nimport \"../Board.sol\";\nimport \"../StateController.sol\";\n\ncontract WarfieldBoard is Board {\n    using StateController for uint8[121];\n\n    function getMetadata() external override view returns (string memory) {\n        return '/ipfs/QmNUEGVxp4frM9oGmSXQD3jZiWyoBrnZ8YAy58he7ZKwSy';\n    }\n\n    function checkVictory(uint8 player, uint8[121] calldata state) external override view returns(bool) {\n        if (player == 0) {\n            // Player A win if the red headquarter is captured\n            if (state.isAlive(1) && state.getPawnType(1) == 9) {\n                return false;\n            }\n        } else {\n            // Player B win if the blue headquarter is captured\n            if (state.isAlive(0) && state.getPawnType(0) == 8) {\n                return false;\n            }\n        }\n\n        return true;\n    }\n}",
  "sourcePath": "/Users/lucas/Desktop/ethboards/contracts/Board/WarfieldBoard.sol",
  "compiler": {
    "name": "solc",
    "version": "0.6.11+commit.5ef660b1.Emscripten.clang"
  },
  "schemaVersion": "3.2.2",
  "updatedAt": "2020-07-29T19:27:01.381Z",
  "networkType": "ethereum",
  "devdoc": {
    "kind": "dev",
    "methods": {
      "checkVictory(uint8,uint8[121])": {
        "params": {
          "player": "the player we want to check as victorious",
          "state": "the state of the game"
        },
        "returns": {
          "_0": "true if the player is victorious, false otherwise"
        }
      },
      "getMetadata()": {
        "returns": {
          "_0": "the string a allows to retrieve metadata (e.g IPFS hash)"
        }
      }
    },
    "version": 1
  },
  "userdoc": {
    "kind": "user",
    "methods": {
      "checkVictory(uint8,uint8[121])": {
        "notice": "Check if the state of a game of the board is victorious for a player"
      },
      "getMetadata()": {
        "notice": "Allow to retrieve the metadata of the board"
      }
    },
    "version": 1
  }
}