{
  "contractName": "WhiteQueen",
  "abi": [
    {
      "constant": true,
      "inputs": [],
      "name": "getMetadata",
      "outputs": [
        {
          "internalType": "string",
          "name": "etadata",
          "type": "string"
        }
      ],
      "payable": false,
      "stateMutability": "view",
      "type": "function"
    },
    {
      "constant": true,
      "inputs": [],
      "name": "getMoveNumber",
      "outputs": [
        {
          "internalType": "uint8",
          "name": "",
          "type": "uint8"
        }
      ],
      "payable": false,
      "stateMutability": "pure",
      "type": "function"
    },
    {
      "constant": true,
      "inputs": [
        {
          "internalType": "uint8",
          "name": "player",
          "type": "uint8"
        },
        {
          "internalType": "uint8",
          "name": "pawn",
          "type": "uint8"
        },
        {
          "internalType": "uint8",
          "name": "moveType",
          "type": "uint8"
        },
        {
          "internalType": "uint8",
          "name": "x",
          "type": "uint8"
        },
        {
          "internalType": "uint8",
          "name": "y",
          "type": "uint8"
        },
        {
          "internalType": "uint8[121]",
          "name": "state",
          "type": "uint8[121]"
        }
      ],
      "name": "performMove",
      "outputs": [
        {
          "internalType": "uint8[121]",
          "name": "outState",
          "type": "uint8[121]"
        }
      ],
      "payable": false,
      "stateMutability": "pure",
      "type": "function"
    }
  ],
  "bytecode": "0x608060405234801561001057600080fd5b5061126b806100206000396000f3fe608060405234801561001057600080fd5b50600436106100415760003560e01c8063374f2ea114610046578063734fbab6146100f35780637a5b4f5914610117575b600080fd5b6100b56004803603610fc081101561005d57600080fd5b81019080803560ff169060200190929190803560ff169060200190929190803560ff169060200190929190803560ff169060200190929190803560ff16906020019092919080610f200190919291929050505061019a565b6040518082607960200280838360005b838110156100e05780820151818401526020810190506100c5565b5050505090500191505060405180910390f35b6100fb611060565b604051808260ff1660ff16815260200191505060405180910390f35b61011f611069565b6040518080602001828103825283818151815260200191508051906020019080838360005b8381101561015f578082015181840152602081019050610144565b50505050905090810190601f16801561018c5780820380516001836020036101000a031916815260200191505b509250505060405180910390f35b6101a26111bd565b60008560ff161461021b576040517f08c379a000000000000000000000000000000000000000000000000000000000815260040180806020018281038252601b8152602001807f5061776e20636f6e7461696e73206f6e6c79206f6e65206d6f7665000000000081525060200191505060405180910390fd5b61025d826079806020026040519081016040528092919082607960200280828437600081840152601f19601f8201169050808301925050505050508888611089565b156102d0576040517f08c379a000000000000000000000000000000000000000000000000000000000815260040180806020018281038252601e8152602001807f506c617965722063616e2774206d6f76652061207768697465207061776e000081525060200191505060405180910390fd5b60088460ff1610806102e5575060088360ff16105b610357576040517f08c379a00000000000000000000000000000000000000000000000000000000081526004018080602001828103825260118152602001807f4d6f7665206f7574206f6620626f756e6400000000000000000000000000000081525060200191505060405180910390fd5b600080836079806020026040519081016040528092919082607960200280828437600081840152601f19601f82011690508083019250505050505073__StateController_______________________63781bdcde90918a6040518363ffffffff1660e01b81526004018083607960200280838360005b838110156103e95780820151818401526020810190506103ce565b505050509050018260ff1660ff16815260200192505050604080518083038186803b15801561041757600080fd5b505af415801561042b573d6000803e3d6000fd5b505050506040513d604081101561044157600080fd5b810190808051906020019092919080519060200190929190505050915091508160ff168660ff1614158061047b57508060ff168560ff1614155b6104ed576040517f08c379a000000000000000000000000000000000000000000000000000000000815260040180806020018281038252601c8152602001807f4d757374206265206120646966666572656e7420706f736974696f6e0000000081525060200191505060405180910390fd5b6000806000806104fe858a0361119f565b60ff1661050c878c0361119f565b60ff161415610737578593508492508960ff168660ff1610610551577fffffffffffffffffffffffffffffffffffffffffffffffffffffffffffffffff915081610557565b60019150815b508860ff168560ff161061058e577fffffffffffffffffffffffffffffffffffffffffffffffffffffffffffffffff905080610594565b60019050805b50818401935080830192505b8960ff168460ff161461073257876079806020026040519081016040528092919082607960200280828437600081840152601f19601f82011690508083019250505050505073__StateController_______________________638b018128909186866040518463ffffffff1660e01b81526004018084607960200280838360005b8381101561063d578082015181840152602081019050610622565b505050509050018360ff1660ff1681526020018260ff168152602001935050505060206040518083038186803b15801561067657600080fd5b505af415801561068a573d6000803e3d6000fd5b505050506040513d60208110156106a057600080fd5b8101908080519060200190929190505050610723576040517f08c379a00000000000000000000000000000000000000000000000000000000081526004018080602001828103825260108152602001807f5061776e206f6e2074686520726f61640000000000000000000000000000000081525060200191505060405180910390fd5b818401935080830192506105a0565b610b56565b8560ff168a60ff16141561091d578493508860ff168560ff161061077e577fffffffffffffffffffffffffffffffffffffffffffffffffffffffffffffffff905080610784565b60019050805b5080840193505b8860ff168460ff161461091857876079806020026040519081016040528092919082607960200280828437600081840152601f19601f82011690508083019250505050505073__StateController_______________________638b01812890918c876040518463ffffffff1660e01b81526004018084607960200280838360005b8381101561082857808201518184015260208101905061080d565b505050509050018360ff1660ff1681526020018260ff168152602001935050505060206040518083038186803b15801561086157600080fd5b505af4158015610875573d6000803e3d6000fd5b505050506040513d602081101561088b57600080fd5b810190808051906020019092919050505061090e576040517f08c379a00000000000000000000000000000000000000000000000000000000081526004018080602001828103825260108152602001807f5061776e206f6e2074686520726f61640000000000000000000000000000000081525060200191505060405180910390fd5b808401935061078b565b610b55565b8460ff168960ff161415610b03578593508960ff168660ff1610610964577fffffffffffffffffffffffffffffffffffffffffffffffffffffffffffffffff91508161096a565b60019150815b5081840193505b8960ff168460ff1614610afe57876079806020026040519081016040528092919082607960200280828437600081840152601f19601f82011690508083019250505050505073__StateController_______________________638b0181289091868c6040518463ffffffff1660e01b81526004018084607960200280838360005b83811015610a0e5780820151818401526020810190506109f3565b505050509050018360ff1660ff1681526020018260ff168152602001935050505060206040518083038186803b158015610a4757600080fd5b505af4158015610a5b573d6000803e3d6000fd5b505050506040513d6020811015610a7157600080fd5b8101908080519060200190929190505050610af4576040517f08c379a00000000000000000000000000000000000000000000000000000000081526004018080602001828103825260108152602001807f5061776e206f6e2074686520726f61640000000000000000000000000000000081525060200191505060405180910390fd5b8184019350610971565b610b54565b6040517f08c379a00000000000000000000000000000000000000000000000000000000081526004018080602001828103825260228152602001806112156022913960400191505060405180910390fd5b5b5b6000886079806020026040519081016040528092919082607960200280828437600081840152601f19601f82011690508083019250505050505073__StateController_______________________63b939b10390918d8d6040518463ffffffff1660e01b81526004018084607960200280838360005b83811015610be8578082015181840152602081019050610bcd565b505050509050018360ff1660ff1681526020018260ff168152602001935050505060206040518083038186803b158015610c2157600080fd5b505af4158015610c35573d6000803e3d6000fd5b505050506040513d6020811015610c4b57600080fd5b810190808051906020019092919050505090507fffffffffffffffffffffffffffffffffffffffffffffffffffffffffffffffff8160000b14610f2c57610cca896079806020026040519081016040528092919082607960200280828437600081840152601f19601f8201169050808301925050505050508f83611089565b610d3c576040517f08c379a000000000000000000000000000000000000000000000000000000000815260040180806020018281038252601d8152602001807f546865207061776e2070726573656e74206973206e6f74206120666f6500000081525060200191505060405180910390fd5b886079806020026040519081016040528092919082607960200280828437600081840152601f19601f82011690508083019250505050505073__StateController_______________________63fbecb24e9091836040518363ffffffff1660e01b81526004018083607960200280838360005b83811015610dcb578082015181840152602081019050610db0565b505050509050018260ff1660ff16815260200192505050610f206040518083038186803b158015610dfb57600080fd5b505af4158015610e0f573d6000803e3d6000fd5b505050506040513d601f19601f82011682018060405250610f20811015610e3557600080fd5b810190809190505097508773__StateController_______________________63fcc5cedb90918f8e8e6040518563ffffffff1660e01b81526004018085607960200280838360005b83811015610e99578082015181840152602081019050610e7e565b505050509050018460ff1660ff1681526020018360ff1660ff1681526020018260ff1660ff168152602001945050505050610f206040518083038186803b158015610ee357600080fd5b505af4158015610ef7573d6000803e3d6000fd5b505050506040513d601f19601f82011682018060405250610f20811015610f1d57600080fd5b8101908091905050975061104c565b886079806020026040519081016040528092919082607960200280828437600081840152601f19601f82011690508083019250505050505073__StateController_______________________63fcc5cedb90918f8e8e6040518563ffffffff1660e01b81526004018085607960200280838360005b83811015610fbd578082015181840152602081019050610fa2565b505050509050018460ff1660ff1681526020018360ff1660ff1681526020018260ff1660ff168152602001945050505050610f206040518083038186803b15801561100757600080fd5b505af415801561101b573d6000803e3d6000fd5b505050506040513d601f19601f82011682018060405250610f2081101561104157600080fd5b810190809190505097505b879750505050505050509695505050505050565b60006001905090565b60606040518060600160405280603481526020016111e160349139905090565b6000808473__StateController_______________________63d7b600b49091856040518363ffffffff1660e01b81526004018083607960200280838360005b838110156110e45780820151818401526020810190506110c9565b505050509050018260ff1660ff1681526020019250505060206040518083038186803b15801561111357600080fd5b505af4158015611127573d6000803e3d6000fd5b505050506040513d602081101561113d57600080fd5b8101908080519060200190929190505050905060008460ff16141561117c5760058160ff161115611172576001915050611198565b6000915050611198565b60068160ff161015611192576001915050611198565b60009150505b9392505050565b6000808260000b126111b157816111b6565b816000035b9050919050565b60405180610f20016040528060799060208202803883398082019150509050509056fe2f697066732f516d5a4447694e7559395a566e435536745a6d43716a4a394261777433627453504b5369577966736b714a7764794d6f7665206e65697468657220646961676f6e616c206e6f72207374726169676874a265627a7a72315820ec78c6c5fbb9b0f2be481257289392a9d8df41b6040b6e6dd1a0be19eaba1e2b64736f6c63430005100032",
  "source": "pragma solidity 0.5.16;\n\nimport \"./ChessPawn.sol\";\nimport \"../Pawn.sol\";\nimport \"../StateController.sol\";\n\ncontract WhiteQueen is Pawn, ChessPawn {\n    using StateController for uint8[121];\n\n    function getMetadata() external view returns (string memory etadata) {\n        return '/ipfs/QmZDGiNuY9ZVnCU6tZmCqjJ9Bawt3btSPKSiWyfskqJwdy';\n    }\n    function getMoveNumber() external pure returns(uint8) {\n        return 1;\n    }\n\n    function performMove(\n        uint8 player,\n        uint8 pawn,\n        uint8 moveType,\n        uint8 x,\n        uint8 y,\n        uint8[121] calldata state\n    ) external pure returns(uint8[121] memory outState) {\n        require(moveType == 0, \"Pawn contains only one move\");\n        require(!isFoe(state, player, pawn), \"Player can't move a white pawn\");\n        require(x<8 || y<8, \"Move out of bound\");\n\n        // Get old positions\n        (uint8 oldX, uint8 oldY) = state.getPawnPosition(pawn);\n        require(x!=oldX || y!=oldY, \"Must be a different position\");\n\n        // Iteration to verify no pawn on the road\n        int8 i;\n        int8 j;\n        int8 incrementX;\n        int8 incrementY;\n        if (abs(int8(x)-int8(oldX)) == abs(int8(y)-int8(oldY))) {\n            // Iteration when diagonal direction\n            i = int8(oldX);\n            j = int8(oldY);\n            oldX < x ? incrementX = 1 : incrementX = -1;\n            oldY < y ? incrementY = 1 : incrementY = -1;\n\n            i += incrementX;\n            j += incrementY;\n            while (uint8(i)!=x) {\n                require(state.noPawnAt(uint8(i), uint8(j)), \"Pawn on the road\");\n                i += incrementX;\n                j += incrementY;\n            }\n        } else if (x==oldX) {\n            // Iteration when vertical direction\n            i = int8(oldY);\n            oldY < y ? incrementY = 1 : incrementY = -1;\n            i += incrementY;\n            while (uint8(i)!=y) {\n                require(state.noPawnAt(x, uint8(i)), \"Pawn on the road\");\n                i += incrementY;\n            }\n        } else if (y==oldY) {\n            // Iteration when horizontal direction\n            i = int8(oldX);\n            oldX < x ? incrementX = 1 : incrementX = -1;\n            i += incrementX;\n            while (uint8(i)!=x) {\n                require(state.noPawnAt(uint8(i), y), \"Pawn on the road\");\n                i += incrementX;\n            }\n        } else {\n            // Must be a straight move\n            revert(\"Move neither diagonal nor straight\");\n        }\n\n        // If a foe is present in the destination, kill it\n        int8 presentPawn = state.getPawnAt(x, y);\n        if (presentPawn != -1) {\n            require(isFoe(state, player, uint8(presentPawn)), \"The pawn present is not a foe\");\n            outState = state.removePawn(uint8(presentPawn));\n            outState = outState.movePawn(pawn, x, y);\n        } else {\n            outState = state.movePawn(pawn, x, y);\n        }\n\n        return outState;\n    }\n}\n",
  "sourcePath": "/Users/lucas/Desktop/ethboards/contracts/Chess/WhiteQueen.sol",
  "compiler": {
    "name": "solc",
    "version": "0.5.16+commit.9c3226ce.Emscripten.clang"
  },
  "schemaVersion": "3.2.0",
  "updatedAt": "2020-07-02T11:59:55.490Z",
  "networkType": "ethereum",
  "devdoc": {
    "methods": {}
  },
  "userdoc": {
    "methods": {}
  }
}