{
  "contractName": "NujaBattle",
  "abi": [
    {
      "inputs": [],
      "payable": false,
      "stateMutability": "nonpayable",
      "type": "constructor"
    },
    {
      "constant": false,
      "inputs": [],
      "name": "deployServer",
      "outputs": [],
      "payable": false,
      "stateMutability": "nonpayable",
      "type": "function"
    },
    {
      "constant": true,
      "inputs": [
        {
          "name": "x",
          "type": "uint256"
        },
        {
          "name": "y",
          "type": "uint256"
        }
      ],
      "name": "getField",
      "outputs": [
        {
          "name": "buildingRet",
          "type": "uint8"
        },
        {
          "name": "characterRet",
          "type": "uint8"
        }
      ],
      "payable": false,
      "stateMutability": "view",
      "type": "function"
    },
    {
      "constant": true,
      "inputs": [
        {
          "name": "index",
          "type": "uint256"
        }
      ],
      "name": "getPlayerInfo",
      "outputs": [
        {
          "name": "nameRet",
          "type": "string"
        },
        {
          "name": "healthRet",
          "type": "uint256"
        },
        {
          "name": "numberRet",
          "type": "uint256"
        },
        {
          "name": "ownerRet",
          "type": "address"
        },
        {
          "name": "positionXRet",
          "type": "uint8"
        },
        {
          "name": "positionYRet",
          "type": "uint8"
        },
        {
          "name": "ipfsRet",
          "type": "string"
        }
      ],
      "payable": false,
      "stateMutability": "view",
      "type": "function"
    },
    {
      "constant": true,
      "inputs": [
        {
          "name": "addr",
          "type": "address"
        }
      ],
      "name": "isTurn",
      "outputs": [
        {
          "name": "ret",
          "type": "bool"
        }
      ],
      "payable": false,
      "stateMutability": "view",
      "type": "function"
    },
    {
      "constant": false,
      "inputs": [
        {
          "name": "command",
          "type": "uint256"
        }
      ],
      "name": "play",
      "outputs": [],
      "payable": false,
      "stateMutability": "nonpayable",
      "type": "function"
    },
    {
      "constant": false,
      "inputs": [
        {
          "name": "newFee",
          "type": "uint256"
        }
      ],
      "name": "changeCharacterFee",
      "outputs": [],
      "payable": false,
      "stateMutability": "nonpayable",
      "type": "function"
    },
    {
      "constant": false,
      "inputs": [
        {
          "name": "newFee",
          "type": "uint256"
        }
      ],
      "name": "changeServerFee",
      "outputs": [],
      "payable": false,
      "stateMutability": "nonpayable",
      "type": "function"
    },
    {
      "constant": true,
      "inputs": [],
      "name": "getOwner",
      "outputs": [
        {
          "name": "ret",
          "type": "address"
        }
      ],
      "payable": false,
      "stateMutability": "view",
      "type": "function"
    },
    {
      "constant": true,
      "inputs": [],
      "name": "getCharacterNb",
      "outputs": [
        {
          "name": "ret",
          "type": "uint256"
        }
      ],
      "payable": false,
      "stateMutability": "view",
      "type": "function"
    },
    {
      "constant": true,
      "inputs": [],
      "name": "getServerNb",
      "outputs": [
        {
          "name": "ret",
          "type": "uint256"
        }
      ],
      "payable": false,
      "stateMutability": "view",
      "type": "function"
    },
    {
      "constant": false,
      "inputs": [],
      "name": "addCharacter",
      "outputs": [],
      "payable": true,
      "stateMutability": "payable",
      "type": "function"
    },
    {
      "constant": false,
      "inputs": [],
      "name": "addServer",
      "outputs": [],
      "payable": true,
      "stateMutability": "payable",
      "type": "function"
    }
  ],
  "bytecode": "0x606060405234156200001057600080fd5b6200001a6200063e565b620000246200063e565b33600460006101000a81548173ffffffffffffffffffffffffffffffffffffffff021916908373ffffffffffffffffffffffffffffffffffffffff1602179055506000600581905550600060078190555060006008819055506000600981905550610100604051908101604052806040805190810160405280600581526020017f6e756a616b0000000000000000000000000000000000000000000000000000008152508152602001606460ff168152602001600015158152602001600060ff16815260200173627306090abab3a6e1400e9345bc60c78a8bef5773ffffffffffffffffffffffffffffffffffffffff168152602001600060ff168152602001600060ff168152602001606060405190810160405280603481526020017f2f697066732f516d5a76755257376973337575356b767048615372476171486781526020017f734c76616447625039324b39336f37587a517939000000000000000000000000815250815250915060068054806001018281620001a69190620006b8565b916000526020600020906003020160008490919091506000820151816000019080519060200190620001da929190620006ed565b5060208201518160010160006101000a81548160ff021916908360ff16021790555060408201518160010160016101000a81548160ff02191690831515021790555060608201518160010160026101000a81548160ff021916908360ff16021790555060808201518160010160036101000a81548173ffffffffffffffffffffffffffffffffffffffff021916908373ffffffffffffffffffffffffffffffffffffffff16021790555060a08201518160010160176101000a81548160ff021916908360ff16021790555060c08201518160010160186101000a81548160ff021916908360ff16021790555060e0820151816002019080519060200190620002e4929190620006ed565b50505050610100604051908101604052806040805190810160405280600681526020017f6e756a616b6100000000000000000000000000000000000000000000000000008152508152602001606460ff168152602001600015158152602001600160ff16815260200173f17f52151ebef6c7334fad080c5704d77216b73273ffffffffffffffffffffffffffffffffffffffff168152602001600060ff168152602001600060ff168152602001606060405190810160405280603481526020017f2f697066732f516d6459774c314655385776445874556157746d73585557353681526020017f38524a525339657847633863626561485558644b000000000000000000000000815250815250905060068054806001018281620004099190620006b8565b9160005260206000209060030201600083909190915060008201518160000190805190602001906200043d929190620006ed565b5060208201518160010160006101000a81548160ff021916908360ff16021790555060408201518160010160016101000a81548160ff02191690831515021790555060608201518160010160026101000a81548160ff021916908360ff16021790555060808201518160010160036101000a81548173ffffffffffffffffffffffffffffffffffffffff021916908373ffffffffffffffffffffffffffffffffffffffff16021790555060a08201518160010160176101000a81548160ff021916908360ff16021790555060c08201518160010160186101000a81548160ff021916908360ff16021790555060e082015181600201908051906020019062000547929190620006ed565b50505050600260056000828254019250508190555060016003600073627306090abab3a6e1400e9345bc60c78a8bef5773ffffffffffffffffffffffffffffffffffffffff1673ffffffffffffffffffffffffffffffffffffffff16815260200190815260200160002060006101000a81548160ff021916908360ff16021790555060026003600073f17f52151ebef6c7334fad080c5704d77216b73273ffffffffffffffffffffffffffffffffffffffff1673ffffffffffffffffffffffffffffffffffffffff16815260200190815260200160002060006101000a81548160ff021916908360ff1602179055505050620008cd565b610100604051908101604052806200065562000774565b8152602001600060ff168152602001600015158152602001600060ff168152602001600073ffffffffffffffffffffffffffffffffffffffff168152602001600060ff168152602001600060ff168152602001620006b262000774565b81525090565b815481835581811511620006e857600302816003028360005260206000209182019101620006e7919062000788565b5b505050565b828054600181600116156101000203166002900490600052602060002090601f016020900481019282601f106200073057805160ff191683800117855562000761565b8280016001018555821562000761579182015b828111156200076057825182559160200191906001019062000743565b5b50905062000770919062000859565b5090565b602060405190810160405280600081525090565b6200085691905b80821115620008525760008082016000620007ab919062000881565b6001820160006101000a81549060ff02191690556001820160016101000a81549060ff02191690556001820160026101000a81549060ff02191690556001820160036101000a81549073ffffffffffffffffffffffffffffffffffffffff02191690556001820160176101000a81549060ff02191690556001820160186101000a81549060ff021916905560028201600062000848919062000881565b506003016200078f565b5090565b90565b6200087e91905b808211156200087a57600081600090555060010162000860565b5090565b90565b50805460018160011615610100020316600290046000825580601f10620008a95750620008ca565b601f016020900490600052602060002090810190620008c9919062000859565b5b50565b612d3b80620008dd6000396000f3006060604052600436106100ba576000357c0100000000000000000000000000000000000000000000000000000000900463ffffffff1680631464a5dd146100bf57806325666da5146100e257806325f476dd1461010b578063378a622c1461015c5780634cbcb4b91461017f57806364189a70146101945780636898f82b1461019e578063893d20e8146101c15780639e801d5414610216578063a2613b5b14610220578063ea17532e14610273578063eb53d273146103d6575b600080fd5b34156100ca57600080fd5b6100e060048080359060200190919050506103ff565b005b34156100ed57600080fd5b6100f5610465565b6040518082815260200191505060405180910390f35b341561011657600080fd5b610142600480803573ffffffffffffffffffffffffffffffffffffffff1690602001909190505061046f565b604051808215151515815260200191505060405180910390f35b341561016757600080fd5b61017d6004808035906020019091905050610529565b005b341561018a57600080fd5b61019261058f565b005b61019c610816565b005b34156101a957600080fd5b6101bf6004808035906020019091905050610828565b005b34156101cc57600080fd5b6101d4610abe565b604051808273ffffffffffffffffffffffffffffffffffffffff1673ffffffffffffffffffffffffffffffffffffffff16815260200191505060405180910390f35b61021e610ae8565b005b341561022b57600080fd5b61024a6004808035906020019091908035906020019091905050610afa565b604051808360ff1660ff1681526020018260ff1660ff1681526020019250505060405180910390f35b341561027e57600080fd5b6102946004808035906020019091905050610b90565b60405180806020018881526020018781526020018673ffffffffffffffffffffffffffffffffffffffff1673ffffffffffffffffffffffffffffffffffffffff1681526020018560ff1660ff1681526020018460ff1660ff1681526020018060200183810383528a818151815260200191508051906020019080838360005b8381101561032e578082015181840152602081019050610313565b50505050905090810190601f16801561035b5780820380516001836020036101000a031916815260200191505b50838103825284818151815260200191508051906020019080838360005b83811015610394578082015181840152602081019050610379565b50505050905090810190601f1680156103c15780820380516001836020036101000a031916815260200191505b50995050505050505050505060405180910390f35b34156103e157600080fd5b6103e9610e63565b6040518082815260200191505060405180910390f35b600460009054906101000a900473ffffffffffffffffffffffffffffffffffffffff1673ffffffffffffffffffffffffffffffffffffffff163373ffffffffffffffffffffffffffffffffffffffff1614151561045b57600080fd5b8060088190555050565b6000600554905090565b600080600360008473ffffffffffffffffffffffffffffffffffffffff1673ffffffffffffffffffffffffffffffffffffffff16815260200190815260200160002060009054906101000a900460ff16905060008160ff161115156104d357600080fd5b600181039050600060019054906101000a900460ff1660ff1660068260ff168154811015156104fe57fe5b906000526020600020906003020160010160029054906101000a900460ff1660ff1614915050919050565b600460009054906101000a900473ffffffffffffffffffffffffffffffffffffffff1673ffffffffffffffffffffffffffffffffffffffff163373ffffffffffffffffffffffffffffffffffffffff1614151561058557600080fd5b8060098190555050565b60008060008042604051808281526020019150506040518091039020600190049350600a92505b60008311156106615783604051808281526020019150506040518091039020600190049350600a848115156105e757fe5b06915083604051808281526020019150506040518091039020600190049350600a8481151561061257fe5b069050600160026000848152602001908152602001600020600083815260200190815260200160002060000160006101000a81548160ff021916908360ff1602179055506001830392506105b6565b60036006600081548110151561067357fe5b906000526020600020906003020160010160176101000a81548160ff021916908360ff1602179055506003600660008154811015156106ae57fe5b906000526020600020906003020160010160186101000a81548160ff021916908360ff1602179055506001600260006003815260200190815260200160002060006003815260200190815260200160002060000160016101000a81548160ff021916908360ff16021790555060076006600181548110151561072c57fe5b906000526020600020906003020160010160176101000a81548160ff021916908360ff16021790555060076006600181548110151561076757fe5b906000526020600020906003020160010160186101000a81548160ff021916908360ff16021790555060028060006007815260200190815260200160002060006007815260200190815260200160002060000160016101000a81548160ff021916908360ff16021790555060026000806101000a81548160ff021916908360ff16021790555060008060016101000a81548160ff021916908360ff160217905550600060018190555050505050565b6009543414151561082657600080fd5b565b600060108210151561083957600080fd5b600360003373ffffffffffffffffffffffffffffffffffffffff1673ffffffffffffffffffffffffffffffffffffffff16815260200190815260200160002060009054906101000a900460ff16905060008160ff1611151561089a57600080fd5b600181039050600060019054906101000a900460ff1660ff1660068260ff168154811015156108c557fe5b906000526020600020906003020160010160029054906101000a900460ff1660ff161415156108f357600080fd5b600082141561090a5761090581610e6d565b610a6e565b60018214156109215761091c816111d4565b610a6d565b60028214156109385761093381611487565b610a6c565b600382141561094f5761094a816117ee565b610a6b565b60048214156109665761096181611aa1565b610a6a565b600582141561097d5761097881611e08565b610a69565b60068214156109945761098f816120bb565b610a68565b60078214156109ab576109a681612422565b610a67565b60088214156109c2576109bd816126d5565b610a66565b60098214156109d9576109d48161278a565b610a65565b600a8214156109f0576109eb8161283c565b610a64565b600b821415610a0757610a02816128f1565b610a63565b600c821415610a1e57610a19816129a3565b610a62565b600d821415610a3557610a3081612a58565b610a61565b600e821415610a4c57610a4781612b0a565b610a60565b600f821415610a5f57610a5e81612bbf565b5b5b5b5b5b5b5b5b5b5b5b5b5b5b5b5b6000809054906101000a900460ff1660ff166001600060019054906101000a900460ff160160ff16811515610a9f57fe5b06600060016101000a81548160ff021916908360ff1602179055505050565b6000600460009054906101000a900473ffffffffffffffffffffffffffffffffffffffff16905090565b60085434141515610af857600080fd5b565b600080600a84101515610b0c57600080fd5b600a83101515610b1b57600080fd5b60026000858152602001908152602001600020600084815260200190815260200160002060000160009054906101000a900460ff1660026000868152602001908152602001600020600085815260200190815260200160002060000160019054906101000a900460ff16915091509250929050565b610b98612c71565b6000806000806000610ba8612c71565b610bb0612c85565b600289101515610bbf57600080fd5b600689815481101515610bce57fe5b90600052602060002090600302016101006040519081016040529081600082018054600181600116156101000203166002900480601f016020809104026020016040519081016040528092919081815260200182805460018160011615610100020316600290048015610c825780601f10610c5757610100808354040283529160200191610c82565b820191906000526020600020905b815481529060010190602001808311610c6557829003601f168201915b505050505081526020016001820160009054906101000a900460ff1660ff1660ff1681526020016001820160019054906101000a900460ff161515151581526020016001820160029054906101000a900460ff1660ff1660ff1681526020016001820160039054906101000a900473ffffffffffffffffffffffffffffffffffffffff1673ffffffffffffffffffffffffffffffffffffffff1673ffffffffffffffffffffffffffffffffffffffff1681526020016001820160179054906101000a900460ff1660ff1660ff1681526020016001820160189054906101000a900460ff1660ff1660ff168152602001600282018054600181600116156101000203166002900480601f016020809104026020016040519081016040528092919081815260200182805460018160011615610100020316600290048015610e095780601f10610dde57610100808354040283529160200191610e09565b820191906000526020600020905b815481529060010190602001808311610dec57829003601f168201915b505050505081525050905080600001518160200151826060015183608001518460a001518560c001518660e001518696508560ff1695508460ff169450809050975097509750975097509750975050919395979092949650565b6000600754905090565b600060068260ff16815481101515610e8157fe5b906000526020600020906003020160010160189054906101000a900460ff1660ff16111515610eaf57600080fd5b600060068260ff16815481101515610ec357fe5b906000526020600020906003020160010160179054906101000a900460ff1660ff16111515610ef157600080fd5b600060026000600160068560ff16815481101515610f0b57fe5b906000526020600020906003020160010160179054906101000a900460ff160360ff1681526020019081526020016000206000600160068560ff16815481101515610f5257fe5b906000526020600020906003020160010160189054906101000a900460ff160360ff16815260200190815260200160002060000160019054906101000a900460ff1660ff16141515610fa357600080fd5b60006002600060068460ff16815481101515610fbb57fe5b906000526020600020906003020160010160179054906101000a900460ff1660ff168152602001908152602001600020600060068460ff16815481101515610fff57fe5b906000526020600020906003020160010160189054906101000a900460ff1660ff16815260200190815260200160002060000160016101000a81548160ff021916908360ff160217905550600160068260ff1681548110151561105e57fe5b906000526020600020906003020160010160189054906101000a900460ff160360068260ff1681548110151561109057fe5b906000526020600020906003020160010160186101000a81548160ff021916908360ff160217905550600160068260ff168154811015156110cd57fe5b906000526020600020906003020160010160179054906101000a900460ff160360068260ff168154811015156110ff57fe5b906000526020600020906003020160010160176101000a81548160ff021916908360ff160217905550600181016002600060068460ff1681548110151561114257fe5b906000526020600020906003020160010160179054906101000a900460ff1660ff168152602001908152602001600020600060068460ff1681548110151561118657fe5b906000526020600020906003020160010160189054906101000a900460ff1660ff16815260200190815260200160002060000160016101000a81548160ff021916908360ff16021790555050565b600060068260ff168154811015156111e857fe5b906000526020600020906003020160010160189054906101000a900460ff1660ff1611151561121657600080fd5b60006002600060068460ff1681548110151561122e57fe5b906000526020600020906003020160010160179054906101000a900460ff1660ff1681526020019081526020016000206000600160068560ff1681548110151561127457fe5b906000526020600020906003020160010160189054906101000a900460ff160360ff16815260200190815260200160002060000160019054906101000a900460ff1660ff161415156112c557600080fd5b60006002600060068460ff168154811015156112dd57fe5b906000526020600020906003020160010160179054906101000a900460ff1660ff168152602001908152602001600020600060068460ff1681548110151561132157fe5b906000526020600020906003020160010160189054906101000a900460ff1660ff16815260200190815260200160002060000160016101000a81548160ff021916908360ff160217905550600160068260ff1681548110151561138057fe5b906000526020600020906003020160010160189054906101000a900460ff160360068260ff168154811015156113b257fe5b906000526020600020906003020160010160186101000a81548160ff021916908360ff160217905550600181016002600060068460ff168154811015156113f557fe5b906000526020600020906003020160010160179054906101000a900460ff1660ff168152602001908152602001600020600060068460ff1681548110151561143957fe5b906000526020600020906003020160010160189054906101000a900460ff1660ff16815260200190815260200160002060000160016101000a81548160ff021916908360ff16021790555050565b600060068260ff1681548110151561149b57fe5b906000526020600020906003020160010160189054906101000a900460ff1660ff161115156114c957600080fd5b600960068260ff168154811015156114dd57fe5b906000526020600020906003020160010160179054906101000a900460ff1660ff1610151561150b57600080fd5b600060026000600160068560ff1681548110151561152557fe5b906000526020600020906003020160010160179054906101000a900460ff160160ff1681526020019081526020016000206000600160068560ff1681548110151561156c57fe5b906000526020600020906003020160010160189054906101000a900460ff160360ff16815260200190815260200160002060000160019054906101000a900460ff1660ff161415156115bd57600080fd5b60006002600060068460ff168154811015156115d557fe5b906000526020600020906003020160010160179054906101000a900460ff1660ff168152602001908152602001600020600060068460ff1681548110151561161957fe5b906000526020600020906003020160010160189054906101000a900460ff1660ff16815260200190815260200160002060000160016101000a81548160ff021916908360ff160217905550600160068260ff1681548110151561167857fe5b906000526020600020906003020160010160189054906101000a900460ff160360068260ff168154811015156116aa57fe5b906000526020600020906003020160010160186101000a81548160ff021916908360ff160217905550600160068260ff168154811015156116e757fe5b906000526020600020906003020160010160179054906101000a900460ff160160068260ff1681548110151561171957fe5b906000526020600020906003020160010160176101000a81548160ff021916908360ff160217905550600181016002600060068460ff1681548110151561175c57fe5b906000526020600020906003020160010160179054906101000a900460ff1660ff168152602001908152602001600020600060068460ff168154811015156117a057fe5b906000526020600020906003020160010160189054906101000a900460ff1660ff16815260200190815260200160002060000160016101000a81548160ff021916908360ff16021790555050565b600960068260ff1681548110151561180257fe5b906000526020600020906003020160010160179054906101000a900460ff1660ff1610151561183057600080fd5b600060026000600160068560ff1681548110151561184a57fe5b906000526020600020906003020160010160179054906101000a900460ff160160ff168152602001908152602001600020600060068460ff1681548110151561188f57fe5b906000526020600020906003020160010160189054906101000a900460ff1660ff16815260200190815260200160002060000160019054906101000a900460ff1660ff161415156118df57600080fd5b60006002600060068460ff168154811015156118f757fe5b906000526020600020906003020160010160179054906101000a900460ff1660ff168152602001908152602001600020600060068460ff1681548110151561193b57fe5b906000526020600020906003020160010160189054906101000a900460ff1660ff16815260200190815260200160002060000160016101000a81548160ff021916908360ff160217905550600160068260ff1681548110151561199a57fe5b906000526020600020906003020160010160179054906101000a900460ff160160068260ff168154811015156119cc57fe5b906000526020600020906003020160010160176101000a81548160ff021916908360ff160217905550600181016002600060068460ff16815481101515611a0f57fe5b906000526020600020906003020160010160179054906101000a900460ff1660ff168152602001908152602001600020600060068460ff16815481101515611a5357fe5b906000526020600020906003020160010160189054906101000a900460ff1660ff16815260200190815260200160002060000160016101000a81548160ff021916908360ff16021790555050565b600960068260ff16815481101515611ab557fe5b906000526020600020906003020160010160189054906101000a900460ff1660ff16101515611ae357600080fd5b600960068260ff16815481101515611af757fe5b906000526020600020906003020160010160179054906101000a900460ff1660ff16101515611b2557600080fd5b600060026000600160068560ff16815481101515611b3f57fe5b906000526020600020906003020160010160179054906101000a900460ff160160ff1681526020019081526020016000206000600160068560ff16815481101515611b8657fe5b906000526020600020906003020160010160189054906101000a900460ff160160ff16815260200190815260200160002060000160019054906101000a900460ff1660ff16141515611bd757600080fd5b60006002600060068460ff16815481101515611bef57fe5b906000526020600020906003020160010160179054906101000a900460ff1660ff168152602001908152602001600020600060068460ff16815481101515611c3357fe5b906000526020600020906003020160010160189054906101000a900460ff1660ff16815260200190815260200160002060000160016101000a81548160ff021916908360ff160217905550600160068260ff16815481101515611c9257fe5b906000526020600020906003020160010160189054906101000a900460ff160160068260ff16815481101515611cc457fe5b906000526020600020906003020160010160186101000a81548160ff021916908360ff160217905550600160068260ff16815481101515611d0157fe5b906000526020600020906003020160010160179054906101000a900460ff160160068260ff16815481101515611d3357fe5b906000526020600020906003020160010160176101000a81548160ff021916908360ff160217905550600181016002600060068460ff16815481101515611d7657fe5b906000526020600020906003020160010160179054906101000a900460ff1660ff168152602001908152602001600020600060068460ff16815481101515611dba57fe5b906000526020600020906003020160010160189054906101000a900460ff1660ff16815260200190815260200160002060000160016101000a81548160ff021916908360ff16021790555050565b600960068260ff16815481101515611e1c57fe5b906000526020600020906003020160010160189054906101000a900460ff1660ff16101515611e4a57600080fd5b60006002600060068460ff16815481101515611e6257fe5b906000526020600020906003020160010160179054906101000a900460ff1660ff1681526020019081526020016000206000600160068560ff16815481101515611ea857fe5b906000526020600020906003020160010160189054906101000a900460ff160160ff16815260200190815260200160002060000160019054906101000a900460ff1660ff16141515611ef957600080fd5b60006002600060068460ff16815481101515611f1157fe5b906000526020600020906003020160010160179054906101000a900460ff1660ff168152602001908152602001600020600060068460ff16815481101515611f5557fe5b906000526020600020906003020160010160189054906101000a900460ff1660ff16815260200190815260200160002060000160016101000a81548160ff021916908360ff160217905550600160068260ff16815481101515611fb457fe5b906000526020600020906003020160010160189054906101000a900460ff160160068260ff16815481101515611fe657fe5b906000526020600020906003020160010160186101000a81548160ff021916908360ff160217905550600181016002600060068460ff1681548110151561202957fe5b906000526020600020906003020160010160179054906101000a900460ff1660ff168152602001908152602001600020600060068460ff1681548110151561206d57fe5b906000526020600020906003020160010160189054906101000a900460ff1660ff16815260200190815260200160002060000160016101000a81548160ff021916908360ff16021790555050565b600960068260ff168154811015156120cf57fe5b906000526020600020906003020160010160189054906101000a900460ff1660ff161015156120fd57600080fd5b600060068260ff1681548110151561211157fe5b906000526020600020906003020160010160179054906101000a900460ff1660ff1611151561213f57600080fd5b600060026000600160068560ff1681548110151561215957fe5b906000526020600020906003020160010160179054906101000a900460ff160360ff1681526020019081526020016000206000600160068560ff168154811015156121a057fe5b906000526020600020906003020160010160189054906101000a900460ff160160ff16815260200190815260200160002060000160019054906101000a900460ff1660ff161415156121f157600080fd5b60006002600060068460ff1681548110151561220957fe5b906000526020600020906003020160010160179054906101000a900460ff1660ff168152602001908152602001600020600060068460ff1681548110151561224d57fe5b906000526020600020906003020160010160189054906101000a900460ff1660ff16815260200190815260200160002060000160016101000a81548160ff021916908360ff160217905550600160068260ff168154811015156122ac57fe5b906000526020600020906003020160010160189054906101000a900460ff160160068260ff168154811015156122de57fe5b906000526020600020906003020160010160186101000a81548160ff021916908360ff160217905550600160068260ff1681548110151561231b57fe5b906000526020600020906003020160010160179054906101000a900460ff160360068260ff1681548110151561234d57fe5b906000526020600020906003020160010160176101000a81548160ff021916908360ff160217905550600181016002600060068460ff1681548110151561239057fe5b906000526020600020906003020160010160179054906101000a900460ff1660ff168152602001908152602001600020600060068460ff168154811015156123d457fe5b906000526020600020906003020160010160189054906101000a900460ff1660ff16815260200190815260200160002060000160016101000a81548160ff021916908360ff16021790555050565b600060068260ff1681548110151561243657fe5b906000526020600020906003020160010160179054906101000a900460ff1660ff1611151561246457600080fd5b600060026000600160068560ff1681548110151561247e57fe5b906000526020600020906003020160010160179054906101000a900460ff160360ff168152602001908152602001600020600060068460ff168154811015156124c357fe5b906000526020600020906003020160010160189054906101000a900460ff1660ff16815260200190815260200160002060000160019054906101000a900460ff1660ff1614151561251357600080fd5b60006002600060068460ff1681548110151561252b57fe5b906000526020600020906003020160010160179054906101000a900460ff1660ff168152602001908152602001600020600060068460ff1681548110151561256f57fe5b906000526020600020906003020160010160189054906101000a900460ff1660ff16815260200190815260200160002060000160016101000a81548160ff021916908360ff160217905550600160068260ff168154811015156125ce57fe5b906000526020600020906003020160010160179054906101000a900460ff160360068260ff1681548110151561260057fe5b906000526020600020906003020160010160176101000a81548160ff021916908360ff160217905550600181016002600060068460ff1681548110151561264357fe5b906000526020600020906003020160010160179054906101000a900460ff1660ff168152602001908152602001600020600060068460ff1681548110151561268757fe5b906000526020600020906003020160010160189054906101000a900460ff1660ff16815260200190815260200160002060000160016101000a81548160ff021916908360ff16021790555050565b600060026000600160068560ff168154811015156126ef57fe5b906000526020600020906003020160010160179054906101000a900460ff160360ff1681526020019081526020016000206000600160068560ff1681548110151561273657fe5b906000526020600020906003020160010160189054906101000a900460ff160360ff16815260200190815260200160002060000160019054906101000a900460ff1660ff1611151561278757600080fd5b50565b60006002600060068460ff168154811015156127a257fe5b906000526020600020906003020160010160179054906101000a900460ff1660ff1681526020019081526020016000206000600160068560ff168154811015156127e857fe5b906000526020600020906003020160010160189054906101000a900460ff160360ff16815260200190815260200160002060000160019054906101000a900460ff1660ff1611151561283957600080fd5b50565b600060026000600160068560ff1681548110151561285657fe5b906000526020600020906003020160010160179054906101000a900460ff160160ff1681526020019081526020016000206000600160068560ff1681548110151561289d57fe5b906000526020600020906003020160010160189054906101000a900460ff160360ff16815260200190815260200160002060000160019054906101000a900460ff1660ff161115156128ee57600080fd5b50565b600060026000600160068560ff1681548110151561290b57fe5b906000526020600020906003020160010160179054906101000a900460ff160160ff168152602001908152602001600020600060068460ff1681548110151561295057fe5b906000526020600020906003020160010160189054906101000a900460ff1660ff16815260200190815260200160002060000160019054906101000a900460ff1660ff161115156129a057600080fd5b50565b600060026000600160068560ff168154811015156129bd57fe5b906000526020600020906003020160010160179054906101000a900460ff160160ff1681526020019081526020016000206000600160068560ff16815481101515612a0457fe5b906000526020600020906003020160010160189054906101000a900460ff160160ff16815260200190815260200160002060000160019054906101000a900460ff1660ff16111515612a5557600080fd5b50565b60006002600060068460ff16815481101515612a7057fe5b906000526020600020906003020160010160179054906101000a900460ff1660ff1681526020019081526020016000206000600160068560ff16815481101515612ab657fe5b906000526020600020906003020160010160189054906101000a900460ff160160ff16815260200190815260200160002060000160019054906101000a900460ff1660ff16111515612b0757600080fd5b50565b600060026000600160068560ff16815481101515612b2457fe5b906000526020600020906003020160010160179054906101000a900460ff160360ff1681526020019081526020016000206000600160068560ff16815481101515612b6b57fe5b906000526020600020906003020160010160189054906101000a900460ff160160ff16815260200190815260200160002060000160019054906101000a900460ff1660ff16111515612bbc57600080fd5b50565b600060026000600160068560ff16815481101515612bd957fe5b906000526020600020906003020160010160179054906101000a900460ff160360ff168152602001908152602001600020600060068460ff16815481101515612c1e57fe5b906000526020600020906003020160010160189054906101000a900460ff1660ff16815260200190815260200160002060000160019054906101000a900460ff1660ff16111515612c6e57600080fd5b50565b602060405190810160405280600081525090565b61010060405190810160405280612c9a612cfb565b8152602001600060ff168152602001600015158152602001600060ff168152602001600073ffffffffffffffffffffffffffffffffffffffff168152602001600060ff168152602001600060ff168152602001612cf5612cfb565b81525090565b6020604051908101604052806000815250905600a165627a7a72305820f32610d8bbd3723ce5dcbe10125315ae01b2f94dbe61f79a09d3cb67617dafa70029",
  "source": "pragma solidity ^0.4.2;\n\n\ncontract NujaBattle {\n\n    ///////////////////////////////////////////////////////////////\n    /// Modifiers\n\n    modifier onlyOwner {\n        require(msg.sender == owner);\n        _;\n    }\n\n    ///////////////////////////////////////////////////////////////\n    /// Structures\n\n    struct Character {\n        string name;\n        uint8 health;\n        bool isPlaying;\n        uint8 number;\n        address owner;\n        uint8 positionX;\n        uint8 positionY;\n        string ipfs;\n    }\n\n    struct Field {\n        uint8 building;\n        uint8 character;\n    }\n\n    /* struct Server { */\n    uint8 playerNb;\n    uint8 turnPlayer;\n    uint turnGame;\n    mapping (uint => mapping (uint => Field)) fields;\n    mapping (address => uint8) players;\n    /* } */\n\n    ///////////////////////////////////////////////////////////////\n    /// Constants\n\n    string constant NAME = \"Nujak token\";\n    string constant SYMBOL = \"NUJ\";\n\n    ///////////////////////////////////////////////////////////////\n    /// Attributes\n\n    address owner;\n    uint256 characterNb;\n    Character[] characters;\n    uint256 serverNb;\n    //Server[] servers;\n    uint serverFee;\n    uint characterFee;\n\n    ///////////////////////////////////////////////////////////////\n    /// Constructor\n\n    function NujaBattle() public {\n        owner = msg.sender;\n        characterNb = 0;\n        serverNb = 0;\n        serverFee = 0;\n        characterFee = 0;\n\n        // Test character\n        Character memory character1 = Character('nujak', 100, false, 0, 0x627306090abaB3A6e1400e9345bC60c78a8BEf57, 0, 0, '/ipfs/QmZvuRW7is3uu5kvpHaSrGaqHgsLvadGbP92K93o7XzQy9');\n        characters.push(character1);\n        Character memory character2 = Character('nujaka', 100, false, 1, 0xf17f52151EbEF6C7334FAD080c5704D77216b732, 0, 0, '/ipfs/QmdYwL1FU8WvDXtUaWtmsXUW568RJRS9exGc8cbeaHUXdK');\n        characters.push(character2);\n        characterNb += 2;\n\n        players[0x627306090abaB3A6e1400e9345bC60c78a8BEf57] = 1;\n        players[0xf17f52151EbEF6C7334FAD080c5704D77216b732] = 2;\n    }\n\n\n    ///////////////////////////////////////////////////////////////\n    /// Test zone\n    function moveUpLeft(uint8 p) internal {\n        require(characters[p].positionY > 0);\n        require(characters[p].positionX > 0);\n        require(fields[characters[p].positionX-1][characters[p].positionY-1].character == 0);\n\n        fields[characters[p].positionX][characters[p].positionY].character = 0;\n        characters[p].positionY = characters[p].positionY-1;\n        characters[p].positionX = characters[p].positionX-1;\n        fields[characters[p].positionX][characters[p].positionY].character = p+1;\n    }\n    function moveUp(uint8 p) internal {\n        require(characters[p].positionY > 0);\n        require(fields[characters[p].positionX][characters[p].positionY-1].character == 0);\n\n        fields[characters[p].positionX][characters[p].positionY].character = 0;\n        characters[p].positionY = characters[p].positionY-1;\n        fields[characters[p].positionX][characters[p].positionY].character = p+1;\n    }\n    function moveUpRight(uint8 p) internal {\n        require(characters[p].positionY > 0);\n        require(characters[p].positionX < 9);\n        require(fields[characters[p].positionX+1][characters[p].positionY-1].character == 0);\n\n        fields[characters[p].positionX][characters[p].positionY].character = 0;\n        characters[p].positionY = characters[p].positionY-1;\n        characters[p].positionX = characters[p].positionX+1;\n        fields[characters[p].positionX][characters[p].positionY].character = p+1;\n    }\n    function moveRight(uint8 p) internal {\n        require(characters[p].positionX < 9);\n        require(fields[characters[p].positionX+1][characters[p].positionY].character == 0);\n\n        fields[characters[p].positionX][characters[p].positionY].character = 0;\n        characters[p].positionX = characters[p].positionX+1;\n        fields[characters[p].positionX][characters[p].positionY].character = p+1;\n    }\n    function moveDownRight(uint8 p) internal {\n        require(characters[p].positionY < 9);\n        require(characters[p].positionX < 9);\n        require(fields[characters[p].positionX+1][characters[p].positionY+1].character == 0);\n\n        fields[characters[p].positionX][characters[p].positionY].character = 0;\n        characters[p].positionY = characters[p].positionY+1;\n        characters[p].positionX = characters[p].positionX+1;\n        fields[characters[p].positionX][characters[p].positionY].character = p+1;\n    }\n    function moveDown(uint8 p) internal {\n        require(characters[p].positionY < 9);\n        require(fields[characters[p].positionX][characters[p].positionY+1].character == 0);\n\n        fields[characters[p].positionX][characters[p].positionY].character = 0;\n        characters[p].positionY = characters[p].positionY+1;\n        fields[characters[p].positionX][characters[p].positionY].character = p+1;\n    }\n    function moveDownLeft(uint8 p) internal {\n        require(characters[p].positionY < 9);\n        require(characters[p].positionX > 0);\n        require(fields[characters[p].positionX-1][characters[p].positionY+1].character == 0);\n\n        fields[characters[p].positionX][characters[p].positionY].character = 0;\n        characters[p].positionY = characters[p].positionY+1;\n        characters[p].positionX = characters[p].positionX-1;\n        fields[characters[p].positionX][characters[p].positionY].character = p+1;\n    }\n    function moveLeft(uint8 p) internal {\n        require(characters[p].positionX > 0);\n        require(fields[characters[p].positionX-1][characters[p].positionY].character == 0);\n\n        fields[characters[p].positionX][characters[p].positionY].character = 0;\n        characters[p].positionX = characters[p].positionX-1;\n        fields[characters[p].positionX][characters[p].positionY].character = p+1;\n    }\n\n\n    function attackUpLeft(uint8 p) internal {\n        require(fields[characters[p].positionX-1][characters[p].positionY-1].character > 0);\n    }\n    function attackUp(uint8 p) internal {\n        require(fields[characters[p].positionX][characters[p].positionY-1].character > 0);\n    }\n    function attackUpRight(uint8 p) internal {\n        require(fields[characters[p].positionX+1][characters[p].positionY-1].character > 0);\n    }\n    function attackRight(uint8 p) internal {\n        require(fields[characters[p].positionX+1][characters[p].positionY].character > 0);\n    }\n    function attackDownRight(uint8 p) internal {\n        require(fields[characters[p].positionX+1][characters[p].positionY+1].character > 0);\n    }\n    function attackDown(uint8 p) internal {\n        require(fields[characters[p].positionX][characters[p].positionY+1].character > 0);\n    }\n    function attackDownLeft(uint8 p) internal {\n        require(fields[characters[p].positionX-1][characters[p].positionY+1].character > 0);\n    }\n    function attackLeft(uint8 p) internal {\n        require(fields[characters[p].positionX-1][characters[p].positionY].character > 0);\n    }\n\n\n    function deployServer() public {\n        uint seed = uint(keccak256(block.timestamp));\n\n        // City\n        uint city = 10;\n        while (city > 0) {\n            seed = uint(keccak256(seed));\n            uint x = seed%10;\n            seed = uint(keccak256(seed));\n            uint y = seed%10;\n\n            fields[x][y].building = 1;\n\n            city -= 1;\n        }\n\n        characters[0].positionX = 3;\n        characters[0].positionY = 3;\n        fields[3][3].character = 1;\n\n        characters[1].positionX = 7;\n        characters[1].positionY = 7;\n        fields[7][7].character = 2;\n\n        playerNb = 2;\n        turnPlayer = 0;\n        turnGame = 0;\n    }\n\n    function getField(uint x, uint y) public view returns(uint8 buildingRet, uint8 characterRet) {\n        require(x < 10);\n        require(y < 10);\n\n        return (fields[x][y].building, fields[x][y].character);\n    }\n\n    function getPlayerInfo(uint index) public view returns(string nameRet, uint healthRet, uint numberRet, address ownerRet, uint8 positionXRet, uint8 positionYRet, string ipfsRet) {\n        require(index < 2);\n\n        Character memory c = characters[index];\n\n        return (c.name, c.health, c.number, c.owner, c.positionX, c.positionY, c.ipfs);\n    }\n\n    function isTurn(address addr) public view returns(bool ret) {\n        uint8 p = players[addr];\n        require(p > 0);\n        p -= 1;\n        return characters[p].number == turnPlayer;\n    }\n\n    function play(uint command) public {\n        require(command < 16);\n\n        uint8 p = players[msg.sender];\n        require(p > 0);\n        p -= 1;\n        require(characters[p].number == turnPlayer);\n\n        if (command == 0) {\n            moveUpLeft(p);\n        }\n        else if (command == 1) {\n            moveUp(p);\n        }\n        else if (command == 2) {\n            moveUpRight(p);\n        }\n        else if (command == 3) {\n            moveRight(p);\n        }\n        else if (command == 4) {\n            moveDownRight(p);\n        }\n        else if (command == 5) {\n            moveDown(p);\n        }\n        else if (command == 6) {\n            moveDownLeft(p);\n        }\n        else if (command == 7) {\n            moveLeft(p);\n        }\n        else if (command == 8) {\n            attackUpLeft(p);\n        }\n        else if (command == 9) {\n            attackUp(p);\n        }\n        else if (command == 10) {\n            attackUpRight(p);\n        }\n        else if (command == 11) {\n            attackRight(p);\n        }\n        else if (command == 12) {\n            attackDownRight(p);\n        }\n        else if (command == 13) {\n            attackDown(p);\n        }\n        else if (command == 14) {\n            attackDownLeft(p);\n        }\n        else if (command == 15) {\n            attackLeft(p);\n        }\n\n        turnPlayer = (turnPlayer+1)%playerNb;\n    }\n\n    ///////////////////////////////////////////////////////////////\n    /// Admin\n\n    function changeCharacterFee(uint newFee) public onlyOwner {\n        characterFee = newFee;\n    }\n\n    function changeServerFee(uint newFee) public onlyOwner {\n        serverFee = newFee;\n    }\n\n    ///////////////////////////////////////////////////////////////\n    /// Methods\n\n    function getOwner() public view returns(address ret) {\n        return owner;\n    }\n\n    function getCharacterNb() public view returns(uint256 ret) {\n        return characterNb;\n    }\n\n    function getServerNb() public view returns(uint256 ret) {\n        return serverNb;\n    }\n\n    function addCharacter() payable public {\n        require(msg.value == characterFee);\n    }\n\n    function addServer() payable public {\n        require(msg.value == serverFee);\n    }\n}\n",
  "sourcePath": "/Users/bertrand/Projets/nujabattle/contracts/NujaBattle.sol",
  "compiler": {
    "name": "solc",
    "version": "0.4.19+commit.c4cbbb05.Emscripten.clang"
  },
  "schemaVersion": "2.0.0",
  "updatedAt": "2018-04-08T17:13:53.153Z"
}